:020000040800F2
:10000000E0EB01201503000833030008A72A0008CD
:1000100037030008390300083B0300080000000014
:100020000000000000000000000000003D03000888
:1000300057030008000000008F2A00085B03000837
:100040005D0300085D0300085D0300085D03000810
:100050005D0300085D0300085D0300085D03000800
:100060005D0300085D0300085D0300085D030008F0
:100070005D0300085D0300085D0300085D030008E0
:100080005D0300085D030008B50400083B34000868
:10009000853300085D0300085D0300085D03000868
:1000A0005D0300085D0300085D0300085D030008B0
:1000B0005D0300085D0300085D0300085D030008A0
:1000C0005D0300085D0300085D0300085D03000890
:1000D0005D0300085D0300085D0300085D03000880
:1000E0005D0300085D0300085D0300085D03000870
:1000F0005D0300085D0300085D0300085D03000860
:100100005D0300085D0300085D0300085D0300084F
:100110005D0300085D0300085D0300085D0300083F
:100120005D0300085D0300085D0300085D0300082F
:100130005D0300085D0300085D0300085D0300081F
:100140005D0300085D0300085D0300085D0300080F
:100150005D0300085D0300085D0300085D030008FF
:100160005D0300085D0300085D0300085D030008EF
:100170005D0300085D0300085D0300085D030008DF
:100180005D0300085D03000800F002F800F0B2F81B
:100190000AA090E8000C82448344AAF10107DA45E2
:1001A00001D100F0A7F8AFF2090EBAE80F0013F082
:1001B000010F18BFFB1A43F00103184788AD000078
:1001C000A8AD00000A444FF0000C10F8013B13F0FA
:1001D000070408BF10F8014B1D1108BF10F8015BA0
:1001E000641E05D010F8016B641E01F8016BF9D193
:1001F00013F0080F1EBF10F8014BAD1C0C1B09D1EA
:100200006D1E58BF01F801CBFAD505E014F8016B5B
:1002100001F8016B6D1EF9D59142D6D370470000ED
:100220000023002400250026103A28BF78C1FBD8FF
:10023000520728BF30C148BF0B6070476E2906F0D7
:100240008381702906F0D381662908F079876529B2
:1002500008F07687672908F073876129AFF300807B
:1002600003681B0A28BF41F08001692906F030812C
:10027000642906F02D81752906F02A816F2906F080
:10028000B787782906F09F81E92906F05187E4298C
:1002900006F04E87F52906F04B87EF2906F0B48764
:1002A000F82906F09E810368DB0928BF41F0800130
:1002B000632906F0D286732906F0D786E32907F072
:1002C000C380F32907F0C880002070471FB508F0ED
:1002D00032FF07F019F804000020002108F0D2F9DD
:1002E000401C60600020002108F0B6F9E0601FBDEE
:1002F00010B510BD07F000FB1146FFF7E7FF01F056
:1003000045FC07F027FB03B4FFF7F2FF03BC07F03F
:100310002BFB000015481649026800608A4203D092
:1003200014488047144800471448D0F800D040686B
:100330000047FEE7FEE7FEE7FEE7FEE71EF0040FDC
:100340000CBFEFF30880EFF30980806910F8020C0E
:1003500002F0A5BBFEE7FEE7FEE7FEE7FEE70000D2
:1003600007480849084A094B70470000F01F002061
:10037000EFBEADDE47120008890100080000FF1F34
:10038000E0E50120E0EB0120E0E70120E0E70120CB
:1003900052480168524A1143016052490A6840F2CA
:1003A000333002430A604F490C310A6882430A60C5
:1003B0004A481430016841F4807101604A48D0F81D
:1003C000041341F44031C0F8041340F2033181605A
:1003D00046F28611C160C16A21F47001C162C16A2E
:1003E00041F40011C16243F68A1141633F490A6832
:1003F00022F001020A600A68D207FCD10A6822F0E2
:1004000060620A600A6842F450620A60364A374BFA
:100410004C3208331A601B1D354A1A60334B0322D5
:100420001B1D1A60426842F480724260426822F0EA
:1004300000724260426822F0807242600A6842F0B4
:1004400001020A60816841F080418160016821F009
:1004500002010160416841F02001416025491020FE
:1004600081F80004122000F02EB82148408870471F
:100470001F4880887047012803D01D4931F81000BB
:10048000704700211C4A084652F82030401C19448D
:100490002028F9D3C1F34F10704770474FF0E02286
:1004A0004FF48021C2F880111149091F0860122001
:1004B00000F009B80C48016821F0040101600C4803
:1004C000001F0068004700F01F0201219140400911
:1004D000800000F1E020C0F8001170473038024081
:1004E0000400400000080240002001407064024007
:1004F0000400002012E000E03C0300202DE9F0435E
:10050000CE4D286840F001002860CD48016821F0F8
:100510000C010160C16821F00C01C1604FF4802121
:100520008161026842F010020260026822F020023B
:100530000260826862F0300282608200826102683A
:1005400042F040020260026822F08002026082688B
:1005500062F0C00282604FF0400CC0F818C0026820
:1005600042F480520260026822F400520260826803
:1005700042F440528260026822F440320260C26853
:1005800022F44032C2602A6842F002022A60AD4A78
:10059000136823F00C031360AA4B0C331C6824F07F
:1005A0000C041C60DFF89C9209F11809C9F80010CE
:1005B000116841F010011160116821F020011160F3
:1005C0001F1F396821F030013960116821F4707102
:1005D0001160196821F4707119609B4EC10131607E
:1005E000994918390C6844F480340C600C6824F480
:1005F00000340C60944C103CD4F8008028F440384F
:10060000C4F800804FF08008C6F80080D1F8008060
:1006100048F48048C1F80080D1F8008028F40048F0
:10062000C1F80080D4F8008028F44048C4F8008065
:10063000D5F8008048F00408C5F80080082535602A
:100640000D6845F040050D600D6825F080050D60D2
:10065000256825F0C0052560C6F800C00D6845F482
:1006600080550D600D6825F400550D60256825F452
:1006700040552560156825F4407515601D6825F402
:1006800040751D60451535600D6845F480250D6089
:100690000D6825F400250D60256825F440252560AA
:1006A000156825F0C00515601D6825F0C0051D60A2
:1006B000156825F0404515601D6825F040451D6012
:1006C000156825F0406515601D6825F040651D60C2
:1006D0000D6825F440650D60251DD5F800C02CF48B
:1006E000406CC5F800C0D1F800C02CF0405CC1F8E7
:1006F00000C0D5F800C02CF0805CC5F800C0D5F86B
:1007000000C04CF0005CC5F800C04FF4004CC6F8C7
:1007100000C00E6846F080460E600E6826F0004667
:100720000E60266826F040462660C0F818C00468AF
:1007300044F080440460046824F000440460846849
:1007400024F0404484602024C9F80040106840F43C
:1007500080601060106820F400601060386820F439
:1007600040603860086820F440600860286820F421
:1007700040602860106820F040501060186820F039
:1007800040501860BDE8F08308B1402001E04FF40C
:1007900080002B498861704708B1082001E04FF4C0
:1007A0000020274988617047264810300068C0F350
:1007B000C030704770472348016821F00C01016088
:1007C0002049202018310860BFF35F8F1D4810308A
:1007D0000068C0F3400070471A4918310A6842F4B3
:1007E00000120A6008B1022001E04FF400300860F6
:1007F0001448016841F004010160704712490A6819
:1008000042F000420A6008B1022001E04FF40030DB
:100810000B498861086840F0040008607047084888
:10082000016821F00C010160074A4FF4004111609A
:10083000BFF35F8F0069C0F340007047303802405B
:100840000000024000040240180802402DE9F04177
:100850000446D0F8000101262F4D02282AD002209C
:10086000BDE8F081A8682154401CA860062812D178
:100870002279110601D5A17800E00021891D02F03E
:100880007F02E960502A04D16279012A01D18029CE
:1008900001D99020E4E7E968884206D10020A860E9
:1008A00001200326C4F800010BE0D4F80001012860
:1008B00002D106E04FF6FF7700F0B1F90146B842E9
:1008C000D0D13046CCE710B5134CD0F80022D4E993
:1008D000001319441344636003E010F8013B01F86E
:1008E000013B521EF9D210BD10B50B4C60680028B8
:1008F00011D000F0C7F900280DD0D4E9000100F0B4
:10090000A4F9064920688842084601D100F5007024
:1009100020600020606010BD10010020E005002074
:10092000614810B5016841F4802101605E481038CB
:1009300001685E4A114301605D48016821F480113D
:100940000160016841F400110160011D0A6822F490
:1009500080620A6056490C310A6822F440120A602B
:100960000A1F136823F440131360514A243213689A
:1009700023F4706343F4E0631360036823F480039B
:100980000360036843F400030360086820F4400038
:100990000860106820F4704040F4E0401060454961
:1009A0005B2008804348002308300380001D03803B
:1009B0000A1D118841F400511180018841F0C001E5
:1009C00001803D48816D21F001018165816DC9077C
:1009D000FCD1816D21F060618165816D41F0006124
:1009E0008165816D41F488618165324C241F046604
:1009F000C365816A21F001018162816AC907FCD166
:100A0000816A21F060618162816A41F000618162E6
:100A1000816A41F4A06181620463284941634FF413
:100A20000061C162234908390B8823F040030B8021
:100A3000118841F00C011180816A41F0010181624D
:100A400010BD1D48C06A1E4AC0F50060116888428A
:100A500002D14FF6FF7070471848405C491C116086
:100A6000B1F5006FF7D1002111607047124A936D04
:100A700023F001039365936DDB07FCD15066D165CC
:100A80000C480838018821F0400101804FF00060D7
:100A90009060906D40F001009065704705480838FF
:100AA000008800F0400070474038024002002000FB
:100AB000000402400848004000600240E0090020B5
:100AC00020010020724810B5016841F0100101605A
:100AD0006F48143801686F4A114301606E4801681D
:100AE00021F480210160016841F400210160416826
:100AF00021F400714160C16821F44021C160816826
:100B000021F440218160416A21F0F00141F070013F
:100B10004162016821F480110160016841F4001113
:100B20000160C16821F40011C160C16841F4801105
:100B3000C160416A21F4706141F4E0614162C10227
:100B40008161016841F080710160016821F00071EC
:100B50000160816841F040718160016821F44001C9
:100B60000160C16821F40001C160C16841F48001E5
:100B7000C1604A49B620088100230B828B82888994
:100B800040F400508881888A40F0C0008882444840
:100B9000026822F0010202600268D207FCD10268FA
:100BA00022F060620260026842F000620260026845
:100BB00042F488620260394C3948241D08300460D0
:100BC000001F036036487838026822F00102026094
:100BD0000268D207FCD1026822F0606202600268FB
:100BE00042F000620260026842F4A06202602C4A95
:100BF000703A14602A4B2B4A6C3B1A609A15284BAA
:100C0000743B1A600A8822F040020A808A8942F006
:100C10000C028A81016841F00101016010BD204889
:100C200074380068204AC0F580701168884202D18B
:100C30004FF6FF7070471B48405C491C1160B1F5CE
:100C4000807FF7D1002111607047154A136823F0A7
:100C5000010313601368DB07FCD1114B0C331860E0
:100C60000F48001D01600D48018821F040010180FE
:100C70000B494FF00060AC390860106840F001008B
:100C8000106070470548008800F040007047000081
:100C900044380240010040000000024000100140C2
:100CA000B8640240E011002024010020FE480168E1
:100CB00041F400310160FD4929220A80FB4A40F2DB
:100CC000E731121D1160F94A49100C321160F749E1
:100CD00008390A8842F001020A80F44910390A886A
:100CE00042F060020A80091F0A8842F001020A806D
:100CF000EE4928390A8842F001020A80016841F46D
:100D000080310160EA4820210181018941F0070119
:100D10000181002101854FF6FF71C162018841F018
:100D2000010101807047E248406A80B27047401A72
:100D300080B27047DC48001F016841F0100101607B
:100D4000DC48142101854FF6FF714162C1620188C0
:100D500041F008010180018841F0010101807047E4
:100D60004142D4484162018841F00101018001887B
:100D7000C907FCD17047CC4B10B51B1F186840F059
:100D800008001860C8482438016841F00801016073
:100D900001680907FCD5016821F008010160C64817
:100DA00000210180001F0160BF4A143A106840F022
:100DB00001001060C148046824F001040460046864
:100DC00044F002040460046A24F00F04A41C0462CA
:100DD000B94C481E241D2060B74C5720203C208071
:100DE000B5481038048844F001040480001F0488CA
:100DF00044F001040480B0482838048844F0010419
:100E00000480186840F002001860AD480180001F9F
:100E10000160106840F002001060AA48016821F0EB
:100E200001010160016841F002010160A548203024
:100E3000016821F00F01891C0160016821F0F001B7
:100E400041F0200101609E4940F21940091D0860EF
:100E500041109B48143001600068994918310860BE
:100E6000974947F270000C390880081D018841F449
:100E70008071018092481438018841F0010101809D
:100E800010BD00B50246FFF74EFF0146FFF74BFFCE
:100E9000401A80B29042F9D300BD8B4948434FF4C9
:100EA0007A71B0FBF1F0B0F1807F01D3012070477F
:100EB0004FF0E0210A6942F001020A614861002016
:100EC00070474FF0E020006900F480307047F8B5BB
:100ED0007E4B7F4C1D1D38B97C482830006800903F
:100EE00018682060286800906F48001F016841F072
:100EF000805101607748016841F4807101606A485F
:100F00002C30016841F480310160016821F48031A6
:100F10000160016841F440710160016841F40041E1
:100F200001606A4ACA20243210605320106067486A
:100F30000C30016841F08001016001684906FCD570
:100F4000624910310E6842F20F776FF30E063E448D
:100F50000E600E6826F4FE0646F4C6060E60216892
:100F600019605D492960016821F080010160016814
:100F70000906FCD4FF211160016821F02001016005
:100F8000F8BD494910B5091F0A6842F080520A604D
:100F900050490A6842F480720A6043492C310A6859
:100FA00042F480320A600A6822F480320A600A68D9
:100FB00040F205131A430A600A6842F400420A60CC
:100FC00028B13F482838018841F0010101803F4A9B
:100FD000CA2024321060532010603C480C30016855
:100FE00041F08001016001684906FCD537491031A4
:100FF0000B6842F20F746FF30E0323440B600B680F
:1010000023F4FE0343F480330B6031492F4B09680E
:1010100019601B1D30491960016821F080010160D1
:1010200001680906FCD4FF211160016821F020014C
:10103000016010BD29490840254908607047234BCD
:10104000CA21243319605321196020490C310A68E0
:1010500042F080020A600A685206FCD51F4A10401E
:101060001A4A1060086820F080000860FF201860AD
:10107000704730B5154DCA2224352A6053222A60A4
:10108000124C0834226822F480722260221D1368F8
:1010900043F0010313601368DB07FCD00F4B1840CB
:1010A00040F00040094B1BE0443802402844014016
:1010B0000040014000100040280C004000000240A9
:1010C0002804004000040240D01B500000280040CB
:1010D0002801002000700040024413007F7F3F0081
:1010E0001C331860C1F30E001D4940F070600860A9
:1010F000106820F001001060106820F4807010600B
:10110000206840F488502060106820F001001060D2
:10111000FF2028601348016841F400310160114844
:101120000838016841F4003101600E480C30016854
:1011300041F4003101600C494015C1F8000130BD97
:1011400007480CB51C380068009005484438006812
:101150000090034840380068019000980CBD0000E2
:1011600044280040083C014004E000E0484A0020D8
:10117000116841F4803111604FF47053116800F12F
:10118000010011F4003F01D19842F7D11068C0F37B
:101190004040002856D03E484030016841F0805120
:1011A00001603C48016841F4804101603A4940F2E5
:1011B000056008603648083001680160016841F444
:1011C00000410160016841F4A0510160016821F40F
:1011D000F81141F440210160016821F07C51016067
:1011E000016841F080610160016841F06051016077
:1011F000016821F040410160016841F080410160D7
:10120000011F264B0B60116841F08071116011685D
:101210008901FCD5016821F003010160016841F0FA
:10122000020101600168C1F381010229FAD1184964
:101230001B4884310860106840F0806010601068BE
:101240000001FCD57047174810B5016841F47001E2
:1012500001600F48016841F0010101600C4A002162
:10126000083211600268104B1A400260031D0F4AD9
:101270001A60026822F48022026005480C30016086
:10128000FFF774FF07494FF000608039086010BD18
:101290000038024000700040003C02400C544307FC
:1012A0000040005088ED00E0FFFFF6FE1030002403
:1012B00050F821007047F54A10B502F14800918EB0
:1012C0008171090AC171118F0172090A4172A0F17D
:1012D000C801496E81720A0AC2720A0C0273090EB1
:1012E0004173FFF7CFFC002806D0E8480E21BDE887
:1012F00010404830FFF7A9BC10BD30B4E34A018864
:10130000803AE34BE14C10293FD011DC4FF003054C
:10131000012913D0052926D00B2922D14188E16368
:1013200080882064022825D0032821D0012022E0D3
:10133000122937D0142914D1408822E095624088C0
:10134000106400EE100AF8EE400A92ED1C0AB8EEA6
:10135000400A20EE800ADFEDCF0A80EE201A82EDEF
:10136000051A30BC70474088906495629063F8E736
:10137000022000E00020908064204143FF2091FB88
:10138000F0F0986030BC03F005B84188D9608188DE
:101390005961C188D961018919614189996180893F
:1013A0001862DEE74188516381886162C188A16269
:1013B0000189E16240892063D3E770B5B34E002212
:1013C000A6F1800309292AD008DC012911D00329BC
:1013D00013D0052919D007296FD11BE00025AC4C8B
:1013E0000B2927D0102945D0122952D0142964D1B5
:1013F0005CE001800422318F0AE00180B18E4180DF
:10140000B3F840100622818057E00180198F042232
:10141000418052E00180596E082241604DE0018018
:10142000B3F850104180B3F870108180198A0822F7
:10143000C18042E0A2686424C2EB022292FBF4F273
:10144000541E5A64FE2C01D2521C5A649A8822B14E
:10145000012A03D0022A02D10AE00222DA640180C2
:1014600033F8441F4180198981800822C58024E017
:101470000322F3E70180A1894180A18A8180A18BA9
:10148000C180218A0181218B4181218C0E228181A1
:1014900013E00180998E4180B18C8180318DC180B3
:1014A000B18D0181318E0E22418106E001802189BA
:1014B00041808580C5800A220581104670BD0146A5
:1014C00075A001F057FC01F0B4FCFCE77848016816
:1014D00041F00101016076481030016841F000518F
:1014E00001607448016841F440710160C16821F4F1
:1014F0004071C1607048016841F0010101607047AE
:101500006D492031086070470FB4FEB50022BDF868
:101510002000CDE9000269A109AD0291812812D114
:10152000DDE90941664E00920835306BA04212D0C9
:10153000B4F5004F06D08120CDE90004029161A0EE
:1015400001F018FC3463BDF82000A0F500610239F9
:1015500001D128680190614A6946002000F029F80D
:10156000012802D15D48FFF7AEF9FEBC5DF814FB1F
:10157000474910B55A48486040220021444801F0CC
:10158000ECF848F2D044012804D056A2214681202C
:10159000FFF7BAFF0123402200213D4801F0A6F8E1
:1015A000002805D02146BDE8104050A28120ABE7BD
:1015B00010BD2DE9F05F5FEA000C4FF0000015460A
:1015C000064604D06346BCF800009A1D04E019B139
:1015D000088800231A4680B24FF0000985F803906E
:1015E0004FF0010E85F804E050276F71274FAC1DB6
:1015F000DFF8CCB0DFF898A0803FC5F80092B0F5D6
:10160000147F42D01EDCDFF8F0804FF0810C1528EB
:1016100074D00CDC112872D004DC022870D00528AC
:101620006FD171E012286DD01428F9D147E18128DB
:1016300069D0A0F5007013387ED001287DD0102825
:10164000EED192E0B0F5016F78D013DCB0F5006F09
:1016500075D008DCA0F50070513871D0A0F580601D
:101660003538DDD1DBE0A0F50060013801D001287C
:10167000D6D1B5E0A0F50060113873D0012872D042
:101680000F2871D01128CBD17BE0B7E1AC0100204D
:10169000301C00200CFEF94B0D0A45786974207748
:1016A000697468206572726F723A202573000000B9
:1016B000303802400000024000740040000000008A
:1016C000701C00200D0A415054206E6F74696669C9
:1016D000636174696F6E3A2025730000DC0300209B
:1016E000010101004545577269746500454556651D
:1016F0007269667900000000E012002040E138E0E5
:1017000049E0BEE040E0CAE0062129805421A970EA
:101710000A4685F804C0FC49204605F06BF9DAF862
:10172000000044F82B0B3120E07532202076352064
:1017300060763620A07604E080E0A3E069E04BE02C
:1017400062E13020E076372020774A2060777520EC
:10175000A0776C20E077012684F820900220CBF857
:10176000340050E032E034E025E04021CBF828108E
:1017700055E1DBF83810CBF82C9041F01001CBF894
:1017800038103220F8604AE1DBF8381021F01001FF
:10179000CBF8381043E1CBF83490DBF838304A46C8
:1017A00023F01003CBF838300029E1D00220288044
:1017B000AA70EA7026E0C7F80CE0DBF838100F20BA
:1017C00041F01001CBF83810B86028E1C7F820E0EC
:1017D00025E1C7F8589022E11046FFF78EFD1EE183
:1017E000BCF1000F01D0987800E0486881B2204633
:1017F000FFF7E3FD40F602022A80A870287940F046
:10180000800129710126287900067AD5A878801DE3
:1018100003E10D20CAF83400FFF7AAFEF2E7CAF888
:101820000CE0CAF814E0CAF810E04B21CAF818E03E
:101830000846CAF8081002F0ADFD9BE09978DBF885
:1018400038005C4661F38610CBF838009978890738
:1018500002D540F0800001E020F08000A063DAF8BB
:101860000C1055460A2903D1C0F38010FEF7C6FFBD
:1018700028690A2805D194F83800C0F3C010FEF793
:10188000ABFFCCE040F215212980BBF838000221E3
:10189000C0F3801201EA90101118A970B2E7A5F800
:1018A00000C04422AA7085F804C0A4F8009088887B
:1018B00060808A6895A1201D04F0A4FDA2E713684A
:1018C000C8F800305068C8F8040091681D46C8F890
:1018D0000810B3F5C87F15D0A3F58073913B34D0C1
:1018E000042B0DD05446CAF80050C4E90901D06851
:1018F000CAF82C00106ACAF83000506ACAF83800DA
:101900008DE089E0A1F5E062C53A27D118B1002148
:10191000022815D000E00121002211437FD072B6C9
:101920007D490A6822F480020A600A6822F40012E3
:101930000A607A49022805D0C1F8009000F0C5FE7F
:101940000122EAE776480860F8E7B0F1553F06D093
:10195000C8F80090C8F80490C8F808905FE00D221D
:10196000CAF83420022908D0C7F86CE097F86C1048
:101970008AF83C10FFF7FCFD51E00221F966F5E71B
:10198000162129802821A970664985F804C0C1F86C
:101990000C90CA6844F82290C868401CC8600A28A5
:1019A000F7DBD8F8001040F29510814204D1206096
:1019B0009AF83C00A0601EE0DAF800002060DAF837
:1019C00024006060DAF82800A060DAF82C00E060FB
:1019D00056460120FEF74FFD20610020FEF74BFD2B
:1019E00060610220FEF747FDA061786DE061306B19
:1019F0002062B06B6062C8F8009003E7D8784A496B
:101A00003870042008600AE040F252212980997859
:101A1000A9703978E970F5E60620C5F8000230466D
:101A2000BDE8F09F70B53F4C3F4A803C0021A36E5B
:101A3000083A052B47D2DFE803F003091A3C4800B7
:101A400010B1106840043ED401203BE00020A165A5
:101A500002F00BFD35A001F08DF939490D204863E6
:101A6000FFF786FDFFF75FF9608002202AE038B1BA
:101A70001068400404D533A0A16601F07BF922E090
:101A8000FFF751F96188FFF752F9B0F5FA6F1AD9EB
:101A90002FA001F06FF90220FFF736FD2F49886B68
:101AA00020F0160088630320A066002002F072FC7C
:101AB00009E0FFF738F96188FFF739F9B0F57A6F77
:101AC00001D90420A066A06E70BD25494FF48000A6
:101AD000086040F6B830FFF7D4F900F0F6FD70B5B5
:101AE0000D4601004FF000000CD1002D0AD001245A
:101AF00005EA0401202902D11AA001F03BF9640093
:101B0000F6D1012070BD000008930008252D363362
:101B10002E3633730000000030380240F01F0020E2
:101B2000EFBEADDEAC010020180402400D0A506F7C
:101B3000776572696E6720646F776E2E2E2E0000B7
:101B4000301C002063616E63656C6C65640D0A0077
:101B5000676F6F646279650D0A000000701C0020D9
:101B6000180802400D0A415054206E6F746966696E
:101B7000636174696F6E3A206A6F79737469636B1D
:101B80002073657474696E67730000002DED048B1B
:101B900007F0D1FAFEF7B2FCFFF798FCF9490A20EA
:101BA0000860F94940200860FFF780F86420FFF7DB
:101BB00074F9FFF7BFF8FFF7DEF80020FFF73AFAF5
:101BC0000120FFF784F9FEF77DFFFEF7A9FE01F083
:101BD00009FA01F055F9FEF7DBFB01F0EDFAEB48ED
:101BE000FEF75CFC62B6002340221946E84800F08C
:101BF0007DFDE74FE749386890FBF1F0382801D0C8
:101C0000E548386097F83C000124022801D087F8A5
:101C10003C40E24997F83C00C86601F0DFFC322006
:101C2000FFF72FF9DE48DE4940F27B2B806B41F253
:101C3000707820F010008863D5484FF4C879806B25
:101C4000A0F27B21584550D004DCE6316CD07329DA
:101C500007D176E0A1F58071A9397DD0B1F5F57F86
:101C600052D0CE484FF47A71F962C0F87C9042F6B7
:101C7000E0620167C0E91D8200F18002116000216D
:101C80000161786B0D2810DDFC607C61C3483C610C
:101C9000BC61806F38634B20B860C2487862BF482F
:101CA00080300068B8620020B8636420FFF7E9F86C
:101CB000BDA001F05FF8C6A001F05CF8BAA001F089
:101CC00059F8CC4DCCA0D5F80E1001F053F89FED8B
:101CD000D00BD1A053EC102B01F04CF8AA480838D7
:101CE0000068800443D5D3A142E0AC494FF4FA52D6
:101CF0000A6742F6F8224A674FF6C8228A6740F21E
:101D00005232CA67B2220AE0A44941F65832C1E908
:101D10001C284EF66022C1E91E294FF4F1729F4B38
:101D200080331A600861ACE79C4941F65832C1E93A
:101D30001C2848F2DC22C1E91E294FF4D772EEE7D5
:101D40000AE0964942F22832C1E91C284FF6DC72BB
:101D5000C1E91E29B422E2E7904947F23052C1E9B5
:101D60001C284FF6DC72C1E91E29A022D7E7B4A1D6
:101D7000B6A000F0FFFFB94C0121216003F0D9FBB0
:101D8000002003F050FC03F0D5FAB54802F088FDBE
:101D90004FF4207003F010FC0020FEF76CFB40F6BF
:101DA0005431884276D94FF6FF7002F05EFBAD4C9D
:101DB000042626606420FFF764F83504256064205B
:101DC000FFF75FF826606420FFF75BF825604FF4AB
:101DD0007A70FFF756F840F6B83B4FF0010A6F4FA4
:101DE0000020C7F81CA0FEF746FB40F6E4418842FD
:101DF00005D2F86940F00200F8619BA000E0A0A0C5
:101E000000F0B8FF0220FEF736FB40F2A4618842E2
:101E100003D9F86940F00400F8610220FEF72BFBBB
:101E2000B0F5FA6F03D2F86940F00800F861387F26
:101E3000C0F38100032844D098A000F09BFF01204C
:101E4000FEF719FB584503D9F86940F01000F86116
:101E50000120FEF710FB40F63C71884203D2F8697E
:101E600040F02000F861387FC0F3011003282AD029
:101E700092A000F07FFF0220FEF7FDFA81460120CC
:101E8000FEF7F9FA80460020FEF7F5FA01464B46C8
:101E9000424600E020E090A000F06CFFF869266068
:101EA0003F2812D096A000F065FF4FF4FA7738462D
:101EB000FEF7E7FF256000F045FD3846FEF7E1FF3D
:101EC0008DE798A0B9E79FA0D3E7A4A000F052FF48
:101ED000002002F0CAFAFEE7D5F80E302F4DA8A177
:101EE0004FF4FA602A6902F0ABF8FEF763FCB868B9
:101EF00002F050FA00263046266002F0B6FADFED16
:101F0000A78A9FEDA79A9FEDA78A05F18004BA469C
:101F100040F27B22DAF83800A0F27B2190422AD0EE
:101F200004DCE63128D0732907D163E1A1F5807183
:101F3000A93922D0B1F5F57F20D04FF47A70CAF8D4
:101F40002C00C5E91C0842F6E061C5E91E192060B5
:101F50002E61444F083F38680B4940F34030083940
:101F60000968401C41F34011491C084207D0286A07
:101F7000012805D055E117E131E146E122E16BE1AD
:101F80004DE100002074004018080240BD430008E5
:101F9000301C002040420F00007E56032C01002020
:101FA000701C0020968E3B000D0A2D2D2D2D2D2D01
:101FB0002D2D2D2D2D2D2D2D2D2D2D2D2D2D2D2D51
:101FC0002D2D2D2D2D2D2D2D2D2D2D2D00000000F5
:101FD0000D0A4B4C53313031204C617365722053E4
:101FE0006F757263652020202020090920202020A1
:101FF00020200000089300080D0A0A4669726D77D8
:10200000617265207265763A2009253036580000E5
:1020100000000000000045400D0A53797374656D9F
:1020200020636C6F636B3A09252E3266204D487A27
:10203000000000006F6E2074686520687562000003
:102040007374616E64616C6F6E6500000D0A4D6F94
:1020500064653A090925730D0A0000002403002075
:10206000ACA30008180402400D0A2074656D7020AE
:1020700074657374202D20706173736564000000B3
:102080000D0A2054454D502054455354202D2046D0
:1020900041494C4544202121000000000D0A204503
:1020A000585445524E414C20494E205445535420DB
:1020B0002D204641494C4544202121000D0A204C49
:1020C000415345522054455354202D204641494CFC
:1020D00045442021210000000D0A2054657374201E
:1020E000726573756C74733A2054202564202D201A
:1020F00050202564202D204520256420000000006C
:102100000D0A204B4C532053454C46544553542004
:102110002D204641494C454420210D0A200D0A201E
:10212000000000000D0A2065787465726E616C20F5
:10213000696E2074657374202D20706173736564FB
:10214000000000000D0A206C6173657220746573D5
:1021500074202D2070617373656400000D0A206B7C
:102160006C732073656C6674657374202D207061C8
:102170007373656420210D0A200D0A200000000001
:1021800054686F726C616273204B4C5325640A5320
:102190007752657620253036580000000AD7233C58
:1021A000CDCCCC3D00007A444FF4FA51296742F679
:1021B000F82169674FF6C821A96740F25231E967F3
:1021C000B22109E041F65831C5E91C184EF66021EC
:1021D000C5E91E194FF4F17121602861B9E641F695
:1021E0005831C5E91C1848F2DC21C5E91E194FF425
:1021F000D771F1E740F6B831C5E91C184CF620312B
:10220000C5E91E1940F22621E6E744F62061C5E93A
:102210001C184FF6DC71C5E91E192E21DCE70120E0
:10222000A8653868616C40F3C000401C88420AD041
:10223000286E40B942F2107028663868000702D450
:10224000A86D30B1AE65386840F3C000401C6064D2
:1022500008E00120A865F6E7AE653868000701D4FC
:102260000F2020612E62286E08B1401E2866A86DDE
:10227000012803D0696E21F0010106E0E96D09B97A
:10228000696F6965696E41F001016966E96D8142B6
:1022900001D00321A962E865FE48FEF7D7FA90282D
:1022A00012D0DFF8F0B3DBF8000101280CD1FA4AB4
:1022B00000215846FFF77DF9012802D1F648FEF7C4
:1022C00002FB0221CBF80011FEF70EFBFEF7F9FD31
:1022D00000287DD0686E20F0E0006866A98801299A
:1022E00004D002290DD040F0200001E040F01000A1
:1022F00068663868BB468004686E05D440F0080004
:1023000004E040F04000F3E720F008006866E3488E
:1023100000688006686E02D440F0020001E020F000
:10232000020068660020FEF7A6F81821A0F5F870F4
:1023300090FBF1F0E863322804DDAE65686E40F092
:10234000804002E0686E20F080406866E86A401EC7
:10235000E862401C34D13220E8620020FEF78BF89E
:10236000A169081A00D54042052801DA012700E0DA
:1023700000270120FEF77FF8E169081A00D54042E6
:10238000042801DA012000E000200742206A0CD076
:10239000092805DA401C2062686E20F0004002E047
:1023A000686E40F00040686602E008B1401E20629E
:1023B0000020FEF760F8A0610120FEF75CF8E06104
:1023C000296BA86B814206D028630120687000E069
:1023D00078E10320A862B24F97F83800C00611D503
:1023E000A8680A280CD9FEF766FFAE60E86810B14D
:1023F000401EE86006E0B86B20F01000B86301E012
:10240000401CA860A749686E084068660220FEF775
:1024100032F8696E41EA00206866A86B012810D185
:102420000220FEF728F8296FDAED090A484300EE8A
:10243000100AF8EEE00AB8EE400A80EE201A85EDA8
:10244000051A95ED050AD5ED060A30EE600ABDEED7
:10245000C00A10EE100A002800DA404206F07CFBA9
:102460009FED911B53EC112B06F0C8FC06D2032004
:10247000A86295ED050A85ED060A266228780128EE
:102480001ED001F07BFF7860A96B0429B9697DD06B
:1024900019B10A2901D040007860DBF8000040F350
:1024A0000010401C386101F093F97861786810B130
:1024B00041F234206862386910B141F23420686218
:1024C000774F07F11C037868FA684142786901F098
:1024D000C2F9B861DBF80000C0F3C030FFF7A2FA20
:1024E000F860B86901F07AFAB8696862206908B1E1
:1024F000401E20619AED0B0A5746F8EEC00A80EEA6
:10250000881AD5ED050AB4EEE01AF1EE10FA05D2FC
:10251000B8EEC00AC0EE080AC5ED050AF5EEC00A1D
:10252000B0EE600AF1EE10FA03D29FED610A85ED7C
:10253000050ADFED600A60EE200A95ED1C0AB8EE90
:10254000401A80EE810A84ED050ABDEEC00A84EDD2
:102550000E0AA86B012874D0A86A00284FF0010069
:1025600059D0FDF788FF97ED0A0AD5ED050AB8EEB8
:10257000C00A20EE200ABDEEC00A10EE101A8842F2
:102580003DDA95F8280000F0020000E008E0A862BB
:10259000D5E91E02811A686D814257D9104454E072
:1025A00000297FF476AF00283FF477AF6168884256
:1025B00000D0A660122805DD95ED050A30EE680A08
:1025C00085ED050A10F1120F05DA95ED050A30EEDA
:1025D000280A85ED050A3F2805DD95ED050A30EE50
:1025E000490A85ED050A10F13F0F05DA95ED050A58
:1025F00030EE090A85ED050A0320A8624DE7E96F70
:10260000686D884201D9401A686595F8280000F085
:102610000100A8621AE0FDF72EFF97ED0A0AD5ED3A
:10262000050AB8EEC00A20EE200ABDEEC00A10EE80
:10263000101A8842686D05DAA96F884206D2401CDC
:1026400003E014E0002801DD401E6865696DA86F95
:10265000814201D8084600E06865002800DA6E650E
:10266000A86D08B96E652662686D01F0FEFED5E9B9
:10267000141048434FF6FF71B0FBF1F00849606356
:10268000886A00281CDD4207A0F10100886213D58A
:10269000002013E00C000020DC03002010080240A2
:1026A000701C00207F00F8FF9A9999999999A93F89
:1026B000000000000CFEF94BB868401C01F06AFEF7
:1026C00000F0EAFF01F0E4FE22E4BFF34F8F05487B
:1026D0000168054A01F4E06111430160BFF34F8FC7
:1026E000FEE700000CED00E00400FA052DE9F041E2
:1026F000174604460126C81998460D46B0F5006FE6
:1027000029D2002000F050FC032000F055FCC5F356
:10271000072000F051FCE8B200F04EFC002511E06B
:10272000002000F049FCB8F1000F06D046B114F8C3
:10273000011B814204D1012603E004F8010B00E0F3
:1027400000266D1CBD42EBD3012000F02DFC16B11C
:102750000020BDE8F0810120FBE72DE9F0478F184C
:1027600088460646B7F5006F02D30120BDE8F08722
:102770000C4640E004F01F05444500D0ADB90020F0
:1027800000F012FC062000F017FC012000F00CFC09
:10279000002000F009FC022000F00EFCC4F307202A
:1027A00000F00AFCE0B200F007FC16F8010B00F0A4
:1027B00003FC1F2D02D0781EA0421BD10025012052
:1027C00000F0F2FB4FF47A79002000F0EDFB0520D9
:1027D00000F0F2FB002000F0EFFB8246012000F049
:1027E000E3FB28466D1C484501D90220BEE75FEA9D
:1027F000CA70E9D1641CA742BCD8012000F0D4FB08
:10280000B3E7000070472DE9F04198B000278046FB
:10281000159716971B2515AAC7A1179703F0B6FFA2
:10282000C64E002406EB0410416815A804F028F9F0
:1028300068B1641C1B2CF5DDC14C072D59D008DC98
:10284000042D2DD0052D3CD0062D06D13EE0254689
:10285000F2E7172D52D0182D63D0206820F01F000A
:10286000C4E90007B7A0A76000F084FA002406EBD3
:102870000415AB686A68187800285ED0B4A1684671
:1028800003F0C0FD6946B4A0EA6800F073FA641C66
:102890001B2CECDBB3A000F06DFA18B0BDE8F081A2
:1028A00014AAB1A1404603F071FF149800B10120B1
:1028B000FDF7A4FF149808B1012100E00021ACA0AD
:1028C00014E0FDF7ACFF0146B0A00FE014AAA6A1EA
:1028D000404603F05BFF149800B10120FDF77CFF38
:1028E000149808B1012100E00021AEA000F042FAE6
:1028F000D3E7FDF760FF0146B1A0F7E714AA9AA15C
:10290000404603F043FF14980128206804D020F0CB
:1029100010002060B0A0BEE740F010002060B9A019
:10292000B9E7C2480068000402D5C1A000F022FA4D
:10293000C9494FF480000860AFE7C8A1684603F0BA
:1029400061FD9FE73EB57E484F210C3000F026FA2E
:10295000002450B17A490C314F2802DC0C54401C41
:10296000FAE777480C30FFF74EFF00F062FAFEF707
:10297000DAF9BB4D2988FEF7DAF9B0F5FA7F06D906
:10298000FEF7D1F92880E86838B10020E86000F04F
:1029900036FD98B100216A4605E00120F6E74318AC
:1029A0001B795354491C037B8B42F8DC11446B4662
:1029B0004C70027B0168ABA000F0DCF900F008FE6F
:1029C000010006D0686820B9AFA000F0D3F901205B
:1029D00068605B480078C0060FD594480068C0F373
:1029E0004004A868844208D0AF488069A04203D15F
:1029F0000021AEA000F0BEF9AC603EBD70B5022073
:102A00002DED028B82B0FDF736FD08EE100A002096
:102A1000FDF731FD0646AA48008FC00501D5A9A1E2
:102A200000E0AAA1ABA000F0A5F9B8EE480ADFEDDE
:102A3000AD8A60EE280A9FEDAC8A80EE880A10EE1F
:102A4000100A06F007FB00EE106A04460D46B8EEC9
:102A5000400A60EE280A80EE880A10EE100A06F09E
:102A6000F9FA41EC100BA1A053EC102BCDE9004575
:102A700000F080F98C480168A5A000F07BF902B055
:102A800074A0BDEC028BBDE8704000F073B9A348A0
:102A9000016821F080510160A1A000F06BB90146EE
:102AA000A7A000F067B9FEE770B5254A0546008883
:102AB0005268012901D1022A03D00023012902D042
:102AC00009E00123FAE7012A05D1A0F58062923AD4
:102AD00001D0012400E00024194A1C43926809B97E
:102AE000022A03D00023234311B109E00123FAE7AE
:102AF000012A05D1A0F58062913A01D0012000E0C1
:102B00000020184316D0012907D094A000F032F914
:102B10002879000603D5AE7802E092A0F6E70026F9
:102B20000024B61D04E0295D90A000F023F9641C88
:102B3000B442F8DB70BD00002539730048910008ED
:102B4000EC1200200D0A4D656E753A0A0000000077
:102B500025732025733A00000D0A252D313873099D
:102B6000257300000D0A3E00252A7325640000002D
:102B70000D0A5472696720492F4F20233120736555
:102B80007420746F2025640D0A0000000D0A547231
:102B9000696720492F4F2023312069732025640D58
:102BA0000A0000000D0A5472696720492F4F202344
:102BB000322073657420746F2025640D0A000000B4
:102BC0000D0A5472696720492F4F20233220697300
:102BD0002025640D0A0000000D0A506F73697469A6
:102BE0006F6E2074726967676572207265706F72AC
:102BF00074696E672064697361626C65642E0D0A86
:102C0000000000000D0A506F736974696F6E2074C4
:102C1000726967676572732077696C6C20626520E2
:102C20007265706F727465642E0D0A0010040240A4
:102C30000D0A55736520706F776572206275747424
:102C40006F6E20746F207475726E206375626520DC
:102C50006F66662E0D0A00001808024025733A00C0
:102C6000040200200D0A43414E2052782066726F04
:102C70006D2025642C2025642062797465733A20C8
:102C8000222573220D0A00000D0A43414E20657271
:102C9000726F723A20737461747573203D203078BE
:102CA00025582E0D0A000000301C00200D0A547219
:102CB000696767657220617420252E336600000005
:102CC000701C002076616C6964000000696E76619A
:102CD0006C6964000D0A4545446174613A092573C5
:102CE000000000003333534000F07F450D0A41449B
:102CF000433A09566964203D20252E336620562C20
:102D00002056726566203D20252E33662056000031
:102D10000D0A532F4E3A09256C75000004ED00E0B2
:102D20000D0A46656174757265206E6F7420796551
:102D30007420696D706C656D656E7465642100004A
:102D40000D0A535643206E756D62657220257520FD
:102D50007761732063616C6C656400000D0A5478C0
:102D60003A2000000D0A52783A20000025303258EF
:102D7000200000000FB410B53E4C03AA6068B0F507
:102D80007A7F00D301BE21680844029903F028FB32
:102D900061680144616010BC5DF814FB2DE9F047E7
:102DA000344D80460026A8688946374608B9C5F8DC
:102DB0000C804FF6FF7AFDF744FE044650452DD0B7
:102DC000082C12D00A2C26D00D2C24D0A9684945F5
:102DD000F1D2214628A0FFF7CDFFE86800F8014BAB
:102DE000E860A868401CA860E5E7A8680028E2D071
:102DF000082121A0FFF7BEFF20211FA0FFF7BAFF87
:102E000008211DA0FFF7B6FFA868401EA860E8686B
:102E1000401EE860CFE70126AF60CCE73EB1E8682E
:102E200000F8017BE860A0EB0800BDE8F087002017
:102E3000FBE710B50F4C6068002811D0FDF72EFE9F
:102E400000280DD0D4E90001FDF710FE0B492068E1
:102E50008842084601D100F57A7020600020606049
:102E600010BD10B5FDF71AFE0028FBD0BDE81040DC
:102E7000DFE7000014020020256300004813002053
:102E800078B5544B186840F0040018605148103071
:102E9000016841F4004101604F48016821F08071F0
:102EA0000160016841F000710160041D216821F496
:102EB0008051216048490C310A6822F040720A6052
:102EC0000D1F2A6862F040722A60434A2432166855
:102ED00026F4702646F4C0261660066826F480168E
:102EE0000660066846F400160660266826F48066CA
:102EF00026600C6824F440140C602C6864F44014C0
:102F00002C60146824F4706444F4C0641460046891
:102F100024F480040460046844F400040460086835
:102F200040F480000860086820F400000860106821
:102F300020F4704040F4C0401060186840F0080071
:102F4000186026490420086024481838016841F0B8
:102F500010010160016821F020010160001D01687D
:102F600021F0040101601D480C38016821F0300196
:102F70000160001F016861F030010160184801889C
:102F800021F040010180001F018821F040010180F3
:102F90004FF449710180018841F0400101801048DF
:102FA00008300088009078BD08B1042001E04FF49B
:102FB00080200A49086070470949091D0A8892075C
:102FC000FCD5074A083210800888C007FCD010885A
:102FD000C0B270473038024000080240180C02406E
:102FE000043C004038B56E4A106840F001001060A3
:102FF0006B481430016841F48051016069480168F0
:1030000021F480410160016841F4004101604168A0
:1030100021F080014160C16821F44041C1608168B4
:1030200041F440418160016A21F0704141F0A041CA
:103030000162016821F480610160016841F400616E
:103040000160416821F020014160C16821F44061C4
:10305000C16020218161816841F440618160016A21
:1030600021F4700141F4A0010162106840F00200F7
:1030700010604D48911401604B481838016841F0C8
:1030800080710160016821F000710160001D01681C
:1030900021F48051016044480C38016821F04071EE
:1030A0000160001F016841F0407101603F4988885C
:1030B00020F040008880088820F04000088001242B
:1030C000B4FA84F0C0F12003D800083800F03800CA
:1030D00040F441700880888840F0020088801068C1
:1030E00040F4800010603248026822F00102026061
:1030F0000268D207FCD12E4D4FF400627C3D2A605D
:10310000026822F060620260026842F0C0620260FF
:10311000026842F480620260026842F0400202608B
:103120002248234A0C30083210600020121F106021
:10313000088840F040000880888900901D489C4025
:10314000B0FBF4F038BD10B14FF4805001E04FF007
:103150008050154908607047154A136823F0010331
:1031600013601368DB07FCD1114B0C331860104857
:10317000001D01600E49C0147C390860106840F0E1
:103180000100106070470A4884380068000505D5C2
:1031900006480089000601D40120704700207047CE
:1031A0003038024000000240180402400030014064
:1031B00088640240406F4001FD490020086048607B
:1031C00088608C31086048608860FA48016841F086
:1031D00002010160F848016821F480210160016862
:1031E00041F400210160011D0A6822F400720A60A6
:1031F000F1490C310A6822F440220A600A1F136860
:1032000043F440231360EC4A2432136823F0F003A4
:1032100043F090031360036823F480330360036872
:1032200043F400330360086820F4403008601068FD
:1032300020F00F0040F009001060DE4810300168F7
:1032400041F000710160DB481038016841F0007105
:10325000016001688901FCD5016821F000710160FD
:10326000D64901200860D5490320143108600A209E
:103270000521B0FBF1F2B0FBF1F201207047CF491C
:103280001C310A6822F040420A600A6800F040409F
:1032900002430A607047C948016821F001010160DA
:1032A0000168C907FCD1C548083001684901FCD54F
:1032B0007047F0B5C24C22880D2A01D90120F0BD1B
:1032C00069B3C100091DBF4D286840F001002860A6
:1032D000BC4E1C3633680120904083433360B94BA9
:1032E0000C331F6807431F602B1D1F6807431F60B7
:1032F000B54B03EBC203C3F84016C3F84416B149FB
:1033000014310B6883430B603168014331602868D6
:1033100020F001002860521C22800020F0BD4105F1
:10332000D1E710B561B3C000001DA6490A6842F09C
:1033300001020A60A34A1C32136823F001031360E0
:10334000A04B0C331C6844F001041C600B1D1C686E
:1033500044F001041C609B4B403318601B1D186037
:1033600098481430036823F001030360106840F0AC
:1033700001001060086820F001000860002010BD06
:103380004005D2E78D4B30B50C331868800735D037
:10339000874A516802EB0110491C51608949503934
:1033A0000C6800F10C0065074FF0000403D444736F
:1033B0000D686D0D04E0012545730D68C5F3D10559
:1033C00005600968C1F3400181737E494C39096881
:1033D00001F00F0101737B4948390968416079495F
:1033E0004439096881605068082800D15460106829
:1033F000401C1060186840F02000186030BD10B507
:103400006E4C1434206820F002002060684B1A686B
:1034100042B1996803EB0110491C0C3099600829EE
:1034200002D003E0002003E000219960521E1A60E0
:10343000216841F00201216010BDF0B55F480830FD
:103440000068C00757D05D4E1436306820F0010088
:103450003060574D8C352A68002A4CD0A968594CE9
:1034600005EB0110491C0027803CA9602760D4F8B7
:1034700000C0437E0C30BBB30368DB001B1D4CEA6D
:10348000030CC4F800C0D4F800C0837B03B102234E
:103490004CEA030CC4F800C0DFF828C14368ACF163
:1034A000780CCCF800300CF1040C8368CCF80030B8
:1034B000444B7C3BD3F800C02CF00F0CC3F800C089
:1034C000D3F800C0007B00F00F004CEA000CC3F8FA
:1034D00000C0306840F001003060206840F001001A
:1034E0002060082904D004E0FFE703885B05C6E7F5
:1034F000AF60521E2A60F0BDF0B5304C1434216824
:1035000021F0010121602A4B00258C33196808291C
:1035100001D3012010E05A6803EB0211521C5A60DB
:10352000C5C80C3181E8C5005868082800D15D6025
:103530001868401C18600020216841F001012160DA
:103540001F494A68012A06D11E4A803A136843F08F
:10355000010313604D60F0BD184A1432106820F06A
:103560000100106015480830016841F080010160D9
:1035700001680906F8D4016821F0010101600F48D3
:1035800018300168114B19400160094900208C3145
:103590000860486088600A4901204860C1044FF013
:1035A000E020C0F88012106840F001001060704701
:1035B000181B002030380240000402400064004024
:1035C0002402002000660040006000408CFF00FFE5
:1035D00001480068EBE70000186400402B4808B57C
:1035E000016841F0020101602948016821F480511D
:1035F0000160016841F400510160016821F48041DB
:103600000160016841F400410160214820300168F7
:1036100021F0706141F000710160016821F070419A
:1036200041F00051016019481030016841F0040177
:10363000016018494FF0FF300860164814380188BF
:1036400040F20112114301801249032024390880FD
:1036500010482C38018841F00101018000214FF40D
:103660007A7200910098401C00909042FADB094861
:103670000838016008BD074A083A11680023136042
:10368000022801D14800414208B270473038024058
:10369000000402402C0800402DE9F047374D384C1B
:1036A0002846EA684069374EDFF8DC80DFF8DC90B6
:1036B000374F0A3A2168062A04D2DFE802F00F06E3
:1036C00018232529FDF7ABF808E03168012923D03C
:1036D0001FE0012000E00020FDF790F828690A387B
:1036E00006281CD2DFE800F0471F2A36393DD8F8FB
:1036F0000010D9F8002041F3403142F34012491C38
:10370000521C114041B904E03968092904D000E095
:1037100011B10128DFD0DCE70128DCD1D9E7BDE811
:10372000F047FDF748B83068012820D01BE00120A1
:1037300000E00020BDE8F047FDF74EB8D8F80000E3
:10374000D9F8001040F3403041F34011401C491CAF
:10375000084000E0206850B905E03868092806D024
:1037600001E0206818B1A8690128E2D0DFE7A86964
:103770000128DED1DBE7BDE8F0870000301C002027
:10378000540100208401002010040240100802406F
:10379000CC01002030B504460020FE4B024603EB6E
:1037A00002152D68A54202D0521C0D2AF7D939B155
:1037B000012909D0022902D103EB0210C06830BDF3
:1037C00003EB0210406830BD03EB0210806830BD8F
:1037D00070B5F04C0546203C0026E168052006291E
:1037E00037D2DFE801F0030C36192C2F012D30D130
:1037F00001202026E060FDF796FA208029E0FDF701
:1038000092FA2188FDF793FAC82822D9012D01D117
:10381000032015E0002013E0012D04D0E060FDF747
:1038200082FA608015E0FDF77EFA2188FDF77FFAC5
:10383000B0F57A7F0DD904201026E06009E045B983
:10384000E06006E0FDF76FFA6188FDF770FAC828BE
:10385000E0D8304670BD2DE9F047CE4F8046203F7E
:103860009946386992460D460026786158B10C2871
:1038700009D0FDF758FAB988FDF759FA42F21071EC
:10388000884200D93E61BAF1010F04D138690C2891
:1038900001D00C2038610F2D01DD012000E0002057
:1038A00015F10F0F01DA012100E00021441AFDF7A4
:1038B0003AFAB988FDF73BFAC82800D2002458EA42
:1038C000040002D0FDF72FFAB880002D01DB284656
:1038D00000E06842642805DDB869052803DA401C69
:1038E000B86100E0BE61012C06D0601C06D05FEA22
:1038F000886005D4386908E0002102E0012100E079
:1039000002213869FFF746FF3861A34907282FD005
:1039100008283DD00A2802D00C2852D14DE000EEF4
:10392000105AB8EEC00ADFED9D0A20EE200ABDEE67
:10393000C00A10EE100A00B300EE105A8A68B8EE02
:10394000C00A20EE200ABDEEC00A10EE100A104494
:103950008860142801DA142002E0642801DD642064
:103960008860D9F8000040F02002C9F8002028E063
:103970008B4A601C02D0012C05D022E0106802287E
:103980001FDA401C02E01068D8B1401E106018E039
:10399000844A601C4FF0010302D0012C04D010E0D7
:1039A000106840B1042306E01068012801D0042803
:1039B00001D0166005E0136003E0BAF1000F00D1FA
:1039C0003E61D7E90402904205D00028886800D003
:1039D000401C00F0DFFC3869BDE8F0872DE9F04FAE
:1039E0006C4C0646203C2DED028B9FB0E0694FF6F3
:1039F000FF79B04210D070B9002000F0A7FD4D460D
:103A000018237F2210210020CDF8009001F0D8FC6F
:103A1000284600F09BFDE661DFF888A1DFF888B159
:103A2000624DDFF874814FF47A770D2E7ED2DFE895
:103A300006F007B07DAFAEAD7D7DAC7DAB7DAA005D
:103A4000DAF80000DFF868A1012801D059A226E0C9
:103A50000220FCF710FD2968484300EE100AF8EE3A
:103A6000400A98ED090AB8EEC01A80EE810A8AED84
:103A7000000A2968B1FBF7F100EE901AF8EE600A2F
:103A8000F4EEC00AF1EE10FA08D22968B1FBF7F1A2
:103A900000EE101AB8EE400A8AED000A4AA20BA8FE
:103AA000A16802F0AFFC4D480068012807D04C49DE
:103AB000DBF800000968884203DD4AA107E04EA157
:103AC00005E05248006808B151A100E055A101A8E5
:103AD00002F098FC0221002000F034FF01A801F060
:103AE0000EFCD046DAF8000005F0B4FA41EC100BF9
:103AF00051A153EC102B01A802F084FC04210020FA
:103B000000F020FF01A801F0FAFB4FA101A802F08C
:103B100079FC98ED000AB5EEC00AF1EE10FA31DD3D
:103B200010EE100A4D499FED4E8B00E066E2884290
:103B300010EE100A11DB05F08DFA41EC100B04F0C9
:103B4000EFFA53EC182B51EC100B05F059F841EC3F
:103B5000100B45A153EC102B10E005F07BFA41EC63
:103B6000100B04F0DDFA53EC182B51EC100B05F0A0
:103B700047F841EC100B40A153EC102B01A802F0C8
:103B800041FC85E080E013E289E12CE1C2E15BE1E8
:103B9000FEE0D4E04C020020301C0020CDCC4C3D97
:103BA0006001002064010020680100209C010020C9
:103BB00040010020504F574552204C4556454C205F
:103BC0002020202000000000504F574552204D4F2C
:103BD00044554C4154494F4E2000000084010020C0
:103BE000449100084F5645522D54454D5045524181
:103BF00054555245000000008788204C41534552DF
:103C000020204F4E2087882000000000BC010020AB
:103C1000496E7465726C6F636B206F70656E2021E6
:103C2000000000002020204C41534552204F4646C2
:103C3000202020200000000025352E3266206D5700
:103C40002020202020202000202020202020202094
:103C5000202020202020202000000000CDCCCC3DC2
:103C6000E17A14AE4761114025352E326620644258
:103C70006D2020202020200025352E326620644231
:103C80006D20202020200000FEA101A802F0BAFB38
:103C90000621002000F056FE01A801F030FBFE488E
:103CA00090ED000AF8EE400A9FEDFC1A80EE810AC2
:103CB00010EE100A05F0CEF941EC100BF8A153EC10
:103CC000102B01A802F09EFB01AA15A8A16802F022
:103CD00099FB98ED000ADFEDF70A296820EE200A2B
:103CE000B1FBF7F1BCEEC00A10EE100AB0FBF1F523
:103CF0004AF655506D1C00F029FC18237F22102134
:103D0000002000F037FF4F46484600F01FFC022D10
:103D100007D9681EC2B2162312210220009701F0B3
:103D20004FFB002000F012FCE8B216237E22122185
:103D3000009701F045FB384600F008FC3EE0DEA2AB
:103D40000BA8A16802F05EFBE0A101A802F05AFBFB
:103D50000221002000F0F6FD01A801F0D0FAE0A158
:103D600001A802F04FFB0421002000F0EBFD01A8A8
:103D700001F0C5FADFA101A802F044FB06210020F2
:103D800000F0E0FD01A801F0BAFAAFF2441211E030
:103D9000DDA20BA8A16802F035FBE0A101A802F0AA
:103DA00031FB0221002000F0CDFD01A801F0A7FAAF
:103DB000DEA132E015A8A16802F024FB002108462C
:103DC00000F0C0FD0BA801F09AFA0821002000F0D5
:103DD000B9FD15A801F093FAE6611FB00020BDEC13
:103DE000028BBDE8F08FD6A20BA8A16802F00AFBF7
:103DF000DAF8000018B1012803D0D6A102E0DAA158
:103E000000E0DDA101A802F0FDFA0221002000F08F
:103E100099FD01A801F073FAACA101A802F0F2FA31
:103E20000421002000F08EFD01A801F068FAD7A15E
:103E300001A802F0E7FA0621002000F083FD01A8A6
:103E400001F05DFAD6A2B5E7D6A101A802F0DAFA30
:103E500001AA0BA8A16802F0D5FAD7A101A802F027
:103E6000D1FA0221002000F06DFD01A801F047FA0F
:103E7000AEA101A802F0C6FA0421002000F062FD04
:103E800001A801F03CFAC1A101A802F0BBFA062189
:103E9000002000F057FD01A801F031FA38E0CBA175
:103EA00001A802F0AFFA01AA0BA8A16802F0AAFAD1
:103EB000D8F8080045461E2801DA1E2002E06428D2
:103EC00001DD6420A8600246C5A101A802F09AFAAB
:103ED0000221002000F036FD01A801F010FAC5A172
:103EE00001A802F08FFA0421002000F02BFD01A8A8
:103EF00001F005FAC3A101A802F084FA062100200E
:103F000000F020FD01A801F0FAF9A86800F042FADB
:103F1000C1A24FE7C4A20BA8A16802F073FAC7A11F
:103F200001A802F06FFADFF82883D8F80000A0F5A6
:103F3000C0610E3903D1C7A101A802F063FAD8F815
:103F40000000A0F500717B3903D1C7A101A802F0E0
:103F500059FA0221002000F0F5FC01A801F0CFF988
:103F60002868C6A1B0FBF7F201A802F04BFA0421C1
:103F7000002000F0E7FC01A801F0C1F9DBF8002007
:103F8000052102EBC20090FBF1F3C1A101A820338F
:103F900002F038FA0621002000F0D4FC01A801F05C
:103FA000AEF9BF4ABFA101A802F02CFA01AA01E7AD
:103FB000AFF26C320BA8A16802F024FAAFF27831AC
:103FC00001A802F01FFA0221002000F0BBFC01A8AA
:103FD00001F095F90421002000F0B4FC01A801F0E3
:103FE0008EF9B3A101A802F00DFA0621002000F01D
:103FF000A9FC01A801F083F9B2A2DBE6AFF2B83167
:1040000001A802F0FFF90221002000F09BFC01A8AA
:1040100001F075F90421002000F094FC01A801F0E2
:104020006EF90621002000F08DFC01A801F067F96F
:10403000A9A20BA8A16802F0E5F93246ABA1B2E74C
:104040000FB4F0B5BDB0044644AA6846439902F0E7
:10405000C7F96A46A6A1104602F0D4F928AB1EAAF9
:10406000A4A1684602F092FBA64D1EAA14A8A96856
:1040700002F0C8F928AA32A8A96802F0C3F90026FC
:1040800042E100002D696E662064426D20202020F0
:104090002020202000000000E00100200000C84295
:1040A00025352E3266206D41202020202020202022
:1040B000200000000000FA424F5054494F4E204D5E
:1040C000454E55202020202000000000557365201B
:1040D00074686520776865656C82202000000000A8
:1040E000746F2073656C656374207468652020208C
:1040F000000000007375626D656E752E2020202013
:1041000020202020000000003120434F4E54524F09
:104110004C20534F555243450000000050726573C8
:1041200073204D454E5520616E64200075736520E7
:1041300074686520776865656C8220200000000047
:1041400053454C45435420434F4E54524F4C20202E
:1041500000000000574845454C2B534F46545741EB
:104160005245202000000000534F4654574152450D
:10417000204F4E4C5920200045585445524E414C3A
:10418000204F4E4C5920202000000000746F206307
:1041900068616E67652E202020202020000000002E
:1041A0000909090032204252494748544E455353A9
:1041B00020202020000000005072657373204D45C0
:1041C0004E5520616E6420200000000053455420AD
:1041D0004252494748544E455353202000000000A6
:1041E0004272696768746E657373203D2025332EB3
:1041F000306400004D6F76652074686520776865CF
:10420000656C8200746F206368616E676520202092
:10421000202020200000000020202020202020201E
:1042200020202020202020003320494E464F524D90
:104230004154494F4E202020000000005761766510
:104240006C656E6774683A204E414E200000000095
:104250003C010020576176656C656E6774683A3181
:104260002E35756D00000000576176656C656E67D0
:1042700074683A3633356E6D000000004D61782069
:10428000706F7765723A25646D572020200000001A
:1042900054656D703A25648443282564844629005A
:1042A0000101010053775265763A202530365800D7
:1042B000536176696E677320706172616D73202639
:1042C00000000000706F776572696E6720646F7719
:1042D0006E2E2E2E00000000556E68616E646C65B7
:1042E000642073746174653A000000002564000066
:1042F00025730A00255B5E0A5D0A255B5E0A5D0A7E
:10430000000000002C02002001F014F84FF4784067
:1043100000F01CF90022174B1146104600F032FD48
:104320004FF6FF7000F012F90621002000F00AFBA2
:1043300014A800F0E4FF14A800F0E1FF0821002019
:1043400000F000FB32A800F0DAFF0B4D40F6FF70E2
:104350002860FCF7E8FC0746FCF7E5FC3946FCF76B
:10436000E6FCA042F8D32E6000F0E4FF3DB0F0BCC4
:104370005DF814FB90940008207400400D4810B5BF
:104380000068FFF778F9C001192190FBF1F000F304
:10439000070010BD1E2801DA1E2002E0642800DD9F
:1043A0006420054900EB8000C000086070470020D1
:1043B00070470000980100202074004070B51F482D
:1043C00000261F4C006801280AD01E481E4AA1681A
:1043D000408842F82100491C01F01F00A06008E05D
:1043E0001A481B4D0068012805D030462E6000F0A9
:1043F0003CF8266070BD2068A0B1FCF739F815497B
:104400006268096B8B1A584340F63F7390FBF3F0D8
:1044100010442860814200DA29602868BDE87040B5
:1044200000F023B8FCF721F81E2803D26068411C75
:104430006160F3E70120206070BD0000640100208E
:10444000EC020020040000203C0300208401002036
:1044500080010020301C002010B14FF4007001E0FA
:104460004FF0007009490860704710B504460020FD
:10447000FFF7F2FFC4F30720FEF79EFDE0B2FEF760
:104480009BFD0120FFF7E8FF002010BD1808024047
:1044900070B52B4C012504F11801E06820B101280A
:1044A00019D0022841D134E0254E1036D6E900015A
:1044B00088423CD90020FEF746FED4E90410C4E946
:1044C00006102049884200D11F4971603160A06008
:1044D000E560606029E00968A068814216D901782A
:1044E000408820806068001D6060DA2902D0C02901
:1044F00002D004E0012000E00020FCF745F921880B
:104500006068FEF729FE0220E0600EE00020E06017
:104510000DE0FEF738FE30B1218860680844606025
:10452000C4E9020501E0E06808B1012070BD002087
:1045300070BD10B5FFF7ACFF0128FBD010BD000027
:10454000F8020020AC1C002034AD00200D4910B54D
:104550000968CC8AC882098B01F0F3FD204610BDA2
:1045600070B50E46054601F047F80446284601F0AE
:104570004AF83046FFF7EAFF0546204601F043F8C7
:10458000284670BD1C03002000B90D4840787047D4
:1045900010B500F0EAFF0B480068C17C407D08447C
:1045A000C0B210BD052800D30420C0EBC0010648EE
:1045B00000EB8100C17C407D0844C0B27047000020
:1045C00018A900081C030020BC3D01202DE9FC4770
:1045D000B04E18B93068C068FFF7D6FF34684FF6A0
:1045E000FF79627D67791044C5B2E3787819984203
:1045F00024D801F027F83068427DD2B1018A11F445
:10460000405F16D00B044FEAC17301D50BB910E01F
:1046100003B14B46009344792244521CD3B289041F
:1046200001D5827800E00279641CE1B2007801F0E3
:1046300007F9306841792944417120E0218ADFF887
:1046400058C25FEA81780AD59CF8001011B9B918F0
:10465000994202D30120BDE8FC8760710FE09CF80D
:10466000002012B9C01AC5B26371C80700D048460D
:10467000CDE90050A2786178207801F0B9F930686E
:10468000017801710020E6E710B500F06EFF834964
:10469000002008707F4880490068008A40F30020AD
:1046A000401C087010BD7B4810B500680279817805
:1046B0008A4200D901714279C1788A4200D9417198
:1046C000017981714179C17100F0BCFFBDE81040F2
:1046D00000F0DEBE6F49162209680978401AC0B2A0
:1046E000B0FBF2F0401C00EB400202EBC00001EB1B
:1046F0004000C0B27047F8B5664C05462168088A8C
:1047000002044FEAC07001D508B911E008B14FF6B4
:10471000FF70009008790A7D4B79497802444E1960
:10472000D2B2B34201D3591B491CC9B201F088F877
:1047300020680179027D11440171F8BDFEB504467F
:104740000A2870D00D2C6ED0524E092C30680BD038
:10475000C068FFF719FF05463068027981788A4200
:1047600023D9491C01715EE00079FFF7B3FF31687E
:1047700005460A78904256D0C868FFF705FF3468AE
:10478000217CC90701D04FF6FF71009161786379F0
:104790000A18934201D3191A491CC9B220792A4632
:1047A00001F04EF8306805713DE0D0E90221204665
:1047B00000F036F9011E0DD00C7804B98C78306801
:1047C000028A920507D40379621E1A4483789A42BA
:1047D00001DD0120FEBDC268477953684278BA1AEC
:1047E000AA4201DB002201E0AA1A521ED2B28DE8D1
:1047F0000E00791BC3788278491CC9B2007900F099
:1048000039FA30680179027D8B181D1983789D4231
:1048100001D9037107E02144017122B1C068FFF79B
:10482000B3FEFFF768FF0020FEBD70B50446FFF73A
:104830002BFF0A2C0FD0174D0D2C10D02046FFF760
:104840007DFF98B12868007C00060FD40020FFF798
:10485000BDFE58B907E00020FFF7B8FE06E0286863
:104860000178017102E02046FFF768FFBDE8704063
:1048700019E770B50E46054600F0BEFE0446284610
:1048800000F0C1FE3046FFF7D0FF2046BDE8704083
:1048900000F0B9BE1C0300201803002035030020DF
:1048A00070B5254D2968CC6800B92448C8600269F4
:1048B0008A6002788A744078C874C6B200F0EDFD50
:1048C0002868761E4178427931448A4205DAC9B2B5
:1048D0004171C278914200D9427101798278914246
:1048E00000D9114681714179C17100F0D1FD204696
:1048F00070BD10B500F039FE0F480068C06810BDEB
:1049000070B50E46054600F077FE0446284600F0D6
:104910007AFE3046FFF7C4FF0546204600F073FEDE
:10492000284670BD052800D304200549C0EBC0000F
:1049300001EB8000C06870471C03002018A9000824
:10494000BC3D012070B50C46054600F00EFE124835
:104950000268907C10FB05F0D37CC0B213FB0431DD
:10496000527DBDE87040491E1144C9B200F016B82E
:104970002DE9F04115460E46044600F03DFE07467F
:10498000204600F040FE29463046FFF7DBFF384660
:10499000BDE8F04100F037BE1C03002070B50D46A5
:1049A000044600F0E2FD1D480268117808195478A9
:1049B000C3B26019C0B2994200D90B4691789942AE
:1049C00000D20B46844200D92046D178814200D2E1
:1049D00008469371D0711371517D29B163188342D8
:1049E00001D9547101E0401A5071BDE8704000F0E7
:1049F0004FBD2DE9F04115460E46044600F0FCFD82
:104A00000746204600F0FFFD29463046FFF7C6FF67
:104A10003846BDE8F04100F0F6BD00001C03002060
:104A20002DE9F0478946C2B1117802F1020CB1F1CB
:104A3000000A16D0514600274B08FC1804EB440529
:104A400065442E7886420FD895F8018080450BD3B7
:104A5000A978F2B2801A0844C0B2B9F80C108142A9
:104A600011D20020BDE8F08743B1864201D9194632
:104A7000E2E7C91AE7B211F0FF01DDD151788142B6
:104A8000EFD00846D6E7D9F808100A7832B10222EA
:104A9000D9F804301A4402FB0010E3E70422F7E7D8
:104AA000124900B50A684AB1D16839B19268FFF776
:104AB000B7FF002803D0017811B102E0082000BD43
:104AC0008178084600BD70B50E46054600F094FD9D
:104AD0000446284600F097FD3046FFF7E1FF054603
:104AE000204600F090FD284670BD00001C03002009
:104AF0002DE9F8431C4615460E460746DDF8209082
:104B000000F033FD5748D0F8008098F800C00CEB57
:104B1000070098F80170C0B2B9193B190CEB0502F7
:104B2000C9B2D2B2DBB2844500D9604698F80240DF
:104B3000844200D22046944200D22246824200D2D1
:104B400002468F4200D9394698F803408C4200D281
:104B500021469C4200D223468B4200D20B46424D56
:104B600000242C70CDF8009001F07DF8BDE8F843EA
:104B700000F068BDF8B51C4615460E46074600F025
:104B8000F4FC3848D0F800C09CF800E00EEB0700B9
:104B90009CF80170C0B2B9193B190EEB0502C9B2FD
:104BA000D2B2DBB2864500D970469CF802408442FE
:104BB00000D22046944200D22246824200D20246CF
:104BC0008F4200D939469CF803408C4200D22146DE
:104BD0009C4200D223468B4200D20B46224D002439
:104BE0002C709CF81040E40701D0204C00E0204CD1
:104BF0002488009401F037F8BDE8F84000F022BDA9
:104C00002DE9F84F9846DDE90A4591468A46064661
:104C100000F0F2FC0746304600F0F5FC2346424621
:104C2000494650460095FFF763FF3846BDE8F84F08
:104C300000F0E9BC2DE9F0471E469046894605463E
:104C4000089C00F0D9FC0746284600F0DCFC23460F
:104C5000324641464846FFF78DFF3846BDE8F047EB
:104C600000F0D1BC1C030020350300203A030020D3
:104C7000380300202DE9FE4F82460CA8994690E8A3
:104C800008111878002803D0054603D1DC7802E02B
:104C90009D78FAE75C78002C39D0002D37D0374E5C
:104CA0003768B0B3387C03F10206C00700D080201B
:104CB000BCF1000F5ED0BCFBF4F31FFA83FC3B8A0F
:104CC0001B0401D540F02000B8F1000F06D041448C
:104CD000A4EB08030CFB0866C9B29CB205EB0A03FF
:104CE0005B1E9DB263185B1E9BB2954200D91546B0
:104CF0004A464B4500D91346214C0022DBB22270B4
:104D00000096CDE901C0EAB2504601F001F8BDE8D5
:104D1000FE8FFFE71E1D58780123B3EB901F00D1D3
:104D200000E0002300F03F00BCF1000F02D0BCFB0C
:104D3000F4FC0EE0082806D815FB00FC0CF1070C6B
:104D4000CCF3CF0C07E000F1070C4FEADC0C1CFBA6
:104D500005FC1FFA8CFC202800D31F20002BAED0AE
:104D60000828ACD83B7C40F04000DB07A7D040F0DF
:104D70008000A4E7EB1D4FEAD30CA0E71C03002042
:104D8000350300202DE9FE431D4690460E4607469A
:104D900000F0EBFB234C002D20680178407839446B
:104DA0003044CFB2C6B222D008F0FF0029462A69AB
:104DB000FFF736FE00281AD024682178B94216D8A9
:104DC000A278BA4213D36178B14210D8E378B342E3
:104DD0000DD3154C002121706C688DE8130031460D
:104DE0003846FFF747FFBDE8FE4300F02BBCBDE8A7
:104DF000FE832DE9F0471E46904689460546089CED
:104E000000F0FAFB0746284600F0FDFB2346324639
:104E100041464846FFF7B6FF3846BDE8F04700F088
:104E2000F2BB00001C030020350300202DE9F047F1
:104E30008568044600272878002875D0DFF8EC94B0
:104E4000D9F80010088A020706D52878092801D069
:104E50000D280AD16D1CF8E7C0B2C0F38102012A07
:104E600003D0C0F30110022801D108780871256031
:104E700000266560A6810121287800286AD00A28CA
:104E800068D00D2804D009280CD0202811D012E0B9
:104E9000D9F80000027C12F00C0F09D179B3017827
:104EA000017169E0D9F80000027C12F00C0F16D0F5
:104EB0002020A7896668FFF7F3FD0146D9F80000B6
:104EC00082780378D31A5B1C8B4219DCD9F8001066
:104ED00000788978081A401CA0816D1C3AE0A789E7
:104EE0000079C8463844C0B26668FFF7F3FBD8F8CB
:104EF00000100979401AA189401A81B2DEE729E041
:104F0000B0F8108090F804C05FEA8853A389634426
:104F10000ED5C8F3810CBCF1020F06D04FF0000C87
:104F20006344934216DC1DE052E0A1F1010CF7E767
:104F300090F814C08C4463445B1E934212DD4EB162
:104F4000D9F80000007CC0F38110012802D166600E
:104F5000A781B51CA56021680878002838D028787A
:104F6000A8B90DE0A289114489B2A18122689542B5
:104F700002D0007D0844A081002165606D1C7BE7A4
:104F8000D9F80000007CC0F3810003280AD16268D0
:104F90001078202801D0092804D18A4202D00EB10D
:104FA0006660A781D9F800202946137C08781B0683
:104FB00005D560B10A280FD0491CA160F5E730B1D2
:104FC0000D2807D00A2807D0092805D006E00120BF
:104FD000BDE8F0870220FBE7481CA0600320F7E74C
:104FE0002DE9F84F0546806800286ED0FFF74CFB8E
:104FF000CE4E3068C068FFF7C7FA04463068C17803
:105000004278891A491CCFB2018A0B0401D5CB071B
:1050100010D000239946C64B1B780BB1A74254D33E
:10502000C1F30111B046032906D0022904D0012999
:105030007ED070E00123EDE790F804B0D5F808A029
:1050400000262846FFF7F2FE01280ED801D1761C73
:10505000B6B2C5F808A0D8F80000012E80F804B058
:105060000CD9417D721E514309E0032801D1761C01
:10507000B6B2D8F8000001780171E2E70021027CA5
:10508000C9B2C2F30112032A20D004FB0611B942AF
:1050900039D9417D7A1E0B1992FBF3FC03FB1C22CC
:1050A00090F801C08C446244DFF884C2D2B24271ED
:1050B0009CF800C0BCF1000F17D0791A91FBF4F1F5
:1050C000711A8EB21119417119E016E14378621E0E
:1050D0001A4404FB0611D2B24271B9421BD2791AAA
:1050E00001EBD17102EB610114E03819401E90FB15
:1050F000F3F0301A86B202E02846FFF797FE761EDC
:10510000B6B2F9D207E0427DC1782244C6F101036C
:1051100002FB031141712846FFF788FE0646D8F8C6
:1051200000004FF6FF7A018A4A0516D5427900E061
:1051300005E0A24211D3B9F1000F03D00DE0611ECA
:105140001144E7E7C90700D051460091111BCBB2CB
:1051500082784178007800F073FB002E7ED0D8F87A
:1051600000100B8AC3F38100032802D0022811D05B
:105170001DE08A780878171AAA8907F1010C94456E
:1051800006DDBA1A521C02EBD27200EB6200C0B20A
:1051900008710CE08F780A78A889A7EB020C0CF153
:1051A000010C844502DD381A401CC2B20A71D804D1
:1051B0001CD50A790F78BA4218D9B9F1000F15D168
:1051C000D80700D0504600904879CB78984200D854
:1051D0000346497801EB040C604501D3011B491CCF
:1051E000521EC9B2D2B2384600F02AFBD8F80010DD
:1051F0002868097C007811F00C0F04D00D2801D02C
:10520000092800D12020FFF799FAD5E9000188424A
:105210000CD1D8F80010088A82041ED50F798A783C
:1052200097421AD8B9F1000F03D016E0401C28604D
:10523000DCE7C00700D0504600904879CB78984210
:1052400000D80346497801EB040C604501D3011BEB
:10525000491CC9B2384600F0F3FA00E00CE0032E16
:1052600003D12046FFF7B2F968BB2846FFF7DEFD01
:1052700006007FF474AF26E0D8F80000058A15F424
:10528000405F20D0B9F1000F1DD1E90700D0514691
:1052900000914179C378994200D80B46427816199B
:1052A000B14201D30A1B521CD1B2AA0401D58278A3
:1052B00001E00279521ED2B2EC0401D5007800E080
:1052C000007900F0BDFAD8F80000028A110510D567
:1052D0004179C37899420CD2B9F1000F09D1D207B4
:1052E00000D0524600928278491CC9B2007800F082
:1052F000A7FABDE8F84FFFF7D6B9BDE8F88F1FB59C
:1053000002906846FFF76CFE1FBD70B50E4605465D
:1053100000F072F90446284600F075F93046FFF7B0
:10532000EEFF2046BDE8704000F06DB91C03002080
:105330001803002038B520490020087000F015F946
:105340001E4C2068017CC90701D04FF6FF71009107
:10535000C37882784178007800F072FA00F072F930
:105360002068027802714178C37C1944491EC9B291
:105370004171832A01D983220271C278914200D9F6
:10538000427100F085F82068017881714178C1711F
:10539000BDE8384000F07CB870B5054600F02CF947
:1053A0000446284600F02FF9FFF7C4FF2046BDE869
:1053B000704000F028B90000350300201C030020D5
:1053C0002DE9F843994616460D460746089C00F01D
:1053D000CCF82D48D0F800C09CF8008008EB0601FE
:1053E0009CF80160CAB208EB07007119C0B206EB65
:1053F0000903C9B2DBB2804500D940469CF802508F
:10540000854200D22846954200D22A46824200D2E6
:1054100002468E4200D931469CF803508D4200D29C
:1054200029469D4200D22B468B4200D20B46174E96
:10543000002535709CF81050ED0700D0E443A4B26D
:10544000009400F0FDF900F0FDF8BDE8F84300F02D
:105450001FB82DE9F84F9846DDE90A4591468A467E
:10546000064600F0C9F80746304600F0CCF823465F
:105470004246494650460095FFF7A2FF3846BDE830
:10548000F84F00F0C0B800001C03002035030020D6
:1054900046490020096888767047444810B500687E
:1054A00083780478817C1B1BC27C5B1C8B4200DCF4
:1054B000D9B2C37844781B1B5B1C934200DCD9B281
:1054C000037D8B4201D3491E0175417D914201D379
:1054D000521E427510BD354910B50968002283235C
:1054E0000A704A708B70A123CB708A71CA71304BDD
:1054F0000A71012811D807244C710A82CB601C69FB
:105500008C601C788C745B78CB740A754A7558B9BA
:105510004FF6FF70C8820A8306E0C86838B1C87CBD
:10552000401E4871FFF7B9FFBDE81040B0E758785A
:10553000F6E72DE9F04100F051FE070012D11D4DB4
:105540001A4E0024C4EBC40005EB8000306000203C
:10555000FFF7C1FF641CE4B2052CF3D3002085F8EB
:105560008C0035603846BDE8F08110B50F4C2068DE
:1055700018B9FFF7DEFF002817D10E4890F88C10FD
:10558000052901D2206805E0042180F88C10094823
:1055900070302060C06830B9FFF7CBFF002804D11D
:1055A0002068002801D0FFF773FF10BD1C03002006
:1055B00018A90008BC3D012070B50546FFF7D5FFCE
:1055C0000C4801680C8A0D82FFF762FF204670BD0F
:1055D00070B50E46054600F00FF80446284600F068
:1055E00012F83046FFF7E8FF0546204600F00BF8BA
:1055F000284670BD1C030020104890F88C00052838
:1056000000D300207047052800D304200B4981F8FF
:105610008C00C0EBC00001EB800009490860018BE1
:10562000C08A00F08EBD10B50146FFF7E5FF0446C5
:105630000846FFF7E8FF204610BD0000BC3D0120F2
:105640001C0300202DE9F05F2D480078002842D18E
:105650002C4982462C4C2D4F81F800A023783978B4
:105660008B4238D32A4E2B4D32782878824232D35F
:10567000A22B01D3A1232370842A01D38322327069
:10568000DBB2D2B200F006FDA846DFF88CB0A1462E
:1056900014E098F8004000EB401104EB81010BEBA3
:1056A000410505E0288800F023FD641CE4B2AD1C30
:1056B00030788442F6D93878401C3870387899F8B8
:1056C00000108842E5D9012188F80010397086F869
:1056D00000A089F800A0BDE8F09F094A10B5117834
:1056E00039B1002438B139B100201070FFF7AAFF9A
:1056F00003E00124F6E701211170204610BD0000EF
:10570000340300203503002033030020320300203F
:1057100031030020300300206C3E012010B5002929
:1057200025D0082A0BD0FC23102A21D0122A3AD0E7
:10573000182A48D3020C0A70020A4A7041E000F0AD
:10574000E003E022DC0802EAC00244EA53141C43EE
:10575000D30843EA521380071343000E0C704B70BA
:1057600040EA9002030943EA901002438A7010BD98
:10577000F82202EA102203EAD003C0060A70000EE3
:105780004B708870824205D103F0F8039A4204D12D
:105790004A7002E043EA93134B7042EA52120A70D5
:1057A00040EA50100DE003EA902203EA101342EAA7
:1057B000921280060A70000E43EA93124A7040EA81
:1057C0009010887010BD002008704870F9E708B587
:1057D0000A466946FFF7A2FF684600F0B6FC08BD1E
:1057E000F0B5034652B3FF2A27D003F47844C2F140
:1057F000FF00544301F4784505FB0045FF24B5FB49
:10580000F4F505F4784503F4FC6616FB02F601F4A2
:10581000FC6717FB0066B6FBF4F606F4FC6635433E
:1058200003F01F0313FB02F201F01F0111FB002024
:10583000B0FBF4F000F01F002843F0BD0846F0BDB7
:105840002DE9F04F614E0025099C3570832800D961
:105850008320A12900D9A1218B4200D20B46A12B84
:1058600000D9A123824200D20246832A00D9832292
:10587000574EDFF860918446377899F80050AF4270
:1058800004D286F800C089F800C007E0AC4502D217
:1058900089F8000002E0BC4500D930704E4FDFF8B7
:1058A0003CC197F800809CF80050C246A84503D23E
:1058B00039708CF8001007E0A94202D28CF8001071
:1058C00002E0514500D93970B246367899F8005057
:1058D000B346AE4204D28AF8002089F800200AE0DC
:1058E0001646AA4202D289F8002004E0B0465A4582
:1058F00001D98AF800803D789CF80060B54203D257
:105900003B708CF8003009E09846B34202D28CF824
:10591000003003E04646AB4200D93E70DFF8C0E0FD
:10592000DFF8C090DFF8C0A03CB1A4F57F45FF3D93
:1059300003D00E46DFF8B4B045E014B1B9F800501A
:1059400001E0BAF800500C46161A77460DE004EB59
:10595000441100EB810107EB4102F1B2491E22F82C
:10596000025BC9B2FAD2641CE4B29C42EFD9BDE832
:10597000F08FF10702D04FEA142C01E004F0FF0C85
:1059800000F007011BF8015006EB461100EB810700
:105990000EEB4707014612E01CEA050F02D0B9F8EA
:1059A000008001E0BAF8008027F8028B6D0804D16E
:1059B0004D1C05F007081BF80850491CC9B291425C
:1059C000EAD9761CF6B29E42D3D9D0E7350300203F
:1059D0003103002030030020330300203203002075
:1059E0006C3E0120380300203A030020C0A30008C9
:1059F0002DE9F84F4C4EDDE90A4E0025357083281D
:105A000000D98320A12900D9A1218B4200D20B46C5
:105A1000A12B00D9A123824200D20246832A00D9B9
:105A20008322424EDFF808918446377899F8005077
:105A3000AF4204D286F800C089F800C007E0AC4548
:105A400002D289F8000002E0BC4500D93070394F1D
:105A5000DFF8E4C097F800809CF80050C246A845E3
:105A600003D239708CF8001007E0A94202D28CF8FA
:105A7000001002E0514500D93970B246367899F8E5
:105A80000050B346AE4204D28AF8002089F80020C4
:105A90000AE01646AA4202D289F8002004E0B04685
:105AA0005A4501D98AF800803D789CF80060B542DB
:105AB00003D23B708CF8003009E09846B34202D222
:105AC0008CF8003003E04646AB4200D93E705D1AC8
:105AD000A54202DACDF800E00AE01D1B05F0FF093F
