:020000040800F2
:10000000886B0020191901083719010839190108EE
:100010003B1901083D1901083F19010800000000C3
:10002000000000000000000000000000411901086D
:10003000431901080000000057C7000847190108CC
:100040004919010849190108491901084919010804
:1000500049190108491901084919010849190108F4
:1000600049190108491901084919010849190108E4
:1000700049190108491901084919010849190108D4
:10008000491901084919010849190108C7BB0008A5
:10009000C7BA000849190108491901084919010896
:1000A00049190108491901084919010849190108A4
:1000B000F7D70008876F0008491901084919010896
:1000C000491901084919010849190108C56F0008B3
:1000D0004919010849190108491901084919010874
:1000E00049190108596B0008491901084919010803
:1000F0004919010849190108491901084919010854
:10010000491901084919010811DA000849190108BB
:1001100049190108491901084919010821D800089D
:100120004919010849190108491901084919010823
:100130004919010849190108491901084919010813
:100140004919010849190108491901084919010803
:1001500049190108491901084919010849190108F3
:1001600049190108491901084919010849190108E3
:1001700049190108491901084919010849190108D3
:10018000491901084919010800F002F800F0B2F815
:100190000AA090E8000C82448344AAF10107DA45E2
:1001A00001D100F0A7F8AFF2090EBAE80F0013F082
:1001B000010F18BFFB1A43F00103184774700100C8
:1001C000947001000A444FF0000C10F8013B13F04A
:1001D000070408BF10F8014B1D1108BF10F8015BA0
:1001E000641E05D010F8016B641E01F8016BF9D193
:1001F00013F0080F1EBF10F8014BAD1C0C1B09D1EA
:100200006D1E58BF01F801CBFAD505E014F8016B5B
:1002100001F8016B6D1EF9D59142D6D370470000ED
:100220000023002400250026103A28BF78C1FBD8FF
:10023000520728BF30C148BF0B6070476E2911F0CC
:100240005184702911F0A184662914F0EF86652984
:1002500014F0EC86672914F0E986612914F0E88629
:1002600003681B0A28BF41F08001692911F0FE8351
:10027000642911F0FB83752911F0F8836F2912F0BE
:10028000F982782911F06D84E92912F09382E4292A
:1002900012F09082F52912F08D82EF2912F0F68289
:1002A000F82911F06C840368DB0928BF41F0800154
:1002B000632912F01482732912F01982E32912F0D3
:1002C0005185F32912F05685002070471FB514F0B0
:1002D000A3FE12F029FB04000020002114F0DAF83C
:1002E000401C60600020002114F0BEF8E0601FBDDB
:1002F00010B510BD12F08EFF1146FFF7E7FF04F0B6
:10030000A6FB12F0B5FF03B4FFF7F2FF03BC12F037
:10031000B9FF000000BF00BF00BFBFF34F8F00BF99
:1003200000BF00BFFC48006800F4E060FB490843E0
:10033000001DF949086000BF00BF00BFBFF34F8F29
:1003400000BF00BF00BF00BF00BFFDE70020F449B1
:10035000F44A8B8DC3F340330BB140F000408B8DDA
:10036000C3F3C03313B140F4806004E00B69012B88
:1003700001DB40F400708B8DC3F380330BB140F090
:100380008040CB6AC3F340431BB9CB6AC3F34053ED
:1003900023B140F0100040F0200005E00B7F03F097
:1003A00080030BB140F4005091F8203003F01003AB
:1003B00033B191F82C30C3F3C0030BB140F480404B
:1003C00091F8203003F080030BB140F400400B8C17
:1003D00003F480730BB140F480300B8C03F4007392
:1003E0000BB140F400300B8C03F400630BB140F40C
:1003F00000200B8C03F480630BB140F4802091F853
:10040000283003F002030BB140F08070CB6AC3F3D5
:10041000004333B1CB68002B01DD402300E0802393
:100420001843536F022B07D191F83C3003F00103BE
:1004300063B140F0010009E0536F032B06D191F83E
:100440003C3003F001030BB940F00100936F022B25
:1004500007D191F83C30C3F3800363B140F0020050
:1004600009E0936F032B06D191F83C30C3F380036E
:100470000BB940F00200D2F8A430012B01D140F4B6
:100480008010D2F8A830012B01D140F40010704741
:100490000FB42DE9F04798B0A24D21A81790BDF8F0
:1004A0008000ADF8000001208DF8040050208DF888
:1004B00005000DF106044FF00009BDF8800040F280
:1004C0006442811A90426ED00BDC02286CD08128E5
:1004D0006BD0B0F5836F16D0A0F2444000287DD1D8
:1004E00008E002297BD01D297AD0BE295ED0C72919
:1004F000F5D125E001208DF8020000208DF80300E1
:100500004FF0060924E116208DF8020000208DF836
:1005100003009DF8040040F080008DF804004FF0C7
:100520001C0901202080288C6080686A606000209F
:10053000A060A86AE060E86A2061288EA08207E1D6
:1005400024208DF8020000208DF803009DF804009F
:1005500040F080008DF804004FF02A09012020802F
:100560007148B0F85C0060807048D0F8E8006060C6
:100570006E48D0F8EC00A0606C48D0F8F000E06065
:100580006A48D0F8F40020616848D0F81001606132
:100590006648D0F8AC00A0610020A0830021E18370
:1005A00021846184D4E04BE0C4E07DE024208DF818
:1005B000020000208DF803009DF8040040F0800048
:1005C0008DF804004FF02A090120208035F8400FF3
:1005D000401C6080E8696060686A02E0B2E030E078
:1005E0002DE0A060A88DA081686D403DC4F80E008C
:1005F00098204059C4F812004A48B0F8D800E08268
:100600004848B0F8DC0060834648D0F8E0006FF05E
:100610000041884202D10020208307E04148D0F801
:10062000E0004FF4167190FBF1F020830020A083CE
:10063000002104F11C00E1832184618488E000BF73
:1006400000BF374890F82C00C0F3C01020B13448E8
:10065000006B322800DD7BE00E208DF802000020C8
:100660008DF803009DF8040040F080008DF8040030
:100670004FF01409012020802B48C06D022805D1BD
:100680002A48D0F8B000C4F8020003E0244800680B
:10069000C4F8020022480089E08000202081FFF792
:1006A00055FEC4F80A0053E0179850F804AB1790B1
:1006B000179850F8048B1790179880C81790B8F5C2
:1006C000004F24D044208DF8020000208DF8030054
:1006D0009DF8040040F080008DF80400A4F800A00C
:1006E000A4F80280002603E00021201D8155761C1D
:1006F000402EF9DB002604E017F8011B201D815570
:10070000761C387808B1402EF6DB4FF04A090848CD
:10071000C0F800801CE000000CED00E00000FA05CD
:10072000C4070020B45A0020A45B0020B0060020BB
:100730004000002000208DF802008DF803004FF0EB
:10074000060905E0BDF88010F6A005F00FFC00BF1B
:1007500000BF00201790B9F1000F03D0494668464A
:1007600006F070FA18B0BDE8F0075DF814FB2DE94B
:10077000F04FA9B0F84CF94DDFF8E493F948008840
:100780001190F848007900F07F00079012AFBE1D6D
:10079000DFF8D08308F106080020F87001203871D6
:1007A000079878710020069040F246421198811A0D
:1007B000904201F0028477DCB0F5826F01F0E982AB
:1007C00033DC40F21122A0EB0201904201F0A4823E
:1007D00013DC122867D007DC022879D0052878D0EE
:1007E000112842F086801BE1142873D0152872D09E
:1007F000B0F5047FF5D101F068BA3F296CD008DC70
:10080000022901F00682032901F01C821229E8D195
:1008100002E1402978D0B1F5FC7F01F0A682A1F277
:10082000F9110029DDD101F0A3BA40F22642811A64
:10083000904201F081821DDC40F21642A0EB0201E1
:10084000904201F01D850BDCA0F21140002801F060
:10085000C082022801F0E0820328C2D101F0E5BA8B
:10086000012901F01D850D2901F0F6820E29B8D16C
:1008700001F004BB1A2901F01D8309DC032901F0F2
:10088000B982142901F07A831529AAD101F07FBB1E
:100890001B2901F01C831D2901F033831F29A0D1DE
:1008A00001F086BB00E0C3E073297CD037DC4A2925
:1008B0007AD01CDC0D2901F00D840EDC022901F038
:1008C0008E830A2901F0E6830B298AD101F0E7BB68
:1008D000BCE054E0D3E2F4E3A3E2112901F0528436
:1008E0001F2901F0AB84242984D101F0F3BC6D29C8
:1008F00001F0BE8509DC4C296FD06A2901F098858A
:100900006B2984D101F0A3BDA4E26E2901F0B68564
:10091000702901F0C585712984D101F0F6BDDB296C
:1009200001F0318117DCAE2901F0118609DCA02924
:1009300001F04A87A12901F02887AD298DD101F066
:1009400020BEAF2901F00C86B82901F09786DA297C
:100950008DD101F095B8E32901F0378708DCDD2956
:1009600073D0E02901F03580E1298ED101F04EB835
:10097000E42901F08F87B1F5107F86D176E2062059
:1009800038805420B870387940F080003871542293
:100990007549304611F03FFB744800683060744878
:1009A000B0F8440001E057E04AE0A6F8500071A01A
:1009B000007886F842006FA04178432081556DA0F1
:1009C000C178442081556BA00179452081556CA0E8
:1009D0000079202802D1302002E02EE068A00079C2
:1009E0004621885566A041794720815564A0017849
:1009F0004820815562A041784920815560A08178C6
:100A00004A20815500214B2081550120069002206B
:100A10005E49086001F06EBF40205D494860F9E71B
:100A2000E86A20F080008030E86200202863F1E767
:100A3000E86A20F08000E862ECE700202863E9E73C
:100A400040F28140FFF724FDE4E7F0E304204F4942
:100A5000086000200690DDE7B8F80200119040F22F
:100A6000B3421198811A904258D015DC40F22642C8
:100A7000A0EB0201904252D007DCA0F21340D0B1AB
:100A8000032824D010284BD187E0142930D01A290C
:100A900037D08A29F7D1B3E0702942D006DC032988
:100AA00078D04D2977D06D29EDD180E1732973D0AD
:100AB0007629E8D152E100202C4988612B48A168B1
:100AC000C161216901624AF6552141629AE12748D4
:100AD000216A8162616AC162A16A0163E16A41635C
:100AE00000218163216BC1634AF65521016489E1CC
:100AF0001E48616C4164616C81644AF65521C16491
:100B000080E11A48216D0165616D4165A16C8165C7
:100B1000A16DC1654AF65521016673E179E083E074
:100B20006FE1D0E00D0A556E68616E646C656420FB
:100B3000415054206E6F74696669636174696F6EA9
:100B40002C2041505420636F6D6D616E64203D20F8
:100B50002530345800000000B45A0020C40700209B
:100B6000305E00208000002040020020B05C0020A9
:100B7000345C002031363A35303A3138000000001C
:100B8000466562203138203230323000205C00204F
:100B9000A45B002012E055E0AEE0FC48616F4166C6
:100BA000A16F8166E16FC166D4F880100167D4F847
:100BB000841041674AF65521816723E1F448B0F873
:100BC0007E10F248C167F248D0F88010EF48C0F8B4
:100BD0008010EF48D0F88410EC48C0F88410EC483E
:100BE000B0F88810E948C0F88810E948B0F88A10D1
:100BF000E648C0F88C104AF65521C0F8901001E183
:100C0000E248E16DC0F89C104AF65521C0F8A010EA
:100C1000F8E0DF48B0F87C10DC48C0F894104AF6E1
:100C20005521C0F89810EDE0D848D4F88810C0F8E5
:100C3000CC10D4F88C10C0F8D0104AF65521C0F86A
:100C4000D410DFE0D3480168D048C0F8E010D148A4
:100C50004168CE48C0F8E410CE488168CB48C0F85F
:100C6000E810CC48C168C948C0F8EC10C94801690F
:100C7000C648C0F8F010C7480169C448C0F8F01071
:100C8000C4488169C148C0F8F810C248C169BF486A
:100C9000C0F8FC10BF48016ABC48C0F80011BD484C
:100CA000416ABA48C0F80411BA48816AB748C0F826
:100CB0000811B848C16AB548C0F80C114AF6552168
:100CC000C0F818119EE0B3480169B048C0F8F010B0
:100CD000B0484169AD48C0F8F410AE488168AB48EF
:100CE000C0F8E810AB48C168A848C0F8EC104AF654
:100CF0005521C0F8181185E0A7480168A348C0F83D
:100D00004411A5484168A148C0F84811A24881682B
:100D10009E48C0F84C11A048C1689C48C0F85011CA
:100D20009D4801699948C0F854119B48416997480A
:100D3000C0F85811984881699448C0F85C119648E9
:100D4000C1699248C0F860119348016A8F48C0F8A1
:100D500064114AF65521C0F87C1153E08C48D0F854
:100D6000E8108A48C0F820118948D0F8EC1087486C
:100D7000C0F824118648D0F8F0108448C0F8281133
:100D80008348D0F804118148C0F82C118048D0F86D
:100D900010117E48C0F830117D48D0F8AC107B4867
:100DA000C0F834114AF65521C0F838112AE07748C6
:100DB000216CC0F8A410E16DC0F8A810616EC0F8F5
:100DC000AC10E16EC0F8B010D4F89410C0F8B410B4
:100DD000982001596D48C0F8B8107048D0F8D81064
:100DE0006A48C0F8BC106D48B0F8E40081B26748AA
:100DF000A0F8C4106948D0F8E0106448C0F8C010EA
:100E000000E000BF00BF6648406C6049C8604AF619
:100E1000552008616348406C40F001006149486416
:100E2000F8E56148C078012802D15E49886705E08D
:100E30005D48C078022801D15A49886740F25220A3
:100E400038600120B870574890F87800F870012099
:100E50000690DFE540F2522038600120B87051481A
:100E600090F87800F87001200690D3E506F0D5FDE3
:100E7000012005F0A7FC022005F0A4FCCAE5D8F883
:100E800000000590D8F804000490D8F808000390FA
:100E9000D8F80C000290D8F810000190D8F814008F
:100EA000009040F295110598884202D000203F49F9
:100EB00008600598352868D023DC11287CD00BDC2D
:100EC0007CD2DFE800F07BD4E47BFD7B7B7B7BFC8A
:100ED000FBFAF9F87BF7F600302870D008DC14280C
:100EE0006ED020286DD021286CD02F2866D14BE100
:100EF000312868D0322867D0332866D03428F5D11D
:100F000077E1402878D00ADCA0F136000A28D7D251
:100F1000DFE800F0FBFAF9F8F7F6F5F4F3F2B0F5D4
:100F2000147F76D00ADCB0F5C87F67D0A0F29110AC
:100F300090B1042852D08228D8D117E2A0F25120D3
:100F4000D8B3A0F2BF1000287AD0802879D0A0F2C0
:100F500076200028CAD181E01248406C40F002009F
:100F60001049486412490398C8600846C06811498E
:100F7000C8604AF655200861022005F023FC08F0FD
:100F800011FE06F0A7FB022020E03CE1B05C00204F
:100F9000B006002008000020C4020020B45A00203F
:100FA000345C0020A45B0020800000208C0800201E
:100FB000545E0020685E0020A2E143E026E2EDE0FE
:100FC000B4E0CDE1C4E1F4E0FFE008E105F0FAFBB4
:100FD00008F0CBFE022005F0F5FB18E240F2951078
:100FE000FA490860FA49086000204860F948C0687A
:100FF00088604FF0030B08E067E10AE0CCE10020D5
:10100000F34941F82B000BF1010BBBF10A0FF6DBA2
:10101000FDE10498012802D1EF49886704E00498B3
:10102000022801D1EC49886740F252203860012043
:10103000B870E94890F87800F87001200690E6E171
:1010400082E0BDE140F2522038600120B870E248F1
:1010500090F87800F87001200690D8E106F0DDFCE9
:10106000012005F0AFFB022005F0ACFBCFE14FF013
:10107000000B08E00020D64941F82B00D748006853
:1010800088600BF1010BBBF10A0FF3DBBFE1D8F86D
:101090000400D2490860022005F094FB08F082FDAC
:1010A00006F002FB022005F08DFB08F05EFE022038
:1010B00008E022E139E134E12FE108E026E00AE02E
:1010C00021E1A6E105F07EFB002006909FE1C249E8
:1010D000049888669BE14FF0000B05E00020BC49B6
:1010E00041F82B000BF1010BBBF10A0FF6DBBC48FA
:1010F0004068B74948608AE1E2E0F9E0F3E0E9E0FE
:10110000D5E0B6E0A9E09DE092E086E0D8F80400E2
:10111000B3494860486808F0D7FF0020AE49086727
:10112000B049D1F8D80008F03AFB70E1AA48406C09
:1011300040F00200A8494864A9484068A5494860B1
:101140004AF65520886062E1D8F804A0C5F800A0EE
:10115000A549286848600121812007F066F8A24867
:101160004068A14948620846406AC9F80800012160
:10117000892007F05AF89C484168C0F8B010012156
:10118000912007F052F842E1D8F804109648C0F8D0
:1011900004110121A72007F048F838E1924800889F
:1011A00040F48070904908800121802007F03DF8CC
:1011B0002DE18D4800884FF6FF6108408A4908807C
:1011C0000121802007F031F821E1D8F80400864998
:1011D000C1F8E8000121A02007F027F817E1D8F8AE
:1011E00004108148C0F8EC100121A12007F01DF87F
:1011F0000DE1D8F804107C48C0F8F0100121A220BD
:1012000007F013F803E1D8F804107748C0F8F41099
:101210000121A32007F009F8F9E0D8F8041072487A
:10122000C0F800110121A52006F0FFFFEFE032E138
:10123000D8F804106C48C0F810110121AA2006F05B
:10124000F4FFE4E06848008840F4007066490880D4
:101250000121802006F0E9FFD9E0634800884FF6BD
:10126000FF510840604908800121802006F0DDFF21
:10127000CDE0D8F804005C49C1F8AC000121902011
:1012800006F0D3FF00215848C0F8B010012191208A
:1012900006F0CBFF0121112006F0C7FF5248D0F81D
:1012A000B000009000204FF080414862AFE0002184
:1012B0004D48C0F8B0100121912006F0B6FFA6E01D
:1012C00008F005F84449C865A1E008F063F8424910
:1012D000C8659CE00121112006F0A7FF4248D0F824
:1012E000B000009093E00121002006F09EFF8EE008
:1012F0000121282006F099FF89E007F051F986E0E6
:1013000008F00FFA83E0D8F808103748C0F8D41076
:101310000121D52006F089FF79E0D8F80400E062C9
:1013200075E0D8F80400A06271E0D8F804102B48EA
:10133000C0F8D8104AF65521C0F8DC1006F0B4F910
:101340002648D0F8D800C4F89000002006905EE04F
:1013500026A348F6BA0200218120FFF799F856E04B
:10136000049881B22048A0F8E01050E0D8F80400BA
:10137000012801D1C4F8AC00D8F80400022802D139
:101380000120C4F8B000D8F8040020B90020C4F847
:10139000AC00C4F8B0003AE0642005F013FA72B66D
:1013A0001748006820F48000154908600846006866
:1013B00020F400100860134813490860FEF7AAFFE4
:1013C00040F28140FFF764F821E000003C0000207B
:1013D0008C080020685E0020A45B0020B05C002028
:1013E000545E0020B45A0020B00600204D6F746F88
:1013F00072204F76657263757272656E74000000BC
:1014000030380240EFBEADDEF01F002000BF00BF4D
:1014100006E516203870002078702820B8703879DA
:1014200040F0800038712822FE49304610F0F3FD6C
:10143000FD48006840F29511884216D1F9490860CC
:1014400000204860F948C06888604FF0030B05E051
:101450000020F44941F82B000BF1010BBBF10A0FFE
:10146000F6DB0020F049086012E000203060F04810
:1014700040687060EE48C068B0600020F060ED48E1
:101480000068306100207061B061F06130627062AC
:1014900001200690C4E4B8F80200E7490861B8F8F2
:1014A00006004861B8F804008860B8F80800C86011
:1014B00008460069132872D2DFE800F00A131A30D8
:1014C000465C71717171727992ABC8F3F1F0EF0003
:1014D000012004F068FA0020D8494862D848086022
:1014E00010E1012004F05FFAD648D449086009E110
:1014F000012004F058FA0220CF49886100200862D8
:1015000008468068012802D1CC49086102E0022027
:10151000CA490861CC48C9490860F3E0012004F0D9
:1015200042FA0420C44988610020086208468068A5
:10153000012802D1C149086102E00220BF490861C7
:10154000C248BE490860DDE0012004F02CFA082002
:10155000B94988610020086208468068012802D1E4
:10156000B649086102E00220B4490861B848B349AD
:101570000860C7E0012004F016FA0020AE49886137
:10158000086208468068012802D1AC49086102E07F
:101590000220AA490861AF48A8490860B2E0B0E05B
:1015A000022004F000FAAC48A4498860AAE00220B6
:1015B00004F0F9F90120A149486220209E490862FF
:1015C0000020886108468068012802D19B49486153
:1015D00002E0022099494861A0489849886091E05A
:1015E000022004F0E0F901209449486280209249E9
:1015F00008620020886108468068012802D18F496E
:10160000486102E002208D49486195488B49886015
:1016100078E0022004F0C7F987488068012805D1E6
:101620009048914988620120486204E08F488E49C1
:101630008862002048628C480CF09CF80BF06CFF2C
:101640000020894908620120C8625BE0022004F0A2
:10165000AAF9854800698449086008464069404203
:10166000486008468069886073488068012804D112
:101670007C4888620120486204E07C487A4988629C
:101680000020486278480CF075F80BF045FF002008
:10169000754908620120C86234E02BE023E01BE0BA
:1016A000FFE7022004F07FF963488068012805D134
:1016B0006C486D4988620120486204E06B486A49C1
:1016C00088620020486268480CF054F80BF024FF50
:1016D00001206549C86215E0022004F064F96448FD
:1016E000564988600EE0022004F05DF961485349D4
:1016F000886007E0022004F056F95F484F4988608F
:1017000000E000BF00BF4C484069132872D2DFE8F8
:1017100000F00A131A30465C717171717279CBE472
:10172000F5F4F3F2F100012004F00BF944484349C9
:101730004860002088624AE1012004F002F94F4825
:101740003E49486043E1012004F0FBF802203A4999
:10175000C861002048620846C068012802D13749A4
:10176000886102E002203549886145483349486074
:101770002DE1012004F0E5F804202F49C861002084
:1017800048620846C068012802D12C49886102E0FD
:1017900002202A4988613B482849486017E1012016
:1017A00004F0CFF808202449C861002048620846A8
:1017B000C068012802D12149886102E002201F4946
:1017C000886131481D49486001E1012004F0B9F801
:1017D00000201949C861086208468068012802D1C2
:1017E0001649086102E0022014490861274813499C
:1017F0004860ECE0EAE0022004F0A3F824480F4936
:10180000C860E4E0022004F09CF801200B498862E3
:101810002020094948620020C8610846C0680128A4
:101820003BD137E08C0800203C000020685E00209F
:10183000545E0020B05C002008000020FC02002064
:1018400019CA000881CA0008E9CA000885CC000846
:10185000D3CE00082BCE000841CA0008C3CF000831
:10186000CBD000089BD40008C4020020ABD40008F1
:1018700089D3000849D30008E5D20008A3CA0008AC
:10188000C9CB00083DCD00084BCF000879CE000839
:101890005FCA0008FC49C86102E00220FA49C86139
:1018A000FA48F949C86092E0022004F04AF80120A1
:1018B000F54988628020F64948620020C8610846E0
:1018C000C068012802D1F049C86102E00220EE4957
:1018D000C861F048EC49C86079E0022004F031F8B2
:1018E000EB48C06801280AD1EB48EC498862012026
:1018F000486209E063E05BE053E037E00FE0E8486E
:10190000E649886200204862E4480BF033FF0BF0A0
:1019100003FE0020E14908620120C86257E002206E
:1019200004F00FF8DD480069DC49086008464069AA
:1019300040424860084680698860D548C0680128F0
:1019400004D1D54888620120486204E0D448D349D4
:10195000886200204862D1480BF00CFF0BF0DCFDE0
:101960000020CE4908620120C86230E0022003F066
:10197000E8FFC748C068012805D1C748C749886241
:101980000120486204E0C648C449886200204862D9
:10199000C2480BF0EFFE0BF0BFFD0120BF49C8624B
:1019A00015E0022003F0CDFFBE48B749C8600EE045
:1019B000022003F0C6FFBC48B349C86007E002201C
:1019C00003F0BFFFB948B049C86000E000BF00BFE6
:1019D0001EE5D8F80200B1490860D8F80600486052
:1019E000D8F80A008860D8F81A00C860D8F80E0045
:1019F0000861D8F812004861D8F816008861D8F854
:101A00001A00C861D8F81E00086201E54FF4A5600D
:101A100038602E20B870387940F08000387101208D
:101A2000B61C26F8020C9D48006830609B48406850
:101A300070609A488068B0609848C068B061974804
:101A4000006AF06195480069C8F80E009348406943
:101A5000C8F8120091488069C8F816008F48C0691C
:101A6000C8F8160000203084B61E002106F12200BE
:101A7000B184F18431857185B18501200690C7E478
:101A8000B8F80200401E2064D8F80400E065D8F8D9
:101A900008006066B8F80C00E066D8F80E00C4F8DC
:101AA0009400D8F81210982001518148D4F894106D
:101AB000C0F8C010982001597D48C0F8C4107F219B
:101AC000E06D90FBF1F07B4948677948D0F8D80089
:101AD0000E907748D0F8E0100D91D0F8E4000C900B
:101AE000B8F816007249C1F8D800B8F8180050B913
:101AF000B8F81A0038B941F27070C1F8E00002205D
:101B0000C1F8E40014E0B8F81A006949C1F8E4002B
:101B1000B8F8180020B96FF00040C1F8E00007E005
:101B2000B8F818004FF4167148436149C1F8E00055
:101B30005F48D0F8D8100E9881420BD15C48D0F89D
:101B4000E0100D98814205D15948D0F8E4100C9866
:101B5000814201D0012000E000200B900B9888B159
:101B60000020554908670846406E012805D15049B4
:101B7000D1F8D80007F0F6FD04E04D49D1F8D800BF
:101B800007F00DFE44E440F2225038602420B87083
:101B9000387940F0800038710120308034F8400FEF
:101BA000401C7080E0697060606AB060A08DB08198
:101BB0003F48B0F8D800F082606D403CC6F80E0097
:101BC00098200059C6F812003948B0F8E400708334
:101BD0003748B0F8E00030833548D0F8E0006FF0C7
:101BE0000041884202D10020308307E03048D0F81D
:101BF000E0004FF4167190FBF1F030830020B083C9
:101C0000002106F11C00F1833184718401200690CB
:101C100040E42A48807800F0010018B10120C4F89F
:101C2000AC0002E00020C4F8AC002448807800F04A
:101C3000020018B10120C4F8B00002E00020C4F88E
:101C4000B00027E440F2152038600120B870A88D5C
:101C5000C0F3403008B1012000E00220F870D4F851
:101C6000AC00012804D1F87840F00100F87001E0E0
:101C70000020F870D4F8B000012821D1F87840F0A5
:101C80000200F8701EE00000FC02002029D00008CD
:101C90000800002021D10008BBD40008C4020020A5
:101CA000CBD40008A5D2000865D20008E1D1000815
:101CB000B45A0020B0060020A45B00208000002061
:101CC0000020F8700120069082E6FE48C0780128C6
:101CD00012D1E86A20F48040E862E86A20F0080047
:101CE0000830E862E86A20F4005000F50050E8622D
:101CF000002008F001FB0EE0E86A20F00800E8622E
:101D0000E86A20F40030E862E86A20F40050E862F3
:101D1000012008F0F1FA5BE640F212203860012061
:101D2000B870A88DC0F3403008B1012000E0022057
:101D3000F870012006904BE6B8F8040044F8880FCC
:101D4000B8F802006060218808B206F005FDA1889D
:101D5000883C08B206F069FE06F022FC06F012FC90
:101D60000121D52006F061FA32E6D8F802A02FE66C
:101D700040F20B4038600620B870387940F080009F
:101D8000387101203080D5F800A0C6F802A0069076
:101D90001EE6D8F802A0C5F800A0CB492868486024
:101DA0000121812006F041FAC7484068C6494862CF
:101DB0000846406AC9F808000121892006F035FA72
:101DC000C1484168C0F8B0100121912006F02DFAF9
:101DD000FEE540F2124038600620B870387940F0D5
:101DE0008000387101203080D5F800A0C6F802A02C
:101DF0000690EDE540F22A4038600620B870387948
:101E000040F08000387101203080FEF79FFAC6F85C
:101E1000020001200690DBE5D8F80600A060A0686B
:101E2000E060D8F80A002061D2E540F21540386041
:101E30000E20B870387940F0800038710120308071
:101E40000020C6F80200A068C6F806002069C6F89F
:101E50000A0001200690BBE5B8F802006067B8F8F8
:101E60000400A067D8F80600E067D8F80A00C4F8B4
:101E70008000B8F80E00C4F88400A9E540F22540BF
:101E800038601020B870387940F080003871012037
:101E9000308034F8740F7080A088B080A068C6F8D5
:101EA0000600E068C6F80A00208A743CF081012030
:101EB00006908DE5D8F80600A064B8F80200206509
:101EC000B8F804006065D8F80A00A06580E540F223
:101ED000424038600E20B870387940F08000387188
:101EE00001203080B4F850007080B4F85400B08005
:101EF000A06CC6F80600A06DC6F80A000120069086
:101F000066E57248006E012804D102206F49086618
:101F100006F0F4FBE86AC0F3404000B158E5062043
:101F2000C9F804004FF08040C9F808000020C9F843
:101F30000C004AF28700E064C9F81000A06CC9F8F0
:101F40001400206DC9F81C000020C9F81800C9F859
:101F5000200001202861E86A20F4003000F50030FC
:101F6000E862E86A20F40010E862E86A20F04000C5
:101F70004030E862A06CC9F8140029E5D8F80200E6
:101F80006064606C002801DA0020606420E540F2A3
:101F90003C4038600620B870387940F080003871D5
:101FA00001203080606CC6F80200012006900FE529
:101FB000D8F80200464908600AE540F24740386018
:101FC0000620B870387940F08000387101203080E8
:101FD0003F480068C6F802000120069002E2E86A65
:101FE000C0F3405018B1E86AC0F3404038B9E86A1D
:101FF000C0F3404020B1D9F82000022800D1F1E11F
:10200000D5F800A02F48007940F0800018B1D8F82A
:102010000200824402E02E480068824400215046BB
:1020200008F045FA09900998012800D1DAE1E86A38
:1020300020F4003000F50030E862E86A20F4001077
:10204000E862E86A20F00200E8620120C9F80400B2
:10205000C9F808A0D9F808002968884201DA606C3C
:1020600000E00020C9F80C00A068C9F81000206941
:10207000C9F81400A069C9F81800E069C9F820007F
:10208000E86A20F010001030E8621049C86D07F0CF
:102090004AFAA7E1D8F802000D494860A2E140F2EF
:1020A000524038600620B870387940F080003871AE
:1020B0000120308006484068C6F8020001200690E2
:1020C00090E1000080000020B0060020A45B00200A
:1020D00000000020E86AC0F3405018B1E86AC0F37D
:1020E000404038B9E86AC0F3404020B1D9F8200038
:1020F000022800D1FEE3FE48007940F0800010B1D4
:10210000D8F802A002E0FB48D0F804A00021504615
:1021100008F0CDF909900998012800D1EAE3E86AAE
:1021200020F4003000F50030E862E86A20F4001086
:10213000E862E86A20F00200E8620120C9F80400C1
:10214000C9F808A0D9F808002968884201DA606C4B
:1021500000E00020C9F80C00A068C9F81000206950
:10216000C9F81400A069C9F81800E069C9F820008E
:10217000E86A20F010001030E862DF49C86D07F00F
:1021800022F9B7E3E86AC0F3405018B1E86AC0F337
:10219000404038B9E86AC0F3404020B1D9F8200087
:1021A000022800D1A6E32069C9F81400D9F8140068
:1021B00010900020109908F07AF9099009980128E8
:1021C00000D197E3E86A20F4003000F50030E862BF
:1021D000E86A20F40010E862E86A20F00200E86291
:1021E0002069C9F814000120C9F80400C9F808A042
:1021F0000020C9F80C00A068C9F810002069C9F8CF
:102200001400A069C9F81800E069C9F82000E86A5C
:1022100020F01000E862B648C078012804D1B64921
:10222000C86D07F01CFA08E0D9F814004042C9F85C
:102230001400B149C86D07F012FA5BE3AC48C078EE
:10224000012802D106F005F901E006F002F9E86A7A
:1022500020F01000E862E86A20F020002030E862F8
:102260000520C9F8040028690D2802D128692861D1
:1022700001E0002028610020A0498862C86239E39B
:10228000B8F802002062D8F804006062D8F80C00A8
:10229000A062D8F81000E062B8F81400206329E3C7
:1022A0004FF4836038601620B870387940F08000B1
:1022B000387101203080208C7080606A706000204E
:1022C000B060A06AF060E06A3061208EB0820120C8
:1022D00006900FE3E86AC0F3405018B1E86AC0F313
:1022E000404038B9E86AC0F3404020B1D9F8200036
:1022F000022800D1FEE2E86A20F4003000F5003048
:10230000E862E86A20F40010E862E86A20F48030AD
:1023100000F58030E862E86A20F00200E8620120FF
:10232000C9F804000020C9F80C00A06AC9F8100020
:10233000E06AC9F81400A069C9F81800E069C9F892
:102340002000206A012836D1E06AC9F81400D9F8C3
:10235000140010906648C078012812D1002010990E
:1023600008F0A5F809900998012804D1E86A20F43A
:102370000030E862BEE26048C16D032006F022FE34
:1023800014E01098404210900020109908F08FF847
:1023900009900998012804D1E86A20F40030E86225
:1023A000A8E25548C16D052006F00CFEE86A20F051
:1023B0001000E8623BE04E48C078012819D1286837
:1023C000616A0844C9F80800D9F808A000215046FD
:1023D00008F06DF809900998012804D1E86A20F402
:1023E0000030E86286E24448C16D042006F0EAFD50
:1023F00018E02868616A401AC9F80800D9F808A0EE
:102400000021504608F053F809900998012804D19A
:10241000E86A20F40030E8626CE23748C16D0620BB
:1024200006F0D0FDE86A20F010001030E86261E2AA
:10243000D8F80400324908670846006F0F900F98DB
:10244000C11700EBD15149122D4A516752E240F2B7
:10245000B24038601A20B870387940F08000387186
:10246000012030802648006F70600120069041E214
:10247000B8F802002249A1F87C003BE240F2B540E6
:1024800038600420B870387940F08000387101203D
:1024900030801B48B0F87C0070800120069029E253
:1024A0001748B0F87E000A90B8F802001449A1F865
:1024B0007E000846B0F87E100A98814203D00320BF
:1024C0000F49C1F89C00B8F802000D49A1F87E0040
:1024D000D8F80400C1F88000D8F80800C1F88400DA
:1024E000B8F80C00A1F88800B8F80E000AE0000067
:1024F0008000002000000020A45B002008000020D5
:10250000B0060020A1F88A00F4E14FF4976038602B
:102510001020B870387940F0800038710120308088
:10252000FA48B0F87E007080F848D0F880007060FB
:10253000F648D0F88400B060F448B0F88800B08164
:10254000F248B0F88A00F08101200690D2E1B8F894
:102550000200EE4908840121882005F066FEC9E1E9
:1025600040F2F64038600420B870387940F08000BE
:10257000387101203080E548008C70800120069081
:10258000B8E10020E249886143F6A321E048C16137
:10259000E04901624AF65521416202218162DE4929
:1025A000C16241F652510163DC49416300218163FC
:1025B0000221C1634AF655210164D749416481640F
:1025C0004AF65521C1640221016501214165D449C2
:1025D00081654FF44821C1654AF655210166022103
:1025E000416681660021C1660167012141674AF6A3
:1025F00055218167C548B0F87E10C548C167C348FA
:10260000D0F88010C248C0F88010C048D0F88410BC
:10261000BF48C0F88410BD48B0F88810BC48C0F866
:102620008810BA48B0F88A10B948C0F88C104AF639
:102630005521C0F89010B548016FB548C0F89C10FE
:102640004AF65521C0F8A010B048B0F87C10B04848
:10265000C0F894104AF65521C0F898101E21C0F811
:10266000CC100521C0F8D0104AF65521C0F8D4107E
:10267000AC48A749486005F017F83BE1AA488078C4
:10268000202804D1A249C860002028647CE0A64824
:102690008078212804D19E49C8600020286473E016
:1026A000A1488078222804D19949C8600020286474
:1026B0006AE09D488078302804D19549C8600020A0
:1026C000286461E098488078312804D19049C86036
:1026D0000020286458E094488078322804D18C493E
:1026E000C860002028644FE08F488078402804D1DB
:1026F0008749C8600020286446E08B4880784128DC
:1027000004D18349C860002028643DE08648807871
:10271000422804D17E49C8600020286434E0824801
:102720008078502804D17A49C860012028642BE0C1
:102730007D488078512804D17549C86001202864FB
:1027400022E079488078702804D17149C86001205E
:10275000286419E074488078712804D16C49C860F5
:102760000020286410E070488078752804D16849FA
:10277000C8600020286407E06B488078722803D185
:102780006349C86000202864B4E04FF49D6038605D
:102790001420B870387940F0800038710120B61CE0
:1027A00026F8020CE06D3060206E7060606EB060E4
:1027B000A06EF060B61EE06E08B1022000E00120BD
:1027C00070820120069095E094E0B8F80200574925
:1027D000C8654E49D8F80400C1F8E8000121A020DE
:1027E00005F023FD4948D8F80810C0F8EC10012185
:1027F000A12005F01AFD4548D8F80C10C0F8F010DB
:102800000121A22005F011FD4048D8F81010C0F8B1
:1028100004110121A72005F008FD3C48D8F8141048
:10282000C0F810110121AA2005F0FFFC0121374852
:10283000C0F80011A52005F0F8FC3448D0F8AC0031
:102840000F900121902005F0F0FC3848C06D02285F
:1028500014D12E48008840F400702C4908800121D2
:10286000802005F0E2FC2948008840F48070274968
:1028700008800121802005F0D8FC0AE02348008868
:102880004FF6FF610840214908800121802005F0B2
:10289000CCFC2FE040F22B5038602420B8703879FF
:1028A00040F080003871012030802048B0F85C0092
:1028B00070801648D0F8E80070601448D0F8EC003A
:1028C000B0601248D0F8F000F0601048D0F8040171
:1028D00030610E48D0F8100170610C48D0F8AC009F
:1028E000B0610020B083B083B083B0830120069034
:1028F00000E000BF00BF069800B39DF84C0000F058
:102900008000A8B19DF84A00801D12E0B0060020AA
:10291000B05C0020C0445E045515020060222F0206
:10292000FC7A4F010D00010080000020A45B002014
:102930000620089012A8089904F084F929B0BDE88F
:10294000F08F10B50446012C0AD107F02BF9FE4890
:10295000FE49486004F0A8FE07F007FA002402E0F0
:102960000020FB49486410BD10B5044672B6012C26
:1029700004D0022C06D0032C0CD107E0002007F075
:10298000FCFC07E0012007F0F8FC03E0012007F061
:10299000F4FC00BF00BFEE48048062B610BD70B505
:1029A000EC4EB01FC08885B2012D06D0052D0BD08E
:1029B000072D03D00D2D08D105E007E074882046CF
:1029C000FFF7D2FF02E001E000E000BF00BF70BDF2
:1029D00010B5014600200023DE4CA41FA2780F2A68
:1029E00024D2DFE802F02308230D2310231223183A
:1029F000231E23200A00082019E01E200A8016E06A
:102A00000C200A8013E0122011E004200A80D04C30
:102A100024884C800BE0062000230A80C1F8023095
:102A200005E0082003E006200A8000E000BF00BFA8
:102A300010BDC9480021C54A9161103050F8082CDA
:102A4000C249CA6102680A624AF655224A620269AC
:102A50008A624269CA6282690A63C2694A63002261
:102A60008A63026ACA634AF655220A64426B4A6460
:102A7000426B8A644AF65522CA64026C0A65426C4B
:102A80004A65826B8A65826CCA654AF655220A6677
:102A9000426E4A66826E8A66C26ECA66026F0A67B4
:102AA000426F4A674AF655228A67C26CC1F89C2079
:102AB0004AF65522C1F8A020026BC1F8A420C26CCE
:102AC000C1F8A820426DC1F8AC20C26DC1F8B02099
:102AD000A149D1F8C0209D49C1F8B4209E49D1F840
:102AE000C4209A49C1F8B8209B49D1F8D820974909
:102AF000C1F8BC209849B1F8E4108AB29349A1F812
:102B0000C4209549D1F8E0209049C1F8C0204AF688
:102B10005522C1F8C8209149B1F87C208B49C1F8F1
:102B200094204AF65522C1F89820826FC1F8CC2033
:102B3000C26F1038C1F8D0204AF65522C1F8D4200F
:102B400087490A698149C1F8F02085494A697F4966
:102B5000C1F8F42082498A687C49C1F8E82080499C
:102B6000CA687A49C1F8EC207E490A687749C1F8F9
:102B700010217C494A687549C1F814214AF655224A
:102B8000C1F8182178490A687049C1F8442176498A
:102B90004A686E49C1F8482173498A686B49C1F88F
:102BA0004C217149CA686949C1F850216E490A69C6
:102BB0006649C1F854216C494A696449C1F85821F1
:102BC00069498A696149C1F85C216749CA695F49F5
:102BD000C1F8602164490A6A5C49C1F864214AF677
:102BE0005522C1F87C21704770B55B4D002314223B
:102BF0004FF488615D4804F0ADFC04465B48806892
:102C00004AF65521884204D15848406858494860DE
:102C100002E039205649486001205549C8605348B0
:102C200000694AF65521884204D15048C06850498D
:102C3000C86002E001204E49C86070BD10B5464C26
:102C40004248406A4AF65521884205D13F48C0694A
:102C5000A0603E48006A20613C48006C4AF655215D
:102C600088420ED13948806A20623848C06A606262
:102C70003648006BA0623548406BE0623348C06B59
:102C800020633248C06C4AF65521884205D12F484E
:102C9000406C60642D48806C60642C48006E4AF67D
:102CA000552188420BD12948006D20652748406D89
:102CB00060652648806DA0642448C06DA0652348E7
:102CC000D0F87C014AF65521884224D11F48D0F81B
:102CD0004401254908601D48D0F8480148601B4858
:102CE000D0F84C0188601948D0F85001C8601748E6
:102CF000D0F8540108611548D0F8580148611348CC
:102D0000D0F85C0188611148D0F86001C8610F48B3
:102D1000D0F8640108620D48D0F818014AF6552130
:102D2000884275D10948D0F8F0000D49086107487C
:102D3000D0F8F40048610548D0F8E80088600348FE
:102D4000D0F8EC00C86015E00D000100B05C002078
:102D5000A45B002086000020B45A0020B0060020AA
:102D60000800002000000020C4020020685E00204F
:102D7000545E002008460069132870D2DFE800F096
:102D80000A131A3959706F6F6F6F858CA5BEDBF50A
:102D9000F4F3F200012002F006FE0020F64948623A
:102DA000F648086023E1012002F0FDFDF448F249F5
:102DB00008601CE1012002F0F6FD0220F149886163
:102DC0000020086208468068012802D1EA490861AB
:102DD00002E00220E8490861EB48E7490860EB4857
:102DE000D0F81001EA490860E848D0F814014860BA
:102DF000FDE0012002F0D7FD0420E24988610020B7
:102E0000086208468068012803D1DB49086103E0B5
:102E100063E20220D8490861DE48D7490860DB48F0
:102E2000D0F81001DA490860D848D0F81401486099
:102E3000DDE0012002F0B7FD0820D24988610020C2
:102E4000086208468068012802D1CB49086102E087
:102E50000220C9490861D048C7490860C7E0C5E0F9
:102E6000012002F0A0FD0020C649886108620846E2
:102E70008068012802D1C049086102E00220BE49F1
:102E80000861C648BC490860B1E0022002F08BFD31
:102E9000C348B9498860AAE0022002F084FD0120FD
:102EA000B54948622020B749086200208861084679
:102EB0008068012802D1B049486102E00220AE4991
:102EC0004861B848AC49886091E0022002F06BFD8F
:102ED0000120A94948628020AA490862002088612F
:102EE00008468068012802D1A349486102E0022017
:102EF000A1494861AC48A049886078E0022002F00E
:102F000052FDA0488068012805D1A848A8498862D8
:102F10000120486204E0A748A54988620020486271
:102F2000A3480AF027FC0AF0F7FA0020A04908623B
:102F30000120C8625BE0022002F035FD9C48006978
:102F40009B490860084640694042486008468069DD
:102F500088608C488068012808D1944888620120E4
:102F6000486208E03BE033E02BE00FE091489049F5
:102F70008862002048628E480AF0FCFB0AF0CCFA16
:102F800000208B4908620120C86230E0022002F074
:102F90000AFD7C488068012805D1844884498862FC
:102FA0000120486204E08348814988620020486229
:102FB0007F480AF0DFFB0AF0AFFA01207C49C862C3
:102FC00015E0022002F0EFFC7B486B4988600EE0C0
:102FD000022002F0E8FC79486749886007E0022097
:102FE00002F0E1FC76486449886000E000BF00BF61
:102FF0006448406913286FD2DFE800F00A131A39D9
:10300000586F6E6E6E6E848BA4F9F7F6F5F4BD0002
:10301000012002F096FC5948574948600020886218
:103020005AE1012002F08DFC66485349486053E1A3
:10303000012002F086FC02205249C861002048624B
:103040000846C068012802D14B49886102E002208D
:10305000494988615C48484948604C48D0F81001AB
:103060004B4908604948D0F81401486034E1012018
:1030700002F067FC04204349C8610020486208460A
:10308000C068012802D13C49886102E002203A4927
:1030900088614E48384948603C48D0F810013C49A6
:1030A00008603A48D0F81401486015E1012002F0A8
:1030B00048FC08203349C861002048620846C068BF
:1030C000012802D12C49886102E002202A49886146
:1030D0003F4829494860FFE0FDE0012002F031FC53
:1030E00000202849C861086208468068012802D18A
:1030F0002149086102E002201F49086135481E4944
:103100004860E9E0022002F01CFC33481A49C8601C
:10311000E2E0022002F015FC01201749886220201D
:10312000184948620020C8610846C068012802D1D9
:103130001149C86102E002200F49C86127480E49C1
:10314000C860C9E0022002F0FCFB01200A49886245
:1031500080200C4948620020C8610846C0680128E8
:1031600002D10549C86102E002200349C8611C4838
:103170000149C860B0E0A7E0FC02002019CA0008BD
:1031800081CA000808000020E9CA0008B05C0020DD
:103190000000002085CC0008D3CE00082BCE00080C
:1031A00041CA0008C3CF0008CBD000089BD4000858
:1031B000C4020020ABD4000889D3000849D300081A
:1031C000E5D20008A3CA0008C9CB00083DCD00081D
:1031D0004BCF000879CE00085FCA000829D000084C
:1031E00021D1000869E061E045E01DE0FFE7022031
:1031F00002F0A7FBFE48C068012805D1FD48FE4942
:1032000088620120486204E0FC48FB498862002093
:103210004862F9480AF0AEFA0AF07EF90020F64951
:1032200008620120C86257E0022002F08AFBF248DF
:103230000069F14908600846406940424860084614
:1032400080698860EA48C068012804D1E94888623A
:103250000120486204E0E948E749886200204862AA
:10326000E5480AF087FA0AF057F90020E2490862B7
:103270000120C86230E0022002F063FBDC48C06835
:10328000012805D1DB48DC4988620120486204E05E
:10329000DA48D949886200204862D7480AF06AFAB9
:1032A0000AF03AF90120D449C86215E0022002F080
:1032B00048FBD348D349C8600EE0022002F041FB2E
:1032C000D148D049C86007E0022002F03AFBCF485D
:1032D000CC49C86000E000BF00BFCD48D0F8C800AE
:1032E0004AF6552188424CD1C948D0F8A400206440
:1032F000C748D0F8A800E065C649E06D0969884272
:1033000002DDC4480069E065C148D0F8AC006066E1
:10331000BF48D0F8B000E066BD48D0F8B410BE4851
:10332000C0F8C010BA48D0F8B810BB48C0F8C410F4
:10333000B748D0F8A8007F2190FBF1F0B749486763
:10334000B348D0F8BC00B449C1F8D800B048B0F8D0
:10335000C400C1F8E400AE48D0F8C000C1F8E000F5
:10336000AF48406E012803D1D1F8D80006F0FAF931
:10337000AB48406E022804D1A749D1F8D80006F026
:103380000EFAA548D0F8D800002804DBA248D0F8EF
:10339000D800642807DD0A209F49C1F8D800D1F879
:1033A000D80006F0DFF99C48D0F8E0009D4988423B
:1033B00005DC9948D0F8E000B0F5167F0FDA9648A2
:1033C000D0F8E0006FF00041884203D19249C1F883
:1033D000E00004E041F270708F49C1F8E0008E48CF
:1033E000D0F8E400002804DB8B48D0F8D80064282B
:1033F00003DD02208849C1F8E4008548006C4AF6E4
:103400005521884202D18248C06A60628048D0F863
:1034100038014AF65521884226D17D48D0F820014E
:103420007E49C1F8E8007A48D0F824117B48C0F8FA
:10343000EC107748D0F828117848C0F8F01074489C
:10344000D0F82C117548C0F804117148D0F830112B
:103450007248C0F810116E48D0F838017049C8653C
:1034600001216E48C0F800116948D0F840014AF6C1
:103470005521884204D16648D0F83C016849486724
:1034800010BD70B5644C00234FF4C07219466048FB
:1034900004F060F806465E48406A4AF655218842C4
:1034A00005D15B48C069A0605948006A206158484E
:1034B000006C4AF6552188420ED15548806A206238
:1034C0005348C06A60625248006BA0625048406B2B
:1034D000E0624F48C06B20634D48C06C4AF65521EE
:1034E000884205D14A48406C60644948806C6064F9
:1034F0004748006E4AF6552188420BD14448006D7A
:1035000020654348406D60654148806DA064404837
:10351000C06DA0653E48806F4AF65521884210D1A3
:103520003B48406E60673A48806EA0673848C06E7E
:10353000E0673748006FC4F880003548406FC4F832
:1035400084003348D0F890004AF65521884219D1BA
:103550002F48B0F87C003149A1F87E002C48D0F803
:103560008000C1F880002A48D0F88400C1F88400A7
:103570002748B0F88800A1F888002548B0F88C00EA
:10358000A1F88A002248D0F8C8004AF6552188429E
:103590002BD11F48D0F8A40020641D48D0F8A80003
:1035A000E0651B48D0F8AC0060661948D0F8B00060
:1035B000E0661748D0F8B4101748C0F8C010144897
:1035C000D0F8B8101448C0F8C4101148D0F8BC00A6
:1035D0001149C1F8D8000E48B0F8C400C1F8E400A1
:1035E0000B48D0F8C000C1F8E00009481CE000001A
:1035F00008000020BBD40008C4020020CBD400087F
:10360000A5D20008FC02002065D20008E1D1000824
:10361000B05C002008080020B45A0020B00600204A
:10362000A45B002000650400D0F8A0004AF65521F4
:10363000884203D1FE48D0F89C00E065FC48D0F8F1
:1036400098004AF65521884203D10120F949A1F892
:103650007C00F748D0F8D4004AF65521884209D1B9
:10366000F348D0F8CC00C4F88800F148D0F8D00076
:10367000C4F88C00EE48D0F8DC004AF655218842A8
:1036800004D1EB48D0F8D800C4F89000E848D0F84E
:1036900018014AF65521884230D1E548D0F8E000BB
:1036A000E5490860E248D0F8E4004860E048D0F816
:1036B000E8008860DE48D0F8EC00C860DC48D0F84C
:1036C000F0000861DA48D0F8F0000861D848D0F876
:1036D000F8008861D648D0F8FC00C861D448D0F81A
:1036E00000010862D248D0F804014862D048D0F8FE
:1036F00008018862CE48D0F80C01C862CC48006945
:103700004AF65521884201D1C948C568CBA1CD48A8
:103710000EF03EFCC648D0F838014AF655218842E2
:103720000FD1C348D0F81C01022807D1C048C06897
:10373000722806D00120C449C86502E00120C249B0
:10374000C86570BD70B50446C0480068052808D239
:10375000DFE800F003081564740014B90120BB49C8
:10376000086077E0BAA002F001FCFFF762F902F00E
:1037700031FFBC4908800220B44908606AE01CB1EE
:103780000020B249086048E002F024FF0546B54831
:103790000188284602F01AFFB0F5FA6F3DDD0120DE
:1037A00006F0DEFB06F0FEF9012003F00BF84AF606
:1037B00055209F49086103F077FFA348406C01281A
:1037C00001DD03F087FF022002F0FCFF06F0CDFAD6
:1037D000022002F0F7FFA4A002F0C8FB0220FCF7D1
:1037E00057FE0320A34908600220A3494861084608
:1037F000C06A20F01000C8620846C06A20F02000AD
:10380000C86205209B4948609B48C06A20F0800040
:103810009949C86203208D4908601BE002F0DAFE76
:10382000054690480188284602F0D0FE40F6B8319F
:10383000884202DD0420854908600BE04FF4003027
:103840008E490860400108604FF4FA7002F0BAFF38
:10385000FCF760FD00BF7D48006870BD10B52DED20
:10386000048B0446412C7DD011DC302C7BD007DC4E
:10387000202C79D0212C78D0222C41F06A80CDE206
:10388000312C73D0322C72D0402CF6D1FEE3702C48
:1038900000F05D8707DC422C6AD0502C69D0512C97
:1038A000EBD100F0B4BE722C05D0732C7DD0752CFA
:1038B000E3D100F0CCBF72480068724908607048DC
:1038C000406848606E48806888606D48C068C8601D
:1038D0006B48006908616A484069486168488069C6
:1038E00088616748C069C8616548006A08626448C1
:1038F000406A48626248806A88626148C06AC862F9
:103900005F48006B08635E48406B48635C48806BAF
:1039100088635B48C06BC8635948006C08645848AA
:10392000406C48645648806C88645548C06CC864D4
:103930005348006D08655248406D4865504890ED09
:10394000190A084680ED190A4D4890ED1A0AB8EE9A
:10395000400A084680ED1A0A90ED1A0ABCEEC00A29
:10396000344807E0FEE3E5E26AE1E0E159E3D1E350
:10397000F9E3F9E380ED2B0A01204349086441484B
:1039800000694863084690ED0D0AB8EEC00A10EED3
:10399000101A084611F0C8FA41EC190B9FED3B0BC9
:1039A00053EC102B10F072FE00E086E041EC180B97
:1039B00010F092FD344988663248406848613148C9
:1039C00090ED010AB8EEC00AD0ED190A80EE201A77
:1039D000084680ED061A2A48C06E2A49C86608467D
:1039E000C06E1449C1F8E8002548006F25490867F2
:1039F0000846016F0F48C0F8EC102148406F21497C
:103A000048670846416F0B48C0F8F0101C48806FAB
:103A10001C4988670846816F0648C0F8F4101848AA
:103A2000816F0448C0F8041101201649C86731E0CD
:103A3000B05C0020B0060020080000204B53543139
:103A40003031000044020020A45B00204800002028
:103A50000D0A506F776572696E6720646F776E2EFE
:103A60002E2E000044000020676F6F646279650DA0
:103A70000A000000305E0020C40700201808024041
:103A80007C55010808080020345C0020BA498C1BD2
:103A9000E33291410846C16FFE48C0F80011FE486C
:103AA000D0F88000FD49C1F880000846D0F88010A9
:103AB000F848C0F8101100F04CBFF9480068F74909
:103AC0000860F74840684860F54880688860F448B6
:103AD000C068C860F24800690861F14840694861FF
:103AE000EF4880698861EE48C069C861EC48006AA7
:103AF0000862EB48406A4862E948806A8862E848A0
:103B0000C06AC862E648006B0863E548406B4863DA
:103B1000E348806B8863E248C06BC863E048006C90
:103B20000864DF48406C4864DD48806C8864DC4889
:103B3000C06CC864DA48006D0865D948406D4865B6
:103B4000D74890ED190A084680ED190AD44890ED3F
:103B50001A0AB8EE400A084680ED1A0A90ED1A0AD1
:103B6000BCEEC00ACB4880ED2B0A0120CD49086489
:103B7000CA4800694863084690ED0D0AB8EEC00ACD
:103B800010EE101A084611F0CFF941EC190B1FED99
:103B9000410B53EC102B10F079FD41EC180B10F099
:103BA0009BFCC0498866BD4840684861BB4890EDB1
:103BB000010AB8EEC00AD0ED190A80EE201A0846B4
:103BC00080ED061AB648C06EB449C8660846C06E95
:103BD000B049C1F8E800B248006FB049086708462C
:103BE000016FAC48C0F8EC10AD48406FAB49486776
:103BF0000846416FA748C0F8F010A948806FA74950
:103C000088670846816FA348C0F8F410A448816F04
:103C1000A048C0F804110120A049C8670846C16F38
:103C20009C48C0F800119E48D0F880009B49C1F81C
:103C300080000846D0F880109648C0F810113AE786
:103C400099480068954908609748406848609648D8
:103C5000806888609448C068C860934800690861BB
:103C60009148406948619048806988618E48C06980
:103C7000C8618D48006A08628B48406A48628A4879
:103C8000806A88628848C06AC8628748006B086397
:103C90008548406B48638448806B88638248C06B6A
:103CA000C8638148006C08647F48406C48647E4863
:103CB000806C88647C48C06CC8647B48006D086573
:103CC0007948406D4865784890ED190A084680EDBE
:103CD000190A01207349086470480069486308465E
:103CE00090ED0D0AB8EEC00A10EE101A084611F059
:103CF0001BF941EC190B9FED6D0B53EC102B10F0E1
:103D0000C5FC41EC180B10F0E7FB66498866634878
:103D100040684861614890ED010AB8EEC00AD0EDF4
:103D2000190A80EE201A084680ED061AC3E661489B
:103D300000685A4908605F48406848605D4880688C
:103D400088605C48C068C8605A4800690861594882
:103D5000406948615748806988615648C069C861B0
:103D60005448006A08625348406A48625148806A71
:103D700088625048C06AC8624E48006B08634D486C
:103D8000406B48634B48806B88634A48C06BC8638C
:103D90004848006C08644748406C48644548806C5B
:103DA00088644448C06CC8644248006D0865414856
:103DB000406D48653F4890ED190A084680ED190AA4
:103DC000012038490864354800694863084690ED89
:103DD0000D0AB8EEC00A10EE101A084611F0A4F849
:103DE00041EC190B9FED310B53EC102B10F04EFCF6
:103DF00041EC180B10F070FB2A4988662748406890
:103E00004861264890ED010AB8EEC00AD0ED190AC3
:103E100080EE201A084680ED061A4CE62648006817
:103E20001E490860244840684860234880688860CC
:103E30002148C068C8602048006908611E48406980
:103E400048611D48806988611B48C069C8611A487B
:103E5000006A08621848406A48621748806A8862A7
:103E60001548C06AC8621448006B08631248406B6A
:103E700048631148806B88630F48C06BC8630E4865
:103E8000006C08640C48406C48640B48806C886483
:103E9000094813E0B00600207C55010808080020FE
:103EA00000560108345C002034500108EC51B81E63
:103EB00085E7B7419C50010804510108C06CC864F3
:103EC000FE48006D0865FD48406D4865FB4890ED73
:103ED000190A084680ED190A0120F9490864F948D1
:103EE00000694863084690ED0D0AB8EEC00A10EE6E
:103EF000101A084611F018F841EC190B1FED150BBC
:103F000053EC102B10F0C2FB41EC180B10F0E4FA4C
:103F1000EB498866EB4840684861EA4890ED010A41
:103F2000B8EEC00AD0ED190A80EE201A084680EDDE
:103F3000061AC0E5E4480068E2490860E2484068C3
:103F40004860E14880688860DF48C068C860DE4833
:103F500000690861DC4840694861DB488069886124
:103F6000D948C069C861D848006A0862D648406A22
:103F70004862D548806A8862D348C06AC862D2481D
:103F8000006B0863D048406B4863CF48806B886300
:103F9000CD48C06BC863CC48006C0864CA48406C0C
:103FA0004864C948806C8864C748C06CC864C64807
:103FB000006D0865C448406D4865C34890ED190A16
:103FC000084680ED190A0120BD490864BD48006912
:103FD0004863084690ED0D0AB8EEC00A10EE101ABC
:103FE000084610F0A1FF41EC190B9FEDB80B53EC04
:103FF000102B10F04BFB41EC180B10F06DFAB04990
:104000008866B04840684861AE4890ED010AB8EE55
:10401000C00AD0ED190A80EE201A084680ED061A73
:1040200049E5AC480068A7490860AA48406848606C
:10403000A84880688860A748C068C860A54800692B
:104040000861A44840694861A24880698861A14824
:10405000C069C8619F48006A08629E48406A486219
:104060009C48806A88629B48C06AC8629948006B15
:1040700008639848406B48639648806B886395480E
:10408000C06BC8639348006C086400E0BDE09148D1
:10409000406C48648F48806C88648E48C06CC864EB
:1040A0008C48006D08658B48406D4865894890EDE7
:1040B000190A084680ED190A0120814908648148DF
:1040C00000694863084690ED0D0AB8EEC00A10EE8C
:1040D000101A084610F028FF41EC190B9FED7B0BDE
:1040E00053EC102B10F0D2FA41EC180B10F0F4F94D
:1040F00073498866734840684861724890ED010AC8
:10410000B8EEC00AD0ED190A80EE201A084680EDFC
:10411000061AD0E4704800686A4908606E48406832
:1041200048606D48806888606B48C068C8606A48AD
:10413000006908616848406948616748806988612A
:104140006548C069C8616448006A08626248406A9C
:1041500048626148806A88625F48C06AC8625E4897
:10416000006B02E0DCE052E1C8E108635A48406BB2
:1041700048635948806B88635748C06BC86356488A
:10418000006C08645448406C48645348806C8864F0
:104190005148C06CC8645048006D08654E48406D79
:1041A00048654D4890ED190A084680ED190A01202E
:1041B00043490864434800694863084690ED0D0A86
:1041C000B8EEC00A10EE101A084610F0ADFE41EC31
:1041D000190B9FED3E0B53EC102B10F057FA41ECEE
:1041E000180B10F079F936498866364840684861FE
:1041F000344890ED010AB8EEC00AD0ED190A80EEFD
:10420000201A084680ED061AA3E3344800682D49B9
:1042100008603248406848603048806888602F48AD
:10422000C068C8602D48006908612C484069486131
:104230002A48006A08622948806988612748C0695D
:10424000C8612648406A48622448806A88622348D8
:10425000C06AC8622148006B08632048406B48630D
:104260001E48806B88631D48C06BC8631B48006C88
:1042700008641A48406C48641848806C8864174881
:10428000C06CC8641548006D08651448406D4865E9
:10429000124890ED190A084680ED190A01200849D4
:1042A0000864084800694863084690ED0D0AB8EEB6
:1042B000C00A10EE101A084612E00000045101086E
:1042C000345C0020080800206C51010800000086C2
:1042D0000FB59941D45101083C520108A45201087C
:1042E00010F022FE41EC190B9FEDFE0B53EC102B4E
:1042F00010F0CCF941EC180B10F0EEF8FB49886691
:10430000FB4840684861FA4890ED010AB8EEC00ADF
:10431000D0ED190A80EE201A084680ED061A18E33F
:10432000F4480068F2490860F24840684860F14883
:1043300080688860EF48C068C860EE48006908611E
:10434000EC4840694861EB4880698861E948C06988
:10435000C861E848006A0862E648406A4862E54881
:10436000806A8862E348C06AC862E248006B0863FA
:10437000E048406B4863DF48806B8863DD48C06B72
:10438000C863DC48006C0864DA48406C4864D9486B
:10439000806C8864D748C06CC864D648006D0865D6
:1043A000D448406D4865D34890ED190A084680ED21
:1043B000190A0120CD490864CD48006948630846C0
:1043C00090ED0D0AB8EEC00A10EE101A084610F073
:1043D000ABFD41EC190B9FEDC30B53EC102B10F010
:1043E00055F941EC180B10F077F8C0498866C048C1
:1043F00040684861BE4890ED010AB8EEC00AD0EDB1
:10440000190A80EE201A084680ED061AA1E2BA4881
:104410000068B7490860B84840684860B648806896
:104420008860B548C068C860B34800690861B24890
:1044300040694861B04880698861AF48C069C86117
:10444000AD48006A0862AC48406A4862AA48806A7F
:104450008862A948C06AC862A748006B0863A6487A
:10446000406B4863A448806B8863A348C06BC863F3
:10447000A148006C0864A048406C48649E48806C69
:1044800088649D48C06CC8649B48006D08659A4864
:10449000406D4865984890ED190A084680ED190A64
:1044A000012092490864924800694863084690EDEB
:1044B0000D0AB8EEC00A10EE101A084610F034FDCE
:1044C00041EC190B9FED870B53EC102B10F0DEF82D
:1044D00041EC180B10F000F8844988668448406865
:1044E0004861834890ED010AB8EEC00AD0ED190A80
:1044F00080EE201A084680ED061A2AE27F480068FE
:104500007B4908607D48406848607C4880688860D6
:104510007A48C068C860794800690861774840698E
:1045200048617648806988617448C069C861734889
:10453000006A08627148406A48627048806A88620E
:104540006E48C06AC8626D48006B08636B48406B78
:1045500048636A48806B88636848C06BC863674873
:10456000006C08646548406C48646448806C8864EA
:104570006248C06CC8646148006D08655F48406D62
:1045800048655E48806D88655C48C06DC8655B485D
:10459000006E0866594890ED190A084680ED190A20
:1045A000012052490864524800694863084690ED6A
:1045B0000D0AB8EEC00A10EE101A084610F0B4FC4E
:1045C00041EC190B9FED4E0B53EC102B10F05EF8E5
:1045D00041EC180B0FF080FF44498866084690EDC7
:1045E0001A0ADFED490A80EE201A80ED1A1A4048B7
:1045F000406848613E4890ED010AB8EEC00AD0ED2F
:10460000190A80EE201A084680ED061AA1E13F48FB
:104610000068374908603D48406848603B4880680A
:1046200088603A48C068C8603848006908613748FF
:10463000406948613548806988613448C069C8610B
:104640003248006A08623148406A48622F48806AEE
:1046500088622E48C06AC8622C48006B08632B48E9
:10466000406B48632948806B88632848C06BC863E7
:104670002648006C08642548406C48642348806CD8
:1046800088642248C06CC8642048006D08651F48D3
:10469000406D48651D48806D88651C48C06DC865C3
:1046A0001A48006E0866194890ED190A084680ED10
:1046B000190A01200D4908640D480069486308463D
:1046C00090ED0D0AB8EEC00A10EE101A084610F070
:1046D0002BFC41EC190B9FED0A0B53EC102B0FF048
:1046E000D5FF15E0CDCCCC5455F59B41345C002072
:1046F000080800200C53010874530108AC54010849
:10470000D7A3703D0AD74A400000C8481455010895
:1047100041EC180B0FF0E0FEFE498866084690ED6C
:104720001A0A5FED070A80EE201A80ED1A1AFA487D
:1047300040684861F84890ED010AB8EEC00AD0ED33
:10474000190A80EE201A084680ED061A01E1F348A6
:104750000068F1490860F14840684860EF488068A7
:104760008860EE48C068C860EC4800690861EB48A2
:1047700040694861E94880698861E848C069C86162
:10478000E648006A0862E548406A4862E348806A91
:104790008862E248C06AC862E048006B0863DF488C
:1047A000406B4863DD48806B8863DC48C06BC8633E
:1047B000DA48006C0864D948406C4864D748806C7B
:1047C0008864D648C06CC864D448006D0865D34876
:1047D000406D4865D14890ED190A084680ED190AE8
:1047E0000220CC490864CC4800694863084690ED33
:1047F0000D0AB8EEC00A10EE101A084610F094FB2D
:1048000041EC190B1FED420B53EC102B0FF03EFF48
:1048100041EC180B0FF060FEBE498866084690ED2B
:104820001A0A5FED470A80EE201A80ED1A1ABA487C
:1048300040684861B84890ED010AB8EEC00AD0ED72
:10484000190A80EE201A084680ED061A81E0B44865
:104850000068B1490860B24840684860B048806864
:104860008860AF48C068C860AD4800690861AC485E
:1048700040694861AA4880698861A948C069C861DF
:10488000A748006A0862A648406A4862A448806A4D
:104890008862A348C06AC862A148006B0863A04848
:1048A000406B48639E48806B88639D48C06BC863BB
:1048B0009B48006C08649A48406C48649848806C37
:1048C00088649748C06CC8649548006D0865944832
:1048D000406D4865924890ED190A084680ED190A26
:1048E00002208C4908648C4800694863084690EDB2
:1048F0000D0AB8EEC00A10EE101A084610F014FBAC
:1049000041EC190B1FED820B53EC102B0FF0BEFE88
:1049100041EC180B0FF0E0FD7E498866084690EDEB
:104920001A0A7D48D0ED190A80EE201A084680ED5B
:104930001A1A794840684861774890ED010AB8EE44
:10494000C00AD0ED190A80EE201A084680ED061A3A
:1049500000BF00BFBDEC048B10BD0146714AD26898
:10496000412A45D010DC302A2ED006DC202A1CD06B
:10497000212A1FD0222A63D121E0312A29D0322ACC
:104980002CD0402A5CD12EE0702A45D006DC422A89
:1049900033D0502A36D0512A52D138E0722A45D02D
:1049A000732A48D0752A4BD13BE000202022594B76
:1049B0005A644AE001202122564B5A6445E0022005
:1049C0002222544B5A6440E003203022514B5A6457
:1049D0003BE0042031224F4B5A6436E0052032225E
:1049E0004C4B5A6431E0062040224A4B5A642CE07A
:1049F00007204122474B5A6427E008204222454BBA
:104A00005A6422E009205022424B5A641DE00A20D9
:104A10005122404B5A6418E00B2070223D4B5A64DF
:104A200013E00C2075223B4B5A640EE00D207222DD
:104A3000384B5A6409E00E207322364B5A6404E066
:104A400000202022334B5A6400BF00BF70472DED79
:104A50000C8B86B000BF00BF00BF00BF00BF00BF0F
:104A60004FF00008304D314C314E10F0D5FA00F0C7
:104A7000C6FF05F008FB2F49486601F05FFD642082
:104A800001F0AEFE01F0CAFD01F0EDFD02F01BFAEF
:104A900005F088F8FEF7F5FCFEF7A6F801F0BEFE7B
:104AA000029820F47C100290029820F4FE400290BC
:104AB000029820F07F000290029801F0B9FF08F000
:104AC0005AFB01F011FB00F005FE06F043FE05F075
:104AD000BEFF02F071FB40201749086008F02EFF6E
:104AE000642008F00AFF08F017FD642008F0BFFDFD
:104AF00008F0DEFD03F062FD642001F063FE05F0C6
:104B000034F9642001F05EFE202002494864002050
:104B1000086013E0345C002008080020DC53010822
:104B200044540108B05C0020305E0020C40700201F
:104B3000B45A0020A45B002018080240E06A20F468
:104B40000040E06262B6FD48406E022809D1FC498F
:104B5000486805F0B9FAFB49D1F8D80004F01FFE07
:104B600008E0F648406E012804D1F649D1F8D80093
:104B700004F0F8FD012005F054FAF049486E0AF0FF
:104B8000CFFE0CF025FD00200CF099FD0CF03CFC54
:104B9000ED480BF06BFA4FF420700CF057FD142029
:104BA00001F010FEE948807B00F00F08B8F1090F12
:104BB0002ED9B8F10A0F09D0B8F10B0F0ED0B8F109
:104BC0000C0F13D0B8F10D0F20D117E0DF48D0F84B
:104BD0000E00A0F10A0808F1100818E0DB48D0F830
:104BE0000E00A0F10A0808F1100810E0D748D0F82C
:104BF0000E00A0F10A0808F1100808E0D348D0F828
:104C00000E00A0F10A0808F1100800E000BF00BF84
:104C10004246CFA14FF4FA600AF060FA01F0DAFCE4
:104C20000AF02CFC8246BAF1000F47D107F06DFD67
:104C3000CE4ACFA14FF4FA600AF050FACB48801F59
:104C4000D0F80200D0490860C848801FD0F80200A0
:104C5000059042F6FE220598811A90421BD009DC8D
:104C6000A0F51850A0F58B7048B107280BD0132879
:104C70001DD10CE0072912D0132918D113E04020D0
:104C8000C149486414E04120BF49486410E0422013
:104C9000BD4948640CE03020BB49486408E031203D
:104CA000B949486404E03220B749486400E000BFD5
:104CB00000BFB548406CB549C8600FE0B349C8684B
:104CC000FFF74BFE8146B048C0F87890B04800EB43
:104CD0000912B0A14FF4FA600AF000FAAA49486C30
:104CE000FEF7BCFD02F0DEFDFDF7A8FFE06A20F450
:104CF0008040E062E06A20F008000830E062E06A8C
:104D000020F4005000F50050E062002005F0F4FAB5
:104D10004FF48030A549C1F8AC000121902003F088
:104D200084FAA34890ED1A0ABCEEC00A9F4880EDB1
:104D30002B0A0021C0F8B0100121912003F075FA70
:104D40000121112003F071FA642001F03BFD0121E3
:104D5000112003F06AFA9548D0F8B00040F6C4116B
:104D6000884205DC9148D0F8B0004942884215DA03
:104D7000E06A20F4804000F58040E062E06A20F0C4
:104D80000800E062E06A20F40050E062012005F0D3
:104D9000B3FA88A14FF4FA600AF0A0F97B48C06822
:104DA000722803D07948C068732820D103F05BFBD8
:104DB00002206249C8657D48008804900846C06D9D
:104DC000022817D17948008840F40070774908809C
:104DD0000121802003F029FA7448008840F4807093
:104DE000724908800121802003F01FFA02E00120AF
:104DF0005249C8655148406E022803D1504948685D
:104E000005F062F9F2E301F0CFFE8346BBF1900FAB
:104E100002D170A001F0CBF87548D0F8000101284C
:104E200005D1FBF7A4FC02207149C1F8000101F093
:104E30001EFF01F0EDFC00287ED06E4890F82C009B
:104E4000C0F3C01018B140F28140FBF721FB6A4863
:104E500000680A2808DA0420684908606648006883
:104E6000401C6549086031E0634800680A280DDB92
:104E700061480068142809DA4FF480205F4908600F
:104E80005D480068401C5C4908601FE0A08DC0F3CD
:104E9000803020B147A14FF4FA600AF01FF90020DA
:104EA0005549086056480068401C55490860084646
:104EB000006802280ADB002008602048006E0128F4
:104EC00004D150A14FF4FA600AF008F91B48C06DF4
:104ED000022832D10121112003F0A7F90121282055
:104EE00003F0A3F92848406C722802D0732806D139
:104EF00002E04A48049005E04948049002E047482F
:104F0000049000BF00BF2948D0F8081104988142DE
:104F100006DC2648D0F808110498404281420CDA99
:104F2000012006490866C865204800884FF6FF61E1
:104F300008401E49088075E05CE38FE0A45B002018
:104F4000545E0020B45A0020EC66010840020020A4
:104F500054686F726C616273204B53543130310A64
:104F6000537752657620253036580000B260002015
:104F7000537461676520636F6E6E65637465643A30
:104F80000A252E3873000000345C0020B05C00203D
:104F900064050020537461676520506572736973FE
:104FA0007465643A0A252E3873000000B0060020AC
:104FB0000808002057726F6E672053746167652080
:104FC0000A5475726E206F6666204B53543130312F
:104FD00000000000496E76616C69642041505420E5
:104FE0006D65737361676520666F726D61742E0005
:104FF00080000020C40700204C000020180402405C
:105000005C000020536572766F204572726F7220CB
:105010000A486F6D6520537461676500B80501002B
:10502000E09304000121802003F0FFF803F011FA5F
:105030000020FA490863FA480068022803D140F2C8
:105040002B50FBF725FAF6480068022806D1F54BED
:1050500048F6BB0200218120FBF71AFA04F0F0FFAA
:10506000EE49C861F048C068022813D10846C069FB
:105070004742381E01DB014600E04142012900D1D0
:105080000027002F00DD7F1E002F00DA7F1C780034
:10509000E249C861E149C86905F01CF8DF490862C6
:1050A0000846806F02280ED10846006B20B9DB4A03
:1050B000316CD06906F063F8DC480068012121EA10
:1050C0005020D649C862D549C86A08F010FDD349B6
:1050D00048620846406A10B3D548C06AC0F34040F1
:1050E00010B9D3480069D0B10320D249086002202A
:1050F000CF494861002008610846C06A20F01000CE
:10510000C8620846C06A20F020002030C86205202E
:10511000C849486003F09DF90020C0494862BF4B70
:105120009B6A0BB1012300E000231A46BB4BD969EF
:10513000586A343308F099FEB8490863086B09F0DF
:1051400008FABD480069012121EA1020B3494865E9
:10515000486DFEF7F7FAB14988620846006B0028EF
:1051600076D10846406B002872D00120019008E2F9
:10517000AA48406B01990840402832D00CDC08282E
:1051800026D004DC01287CD002287BD110E0102836
:1051900046D02028F9D15CE0802874D0B0F5807F1B
:1051A00020D0B0F5007F32D0B0F5806FEDD10EE0A9
:1051B0007F21F06D90FBF1F0A049486798480068A6
:1051C000022803D140F22250FBF762F9D5E100BF7B
:1051D00093480068022803D140F22250FBF758F9A7
:1051E000CBE1CAE1964890ED340A9648D0ED050A25
:1051F00020EE200ABDEEC00A86ED090A8848006844
:10520000022803D14FF48360FBF742F9B5E18448EB
:105210000068022803D140F22B50FBF739F9ACE1CA
:105220008348808DC0F3403088B9E06A20F4804024
:10523000E062E06A20F008000830E062E06A20F4F2
:10524000005000F50050E062002005F055F894E1B0
:105250009EE17748808DC0F34030F8B103F0F9F853
:10526000E06A20F01000E062E06A20F020002030C8
:10527000E06205206860E06A20F48040E062E06A55
:1052800002E017E078E10AE020F00800E062E06A5E
:1052900020F40050E062012005F02EF86DE16A492B
:1052A000486CFEF7DBFA02F0FDFA6748406C65498E
:1052B000C86062E15E48808DC0F34030002843D072
:1052C0005B48808DC0F3C030F0B35F48406C7028FD
:1052D0007DD15B4890ED34AA90ED340A5948D0ED69
:1052E000050A20EE200AF0EE409A5548D0ED358AA6
:1052F0003AEE688A18EE100A0FF016FE41EC1C0B0D
:10530000B0EE4C0AF0EE6C0A0EF096FBB0EE40BA2E
:10531000F0EE60BA51EC1B0B0FF0DEF809EE900ACC
:10532000484890ED050A60EE08AA9FED480AF4EEA1
:10533000C09AF1EE10FA3BDDB5EEC08AF1EE10FA3C
:105340001BDD90ED050A00E0A1E0DFED410A20EE53
:10535000200AF0EE409AD0ED050AB0EE690A18EE88
:10536000200AB0EE40DA324890ED000AB8EEC00AEA
:1053700030EE0D0AB0EE409A23E0324890ED050A77
:10538000DFED330A20EE200AF0EE409AD0ED050A58
:10539000B0EE690A08EE200AB0EE40DA244890ED3B
:1053A000000AB8EEC00A30EE0D0AB0EE409A08E0EE
:1053B0001F4890ED000AB8EEC00A30EE2A0AB0EE9F
:1053C000409ABDEEC90A8DED030A0EE0FFE71C48C6
:1053D00090ED340A1B48D0ED050A20EE200AB0EE0D
:1053E000409ABDEEC90A8DED030AE06A20F4003050
:1053F00000F50030E062E06A20F40010E062E06A4C
:1054000020F00200E062012068600398A860A868AC
:10541000216888421EDA706C1DE00000A45B002049
:10542000205C0020446E0108545E002010080240F9
:10543000C4070020305E002000000240B0060020BB
:10544000B45A0020B05C0020345C002000003443DB
:105450000000B4430020E860B068286130696861EA
:10546000B069A861F069286294F82C00C0F3C010FC
:1054700028B1E06A20F010001030E06203E0E06A3A
:1054800020F01000E0627F49C86D03F09CFF7E4869
:10549000808DC0F3C030E8BB7C48006C02280FD17F
:1054A00018EE900A0FF040FD41EC1B0B842053ECEA
:1054B0001B2B77A100904FF47A7009F00FFE5AE091
:1054C0007248406C732803D07048006C722845D134
:1054D000754890ED340A7548D0ED050A20EE200A93
:1054E000B0EE409ABDEEC90A8DED030AE06A20F4E1
:1054F000003000F50030E062E06A20F40010E06265
:10550000E06A20F00200E062012068600398A86071
:10551000A86800E02FE02168884201DA706C00E0A2
:105520000020E860B068286130696861B069A861EE
:10553000F069286294F82C00C0F3C01028B1E06A2A
:1055400020F010001030E06203E0E06A20F010006C
:10555000E0624C49C86D03F036FF0CE018EE900A8B
:105560000FF0E2FC41EC1B0B53EC1B2B50A14FF452
:105570007A7009F0B3FD00E000BF00BF0198400061
:105580000190019800287FF4F3AD3E49486300BFC5
:105590003C48806A012819D14B4800F0E7FC022002
:1055A000FAF776FF02F055FF052068603648C06ABA
:1055B00020F010003449C8620846C06A20F020007C
:1055C000C8620846C06A20F08000C8622D48406862
:1055D00000280EDD2B4801794068401E294A5060A2
:1055E00001F0040018B10AF02AFB02E048E00AF0DA
:1055F0002BFB00BFA08DC0F3403018B105F0B1FC0B
:1056000005F03CFA314840683049C1F8A00004F088
:1056100072F82F48C06A01281BD12D48006B2B4916
:10562000D1F8A010884205DB2948006B274949685A
:1056300088420CDD2648006B2449D1F8A01088422E
:1056400007DC2348006B21494968884201DB08F0E8
:10565000B6F807F0A8FD07F0B0FD07F0B5FE002092
:105660000849086404F0C7F90648006C012803D112
:105670000449486CFDF765F904F0CBFE04F091FE97
:10568000FFF7C1BBA45B0020C4070020345C0020EE
:10569000417420252E346625630A486F6D652053BA
:1056A0007461676520200000B45A0020B05C0020BF
:1056B000417420252B2E3466206D6D0A486F6D6570
:1056C0002053746167650000503A0008B00600205E
:1056D000C4020020864A126842F48022844B1A6079
:1056E000834A103A1268834B1A43814B103B1A606D
:1056F000814A126822F480127F4B1A601A4612689F
:1057000042F400121A601A1D126822F480621B1DF6
:105710001A60794A0C32126822F44012764B0C332C
:105720001A601A1F126822F440121B1F1A60724A74
:10573000526A22F4706242F4E0636F4A5362126864
:1057400022F480026C4B1A601A46126842F400027E
:105750001A60694A0C32126822F44002664B0C331C
:105760001A60654A526A22F4704242F4E043624A87
:1057700053626249881040F26D12614B1A80002218
:105780005F4B08331A801B1D1A805D4A121D128858
:1057900042F400525A4B1B1D1A80594A0C3212888F
:1057A00042F0C002564B0C331A80564A926D22F0DA
:1057B0000102544B9A6500E000BF524A926D02F01C
:1057C0000102002AF8D14F4A926D22F060624D4BDF
:1057D0009A651A46926D42F000629A651A46926D79
:1057E00042F488629A65464A121F1A660022DA65F8
:1057F0001A46926A22F001029A6200E000BF414A12
:10580000926A02F00102002AF8D13E4A926A22F01E
:1058100060623C4B9A621A46926A42F000629A6257
:105820001A46926A42F4A0629A62354A121F1A63BB
:10583000354A5A631A15DA62314A083A128822F058
:1058400040022F4B083B1A802D4A121D128842F04D
:105850000C022B4B1B1D1A802A4A926A42F001024D
:10586000284B9A6270472749C96AC1F58061274A67
:105870001268914202D14FF6FF700FE023490A6887
:105880000968491C214B19601F49885C1946096841
:10589000B1F5806F02D100211A4611607047194A94
:1058A000926D22F00102174B9A6500E000BF154A85
:1058B000926D02F00102002AF8D1124A5066D165B9
:1058C0000F4A083A128822F040020D4B083B1A801A
:1058D0004FF000620B4B9A601A46926D42F0010243
:1058E0009A65704706480838008800F04000704705
:1058F000403802400200200000040240007A030AFF
:105900000848004000600240B40800206400002005
:1059100010B14FF4004101E04FF00041FE4A116028
:10592000704708B1042101E04FF48021FB4A116067
:10593000704708B1082101E04FF40021F84A916155
:105940007047012800D102E0022800D1002008B1F0
:10595000042101E04FF48021F24A116068B9EE4958
:105960001839096841F00401EB4A183A11601146F0
:10597000096821F00801116014E0E7491839096845
:1059800021F00C01E44A183A1160E3490C39096826
:1059900021F00401E04A0C3A11601146096821F037
:1059A000080111607047012800D102E0022800D1EF
:1059B000002010B14FF4004101E04FF00041D94AFE
:1059C000116058B9D649096841F00401D44A116000
:1059D0001146096821F0080111600FE0D0490968FB
:1059E00021F00C01CE4A11601146C96821F0040172
:1059F000D1601146C96821F00801D1607047CA48DA
:105A0000006840F00100C8490860C548006820F0FF
:105A10000300C34908600846C06820F00100C86060
:105A20000846C06820F00200C8600846006820F000
:105A30000C0008600846C06820F00400C8600846F2
:105A4000C06820F00800C8600846006840F4A870EC
:105A500008600846006820F42870086008468069DD
:105A600040F0100088610846006820F4403008606B
:105A70000846C06820F48030C8600846C06820F43A
:105A80000030C8600846006820F0404008600846C2
:105A9000C06820F08040C8600846C06820F0004020
:105AA000C860A148006840F002009F4908609A4819
:105AB0001838006840F01100974918390860084606
:105AC000006820F0220008609348006840F48030AD
:105AD000914908600846006840F4802008608E48BC
