:020000040800F2
:10000000C8EC01201503000833030008373C000842
:1000100037030008390300083B0300080000000014
:100020000000000000000000000000003D03000888
:100030005703000800000000293C00085B0300088B
:100040005D0300085D0300085D0300085D03000810
:100050005D0300085D0300085D0300085D03000800
:100060005D0300085D0300085D0300085D030008F0
:100070005D0300085D0300085D0300085D030008E0
:100080005D0300085D03000813390008D341000830
:10009000154100085D0300085D0300085D030008CA
:1000A0005D0300085D0300085D0300085D030008B0
:1000B0005D0300085D0300085D0300085D030008A0
:1000C0005D0300085D0300085D0300085D03000890
:1000D0005D0300085D0300085D0300085D03000880
:1000E0005D0300085D0300085D0300085D03000870
:1000F0005D0300085D0300085D0300085D03000860
:100100005D0300085D0300085D0300085D0300084F
:100110005D0300085D0300085D0300085D0300083F
:100120005D0300085D0300085D0300085D0300082F
:100130005D0300085D0300085D0300085D0300081F
:100140005D0300085D0300085D0300085D0300080F
:100150005D0300085D0300085D0300085D030008FF
:100160005D0300085D0300085D0300085D030008EF
:100170005D0300085D0300085D0300085D030008DF
:100180005D0300085D03000800F002F800F0B2F81B
:100190000AA090E8000C82448344AAF10107DA45E2
:1001A00001D100F0A7F8AFF2090EBAE80F0013F082
:1001B000010F18BFFB1A43F00103184780B4000079
:1001C000A0B400000A444FF0000C10F8013B13F0FB
:1001D000070408BF10F8014B1D1108BF10F8015BA0
:1001E000641E05D010F8016B641E01F8016BF9D193
:1001F00013F0080F1EBF10F8014BAD1C0C1B09D1EA
:100200006D1E58BF01F801CBFAD505E014F8016B5B
:1002100001F8016B6D1EF9D59142D6D370470000ED
:100220000023002400250026103A28BF78C1FBD8FF
:10023000520728BF30C148BF0B6070476E2907F0D6
:100240008984702907F0D984662909F00F8365290C
:1002500009F00C83672909F009836129AFF3008055
:1002600003681B0A28BF41F08001692907F0368422
:10027000642907F03384752907F030846F2908F06A
:10028000B382782907F0A584E92908F04D82E42992
:1002900008F04A82F52908F04782EF2908F0B08279
:1002A000F82907F0A4840368DB0928BF41F0800126
:1002B000632908F0CE81732908F0D381E32908F07F
:1002C000BB83F32908F0C083002070471FB509F0F5
:1002D000C8FA08F015FB04000020002109F034FAE8
:1002E000401C60600020002109F018FAE0601FBD8A
:1002F00010B510BD08F0F8FD1146FFF7E7FF01F05B
:100300003DFD08F01FFE03B4FFF7F2FF03BC08F049
:1003100023FE000015481649026800608A4203D097
:1003200014488047144800471448D0F800D040686B
:100330000047FEE7FEE7FEE7FEE7FEE71EF0040FDC
:100340000CBFEFF30880EFF30980806910F8020C0E
:1003500003F070BCFEE7FEE7FEE7FEE7FEE7000005
:1003600007480849084A094B70470000F01F002061
:10037000EFBEADDE9D100008890100080000FF1FE0
:10038000C8E60120C8EC0120C8E80120C8E8012027
:100390003B48016841F0040141F4800101603948A3
:1003A000016840F23F3211430160374801689143D0
:1003B00001603648016841F4807101603448D0F82A
:1003C000041341F48031C0F8041340F2033181601A
:1003D00044F23611C16044F22611C160C16A21F4B1
:1003E0007001C162C16A41F44011C162294941638F
:1003F00029490A6822F001020A600A6812F0010F16
:1004000003D00A6812F0010FFBD10A6822F0606283
:100410000A600A6842F450620A60214B1F4A1A605F
:100420001B1D204A1A60204B04221A60426842F4C5
:1004300080724260426822F000724260426822F09C
:10044000807242600A6842F001020A60816841F0ED
:1004500080418160016821F002010160416841F042
:10046000200141601149102081F800044FF0E02183
:100470008003C1F8000170470A4931F81000704745
:1004800030380240000802400C0802404438024064
:10049000002001406A310700706402404C20014096
:1004A00078640240A40200207464024012E000E07C
:1004B0002DE9F001DD48016841F0010101600168AA
:1004C00041F002010160016841F004010160D84877
:1004D000016821F00C010160C16821F00C01C160CC
:1004E0004FF480218161026842F0100202600268CC
:1004F00022F020020260826862F030028260820094
:100500008261026842F040020260026822F08002CA
:100510000260826862F0C0028260402787610268E0
:1005200042F480520260026822F400520260826843
:1005300042F44052826082158261026842F4803245
:100540000260026822F400320260826842F44032A3
:100550008260B84E0A113260B74A136843F0805384
:100560001360136823F000531360B44C236843F006
:1005700040532360136823F00C03136004F1040C50
:10058000DCF8003023F00C03CCF800303160116847
:1005900041F010011160116821F020011160216803
:1005A00021F030012160116821F470711160DCF8D4
:1005B000001021F47071CCF80010A14DC101296028
:1005C000A0490B6843F480330B600B6823F40033BD
:1005D0000B609D4BD3F8008028F44038C3F80080AE
:1005E0004FF08008C5F80080D1F8008048F48048BA
:1005F000C1F80080D1F8008028F40048C1F80080DC
:10060000D3F8008028F44048C3F800804FF0080871
:10061000C5F80080D1F8008048F04008C1F800809B
:10062000D1F8008028F08008C1F80080D3F800805D
:1006300028F0C008C3F800802F600F6847F4805787
:100640000F600F6827F400570F601F6827F44057AA
:100650001F60176827F440771760DCF8007027F4F4
:100660004077CCF8007047152F600F6847F480275B
:100670000F600F6827F400270F601F6827F44027DA
:100680001F60176827F0C0071760DCF8007027F0BC
:10069000C007CCF80070176827F040471760DCF8F7
:1006A000007027F04047CCF80070176827F04067CB
:1006B0001760DCF8007027F04067CCF80070D1F8C4
:1006C00000C02CF4406CC1F800C003F1040CDCF84D
:1006D000007027F44067CCF800700F6827F040578F
:1006E0000F60DCF8007027F08057CCF80070DCF861
:1006F000007047F00057CCF800704FF4004CC5F87C
:1007000000C00D6845F080450D600D6825F000457E
:100710000D60196821F040411960C0F818C00168E7
:1007200041F080410160016821F000410160816871
:1007300021F04041816020203060106840F48060EA
:100740001060106820F400601060206820F44060A1
:100750002060BDE8F0017047002814BF40204FF42E
:10076000800033498861704770473348016821F041
:100770000C0101602F4920200860BFF35F8F3348D0
:100780000068C0F3400070472A490A6842F400122A
:100790000A60002814BF02204FF400300860264889
:1007A000016841F004010160704725490A6842F080
:1007B00000420A60002814BF02204FF400301C4998
:1007C0008861086840F004000860704718480168B4
:1007D00021F00C0101601A4A4FF400411160BFF38F
:1007E0005F8F0069C0F3400070471648016821F42C
:1007F000405101601648016821F440510160704782
:100800000F49402008600F48026842F4805202609D
:10081000026822F4005202600B48026822F440523F
:1008200002604FF4800008607047000030380240DA
:100830000000024018040240000402400804024084
:100840001808024000080240080802401004024054
:100850000C0802402DE9F0410446D0F800010125C2
:10086000324E022816BF02204FF6FF77BDE8F08116
:1008700026E0B1686054481CB060062812D1217986
:1008800011F0800218BFA278921D01F07F01F26082
:10089000502904BF6179012901D1802A02D9902011
:1008A000BDE8F081F168884206D10020B0600120E7
:1008B0000325C4F8000107E0D4F80001012803D0A3
:1008C00000F0D5F9B842D4D12846BDE8F081DFF870
:1008D0005CC0D0F80032DCE9001211441A44CCF8B4
:1008E00004205A1E38BF704710F8013B01F8013B45
:1008F000521EF9D2704710B50C4C6068002808BF32
:1009000010BD00F0E8F9002808BF10BDD4E90001CF
:1009100000F0C2F90648216881420CBF00F5007062
:10092000034820600020606010BD0000040100202A
:10093000AC0600206748016841F4802101606648E8
:10094000016841F0020141F400110160634801684F
:1009500021F480110160016841F400110160011D62
:100960000A6822F480620A605D490A6822F4401233
:100970000A600A1F136823F440131360594A13686E
:1009800023F4706343F4E0631360036823F480038B
:100990000360036843F400030360086820F4400028
:1009A0000860106820F4704040F4E04010604E4948
:1009B00040F26D1008804D4800230380001D038025
:1009C0000A1D118841F400511180018841F0C001D5
:1009D00001804748816D21F001018165816D11F031
:1009E000010F03D0816D11F0010FFBD1816D21F05A
:1009F00060618165816D41F000618165816D41F4C7
:100A000088618165DFF8ECC0C0F860C0C365816AA9
:100A100021F001018162816A11F0010F03D0816A26
:100A200011F0010FFBD1816A21F060618162816A5E
:100A300041F000618162816A41F4A0618162C0F885
:100A400030C02D4941634FF40061C1622B490B88CE
:100A500023F040030B80118841F00C011180816A62
:100A600041F00101816270472148C06A244AC0F503
:100A700000601168884204BF4FF6FF7070471E483F
:100A8000405C491C1160B1F5006F04BF002111608A
:100A90007047174A936D23F001039365936D13F02C
:100AA000010F03D0936D13F0010FFBD15066D16598
:100AB0001248018821F0400101804FF000609060F1
:100AC000906D40F00100906570470C48008800F080
:100AD0004000704740380240303802400004024075
:100AE0000C04024024040240084800401048004022
:100AF0000060024004480040AC0A0020004800406A
:100B0000140100207648016841F010010160754829
:100B1000016841F0010141F48001016072480168FF
:100B200021F480210160016841F4002101604168E5
:100B300021F400714160C16821F44021C1608168E5
:100B400021F440218160416A21F0F00141F07001FF
:100B50004162016821F480110160016841F40011D3
:100B60000160C16821F40011C160C16841F48011C5
:100B7000C160416A21F4706141F4E0614162C102E7
:100B80008161016841F080710160016821F00071AC
:100B90000160816841F040718160016821F4400189
:100BA0000160C16821F40001C160C16841F48001A5
:100BB000C1604E4A40F2D9201081002313829382F3
:100BC000908940F400509081908A40F0C00090825B
:100BD0004748016821F001010160016811F0010F2F
:100BE00003D0016811F0010FFBD1016821F06061B1
:100BF0000160016841F000610160016841F48861B1
:100C000001603D48DFF8ECC0C0F800C0001F036081
:100C10003A48016821F001010160016811F0010FFB
:100C200003D0016811F0010FFBD1016821F0606170
:100C30000160016841F000610160016841F4A06158
:100C400001602F49C1F800C02F4B2E49196099153A
:100C50002E4B1960118821F040011180918941F0DB
:100C60000C019181016841F0010101607047274842
:100C70000068274AC0F580701168884204BF4FF6AB
:100C8000FF7070471F48405C491C1160B1F5807FC0
:100C900004BF002111607047154A136823F0010357
:100CA0001360136813F0010F03D0136813F0010FE2
:100CB000FBD1184B1860184801600C48018821F0DE
:100CC0004001018015494FF000600860106840F055
:100CD0000100106070470548008800F04000704730
:100CE0004438024030380240000002400010014009
:100CF000B864024004100140C064024040640240F5
:100D000048640240AC1200204C640240446402403B
:100D100018010020C4640240BC6402400C6402401C
:100D2000B948016841F400310160B849A7220A803E
:100D3000B74A40F2E7311160B64A49101160B6492E
:100D40000A8842F001020A80B4490A8842F060022F
:100D50000A80091F0A8842F001020A80B0490A8805
:100D600042F001020A80016841F480310160AD481F
:100D700020210181018941F00701018100210185C4
:100D80004FF6FF71C162018841F001010180704797
:100D9000A448406A80B27047401A80B27047A248A7
:100DA000016841F010010160A048532101854FF610
:100DB000FF714162C162018841F008010180018830
:100DC00041F0010101807047974B186840F008001E
:100DD00018609748016841F008010160016811F04E
:100DE000080F03D1016811F0080FFBD0016821F052
:100DF000080101608F4800210180001F01608E4AB8
:100E0000106840F0010010608C48D0F800C02CF051
:100E1000010CC0F800C0D0F800C04CF0020CC0F8C3
:100E200000C0D0F820C02CF00F0C4CF0020CC0F821
:100E300020C0DFF80CC2481ECCF80000DFF804C266
:100E40005720ACF800008048B0F800C04CF0010C0E
:100E5000A0F800C0001FB0F800C04CF0010CA0F8D2
:100E600000C07A48B0F800C04CF0010CA0F800C0F7
:100E7000186840F00200186075480180001F01608A
:100E8000106840F0020010607248016821F0010112
:100E90000160016841F0020101606F48016821F0C2
:100EA0000F0141F002010160016821F0F00141F001
:100EB00020010160694941F26700086041106848FB
:100EC0000160006867490860674947F27000088060
:100ED000081D018841F4807101806448018841F057
:100EE0000101018070474F4B596A5A6A89B2521A00
:100EF00092B2824228BF70475A6A521A92B2824214
:100F0000FAD370475A4948434FF47A71B0FBF1F075
:100F1000B0F1807F24BF012070474FF0E0210A69C3
:100F200042F001020A614861002070474FF0E02062
:100F3000006900F48030704778B44E4BDFF838C158
:100F40001C1D38B94D48006800901868CCF80000A6
:100F5000206800903448016841F0805101604848A1
:100F6000016841F4807101604648016841F48031B4
:100F70000160016821F480310160016841F4407131
:100F80000160016841F4004101603F4ACA201060DD
:100F9000532010603D48016841F080010160016804
:100FA00011F0400F03D1016811F0400FFBD0384918
:100FB0000D6842F20F766FF30E0535430D600D6834
:100FC00025F4FE0545F4C6050D60DCF80010196037
:100FD00030492160016821F080010160016811F051
:100FE000800F03D0016811F0800FFBD1FF21116049
:100FF000016821F02001016078BC70472649084053
:101000001D490860704700004438024028440140F0
:101010002C44014034440140204401401844014024
:1010200000440140004001404038024000100040B0
:1010300020380240280C00403038024000000240B6
:101040002C0C0040080C0040180C0040000C004024
:101050002804004000040240200402402C04004008
:101060003C040040400400401C04004014040040C4
:10107000406F4001002800401C010020282800404B
:101080000070004070380240242800400C280040C6
:1010900010280040024413007F7F3F004B48016846
:1010A00041F4700101604A4B186840F0010018607B
:1010B0004849002008601A6822F4102222F0807249
:1010C0001A60A1F1040C444ACCF800201A6822F4FA
:1010D00080221A600A1D10601A6842F480321A6079
:1010E0001A6800F1010012F4003F02D1B0F5705F00
:1010F000F6D11868C0F34040002861D03748026834
:1011000042F0805202603648026842F48042026037
:10111000344840F20562026008680860086840F4DC
:1011200000400860086840F4A0500860086820F497
:10113000F81040F440200860086820F07C500860F7
:10114000086840F080600860086840F060500860FF
:10115000086820F040400860086840F0804008605F
:101160002148CCF80000186840F0807018601868BA
:1011700010F0007F03D1186810F0007FFBD00868E2
:1011800020F003000860086840F00200086008686A
:1011900000F00C00082804D0086800F00C000828B3
:1011A000FAD1134911480860186840F0806018604F
:1011B000186810F0006F03D1186810F0006FFBD0B2
:1011C0000C494FF0006008607047000088ED00E0B7
:1011D00000380240083802401030002440380240F5
:1011E00000700040003C02400C544007004000509A
:1011F0008438024008ED00E030B40188FE4B002442
:10120000FE4A4FF0010C0B295AD013DC4FF0030CAF
:1012100001291ED0042904BF30BC704705291CBF1A
:1012200030BC70474088986282F85800C3F83CC0D0
:1012300030BC70470D296BD010295BD014291CBF1E
:1012400030BC70474088C3F86001508430BC04F063
:10125000E8BDC3F83CC0B2F92010DFEDE90A01296E
:1012600012D002291CBF30BC7047408800EE100A23
:10127000B8EE401A81EE200ADFEDE20A20EE200AE5
:1012800083ED4A0A30BC70474088DF4900EE100AFF
:1012900092F85000B8EE401A01EB800081EE200A6F
:1012A000D0ED000A9FEDD91A60EE810A20EE800A87
:1012B000D2ED150A20EE800A83ED490A30BC704752
:1012C0004188C3F860118088C3F86401022808BF10
:1012D00082F85CC003D0032818BF82F85C40642009
:1012E0004843CB49A1FB0010C00900B2508430BC78
:1012F00004F097BD418851628188D162C1885163F1
:1013000001899162418911638089906330BC704783
:101310009C64C188012914BF82F8594082F859C0E1
:101320008378BC490B70C3784B7003798B70437919
:10133000CB7091ED000A82ED150A008901280CBFDF
:1013400082F85AC082F85A4030BC704770B400220C
:10135000A94BDFF8A8C214460A2976D008DC012977
:1013600011D0042945D0052959D007295CD0C0E007
:10137000022601250B2967D00D297DD010297CD0AC
:1013800014297BD0B5E00180BCF9201004229FED28
:101390009C1A012902D0022917D01EE0D3ED490A78
:1013A000DCED151A9CF85010DFF85CC280EEA10A43
:1013B0000CEB8101D1ED001AC0EE210A9FED930ADA
:1013C00020EE800A20EE010A07E093ED4A0ADFEDE5
:1013D0008D1AC0EE210A20EE810AF6EE000A30EEE8
:1013E000200ABDEEC00A10EE101AC3F85C1141804D
:1013F0007FE0BCF82020022A08BFC3F838410C2245
:101400000180D3F830110029B8BF49424180B3F8B8
:1014100038118180B3F83C11C180448169E00180BA
:1014200004229CF85810E2E7018093F85410817070
:10143000B3F854100A22090AC170596D0B0C0371DC
:10144000090E417155E000E01DE00180DCF81C1040
:101450004FF0FA0C01FB0CF147F6FF7C91FBFCF11D
:10146000DFF8B4C1C1EBC1318CFB01C14FEAA11C53
:101470000422ACEBE17102E03EE01DE031E0C3F894
:10148000E810418035E09CF85C20012A14BFDD6241
:10149000DE6208220180BCF92210DFF880C1C1EBB6
:1014A00001218CFB01C14FEA611CACEBE171418071
:1014B000998D8180C4801CE00180BCF8241041809B
:1014C000BCF82C108180BCF83410C180BCF8281006
:1014D0000181BCF830104181BCF838100E228181A6
:1014E00007E00180BCF8221041808480C4800A2279
:1014F000048170BC10467047018046499CED150A76
:101500000A2281ED000A0B7883704B78C3708B78C8
:101510000371C97841719CF85910012914BFC68024
:10152000C5809CF85A1001290CBF05810481E0E7B1
:101530002DE9F05F3A4F00231446B7F90050844676
:101540001E469846002D1CBFABB2A7F800800BD1F9
:10155000BCF1000F1CBFBCF80030821D04D119B1D2
:101560000B88002002469BB284F803800127277174
:1015700050276771A51D40F6010B1F4FDFF87C90C7
:10158000A3F6010A4FF0320EC4F800825B457CD00E
:1015900057DC40F2132AA3F2132C534576D019DC02
:1015A0004FF08100122B72D007DC022B70D0052B7C
:1015B0005AD0112B6DD000F0C8BADFF868C0142BD8
:1015C00000F03E81152B00F0AB81812B00F02181D2
:1015D00000F0BBBABCF13E0F00F0A48224DCBCF1E9
:1015E000010F75D0BCF1100F74D0BCF13D0F04BFDA
:1015F000C078387000F0A9BA200100200C3E01200C
:1016000000FEFF46000066437098000800007A4420
:101610008180808030020020B71A3C471F85EB5143
:10162000D0020020AC130020ACF58060733800F0CD
:101630006082B0F5BD7F04BF1046FFF7DDFD00F00E
:1016400084BAAAF10F01182980F07F82DFE801F047
:101650009B767AF7F6F5F4F3F2F1F0EFF1F1F1F1B0
:10166000F1F1F1F1F16BF1AC062222805422A2706B
:101670002071FB49284606F0C3FCD9F80000286019
:10168000312085F84200302104E05FE090E031E055
:1016900037E024E085F84310332185F844103721E2
:1016A00085F8451085F84600342085F8470041202C
:1016B00085F84800702085F84900722085F84A00B6
:1016C000E848012685F84B800221416300F034BAD6
:1016D00092E0FFE7E3484021816200F036BAE1483A
:1016E000816BC0F82C8041F001018163C7F820E0D4
:1016F00000F02BBADB48816B21F00101816300F01F
:1017000024BAD8480029C0F83480826B22F0010244
:10171000826300F01A820220208084F8028084F81C
:10172000038000F02AB9CF48C7F820E0816B41F070
:10173000010181630F20F86100F007BA012078638E
:1017400000F003BAC7F8488000F0FFB9C64BB3F900
:101750000020002A1CBF91B2A3F800800CD02846BC
:10176000FFF7F4FD40F602022280A070207940F0DD
:101770008001217100F001B9BCF1000F14BF807825
:10178000486881B2EBE70320B871B848C7F8F88021
:10179000C9F80800012660220021B54802F054F97A
:1017A0000120B87100F0C8B9C7F820E000F0CDB949
:1017B000AC4C8278A16B62F34101A163807810F098
:1017C000020F14BF41F0040021F00400A063D9F817
:1017D00024100A2904BFC0F34000FEF7E6FFD9F841
:1017E00028000A2840F0B18194F83800C0F3800046
:1017F000FEF7CAFF00F0A9B99A4840F215212180EE
:10180000008F0221C0F3400201EA50001118A170BC
:10181000B3E020804423A3702071A5F8008088885D
:1018200068808A6893A1281D06F0F2F8A5E03DE1E2
:1018300043E1F1E0F1E0B1E0A1E07CE153E138E126
:101840001368CCF800305068CCF804009168CCF8EC
:101850000810B3F5C87F11D0A3F58074913C3CD03B
:10186000042C00F07281C9F80030C9E90301107E30
:1018700000F0030089F8500000F067B9A1F5E062BC
:10188000C53A40F06281002808BF012104D0002140
:10189000022808BF012200D00022114300F0558128
:1018A00072B677490A6822F480020A600A6822F454
:1018B00000120A607349022806BF73480860C1F825
:1018C0000080BFF34F8F71480168714A01F4E061F5
:1018D00011430160BFF34F8FFEE7B0F1553F06D0D3
:1018E000CCF80080CCF80480CCF808802DE10229E7
:1018F00014BF01200220C7F8F880C7F8CC000320ED
:10190000B87197F8CC0089F85B005848C9F808000E
:1019100060220021564802F097F80120B87114E1C6
:10192000162222802822A2702071002045F82080F3
:10193000401C0A28FADBDCF8001040F295108142C6
:1019400004D1286099F85B00A86014E0D9F8000081
:101950002860D9F80C006860D9F81000A860D7F8A2
:101960004401E860D7F840012861D7F84801686170
:1019700099F85000A861CCF800800126DCE081785D
:10198000022918BF87F8058046D101217971C078F6
:10199000022808BFB9647FF4D5AED6E07979012971
:1019A0003AD10221A9F82010817800EE101AB8EE81
:1019B000400A5FEDEC0A9FED371A20EE200AC0EED8
:1019C000010AB6EE001A30EE810A5FEDF30ADFED90
:1019D000321A60EE200A30EE010A80EEA12ABDEE36
:1019E000C00AB8EEC00AFDEEC20AC9ED070A87EDCB
:1019F0004A0AB96C29B99FED290A87ED4A0A87ED91
:101A0000490AC178042908BF89F85980C078082894
:101A100004BF012089F8590097E01921217008219D
:101A2000617099ED070ADFED1E0A9FED1E1AB8EEF0
:101A3000C00A60EE200A80EE810A9FED1B1AC0EEFC
:101A4000010ABDEEE00A10EE100AC7F8EC00FF280C
:101A5000C4BFFF20C7F8EC0097F8EC00A0708CE73B
:101A6000889B00086C3E0120D20200200C0002007E
:101A70000C3E0120252D36332E3633730000000036
:101A800030380240F01F0020EFBEADDE0CED00E06C
:101A90000400FA0500007F4300007A4300000000C4
:101AA0000006794700FEFF46000066438078022862
:101AB0004BD10220A9F8200047E0807810B102281D
:101AC00008D042E00120387287F80280787087F8E9
:101AD00003803AE087F8088087F802800120787058
:101AE00087F8038031E00120A9F82000C7F848807A
:101AF0002BE04B20A9F822006FF00301A9F8041095
:101B000004F08FF989F85A8089F85C80B879032845
:101B10001BD1FE48C9F8080060220021FC4801F0F2
:101B200093FF12E040F2522222808178A17039782E
:101B3000E170012600E046B1207910F0800F1ABF55
:101B4000A078801D0620C4F800023046BDE8F09F52
:101B50000FB4002200B583B0EEA3BDF81000CDE9AC
:101B6000000205A90293812812D0A0F50062023A72
:101B700004BF08680190E84A69460020FFF7D8FCD6
:101B8000012804BFE448FEF7A2FE03B05DF814FB91
:101B9000DDE905010092E14A136B8342EBD0B0F519
:101BA000004F03D081230093CDE901011063E2E7E8
:101BB0002DE9F041DA4C00270326D4F8C820012192
:101BC000D84D052A4ED2DFE802F003082742510023
:101BD000002808BFC4F8C81044E0A764A1714FF4FE
:101BE000004004F082F84FF480202860C84DAE8099
:101BF000A671C4F8F870FFF7CBF8E0810220C4F8B2
:101C0000C800A07903282DD1C048A8606022002117
:101C1000284601F019FF25E0002818BFC4F8C87055
:101C200020D1FFF7B5F8E189FFF7B6F8B0F5FA6F04
:101C300018D90220FFF78CFFB848816B21F0010111
:101C400081630020C4F8C86004F0EBF80AE0FFF7F5
:101C50009FF8E189FFF7A0F8B0F57A6F84BF042000
:101C6000C4F8C800D4F8C800BDE8F08140F6B83028
:101C7000FFF739F94FF080442C60FEF7B6FD20885D
:101C800020F001002080A848816A21F001018162D2
:101C9000816A11F0010F03D0816A11F0010FFBD1AD
:101CA000816D21F001018165816D11F0010F03D07B
:101CB000816D11F0010FFBD19C48016821F00101F9
:101CC0000160016811F0010F03D0016811F0010FEC
:101CD000FBD19748016821F001010160016811F012
:101CE000010F03D0016811F0010FFBD19148016889
:101CF00021F001010160016811F0010F03D00168BA
:101D000011F0010FFBD18C48016821F480010160C2
:101D1000016821F40011016072B68848016821F061
:101D2000F0010160016841F0F0010160016821F0FB
:101D300003010160016841F001010160016801F0E7
:101D40000C01042904D0016801F00C010429FAD126
:101D50007B48016821F0807101607A48016811F4C4
:101D6000004FFBD0BFF34F8F77480168774A01F4EB
:101D7000E06111430160BFF34F8FFEE72DED068B4D
:101D800082B00027FEF794FBDFF8B8B1DBF8000063
:101D9000DBF80010000940EAD10010F0010F08BF85
:101DA00001274FF4802ADFF87C81C8F800A007F0F3
:101DB00058FD6148016841F0010101606448016813
:101DC00041F0005101606348016841F440710160D5
:101DD000C16821F44071C1605F48016841F00101B0
:101DE00001605E49002008604806C8F80000FEF760
:101DF00097FF6420FFF786F8FEF7D1FFFEF7E4FFB8
:101E00000020FFF7FBF80120FFF796F8FEF77AFEB7
:101E1000FEF790FD02F07CF801F0A8FFFEF7E5FC6C
:101E2000DFF8FC900125E80389F8065003F05DFF18
:101E3000002489F80840DBF8000010F4004FFAD0C5
:101E4000032089F806000A20FFF74DF835484FF4C3
:101E5000804101600023602219462D4801F0B6FD43
:101E60004FF0E02189F806504FF48020C1F880013E
:101E7000C1F80001FEF78CFADFF894803849D8F8F1
:101E8000000090FBF1F062281CBF3648C8F8000043
:101E900098F85B00022818BF88F85B5098F85B0040
:101EA000C9F8CC0002F00EFA3220FFF71CF81B48EC
:101EB0004FF0000A816B21F00101816340F65C3034
:101EC000C9E941400620FFF70EF80120FEF7D4FAD9
:101ED000D9F804110AF1010A0844C9F80401BAF159
:101EE000100FEFDB001147F6407AC9F804015046A5
:101EF00003F0FBFE0220FEF7F6FF0020FEF7BCFA1F
:101F000040F65B31884235D22EE000000C00020022
:101F10000C3E012000000000A80400206C3E0120BF
:101F2000200100201804024000600240406402408A
:101F300088640240B86402403038024008380240E9
:101F400000380240100402400CED00E00400FA05E5
:101F500040380240000002400074004020740040FD
:101F600040420F00805CD70548F2C0000AF1010A28
:101F70008245BCDBC8F83CA0002F00F0AC83F9A080
:101F800001F06EFE6FF00300A8F80400DBF800001B
:101F900010F0100FFAD00320FEF76EFAA0F5706172
:101FA000FF3940F09883FEF72BFCF1484FF0807A20
:101FB000C0F818A0EF484FF4802101609620FEF78A
:101FC00092FF0027C9F87441D8F83C0003F08DFE59
:101FD000D9F874110844C9F874010520FEF783FF8D
:101FE0007F1C102FF0DBD9F87401C11700EB1170C2
:101FF0000011C9F874010120FEF7D7FB0120FEF79C
:10200000C3FBC9F86C41D9F85C10D9F804018142CE
:10201000AABFD9A0C9F86C5101F022FED9F8581016
:10202000D9F80401884206DAD9F86C0140F00200C0
:10203000C9F86C0102E0D4A001F012FED8F83C000F
:10204000D9F86410884206DDD9F86C0140F004002C
:10205000C9F86C0102E0D0A001F002FED8F83C0003
:10206000D9F86010884206DAD9F86C0140F008000F
:10207000C9F86C0102E0CCA001F0F2FD47F60C605B
:1020800003F033FEBB49042008609620FEF72BFFC7
:1020900047F60C6003F029FE0146C9F87001C6A09E
:1020A00001F0DEFDD9F86810D9F87001884206DA2F
:1020B000D9F86C0140F01000C9F86C0102E0C5A02D
:1020C00001F0CEFD0120FEF7D7F90146C9F87001F5
:1020D000C3A001F0C5FDD9F87010D9F8700188428D
:1020E00006DDD9F86C0140F02000C9F86C0102E06F
:1020F000BEA001F0B5FDD9F86C10D9F87001884286
:1021000006DAD9F86C0140F04000C9F86C0102E031
:10211000B9A001F0A5FD0020FEF7AEF90146C9F80F
:102120007001B8A001F09CFDD9F87810D9F87001C1
:10213000884206DDD9F86C0140F08000C9F86C01D6
:1021400002E0B3A001F08CFDD9F87410D9F8700149
:10215000884206DAD9F86C0140F48070C9F86C0145
:1021600002E0AEA001F07CFD002003F0BEFD962051
:10217000FEF7B9FE0120FEF77FF90146C9F87001AC
:10218000A9A001F06DFDD9F88010D9F8700188423E
:1021900006DDD9F86C0140F40070C9F86C0102E06A
:1021A000A4A001F05DFDD9F87C10D9F87001884237
:1021B00006DAD9F86C0140F48060C9F86C0102E0DD
:1021C0009FA001F04DFD0020FEF756F90146C9F829
:1021D00070019EA001F044FDD9F88810D9F8700173
:1021E000884206DDD9F86C0140F40060C9F86C0142
:1021F00002E099A001F034FDD9F88410D9F87001FB
:10220000884206DAD9F86C0140F48050C9F86C01B4
:1022100002E094A001F024FD48F2E83003F065FDEF
:10222000FEF7EEFA5248C0F818A09620FEF75BFEC3
:1022300048F2E83003F059FD0146C9F870018CA05E
:1022400001F00EFDD9F89010D9F87001884206DD32
:10225000D9F86C0140F40050C9F86C0102E08CA080
:1022600001F0FEFCD9F88C10D9F870014F46884275
:1022700006DAD7F86C0140F48040C7F86C0102E040
:1022800086A001F0EDFC0120FEF7F6F80146C7F844
:10229000700185A001F0E4FCD7F89810D7F8700120
:1022A000884206DDD7F86C0140F40040C7F86C01A5
:1022B00002E080A001F0D4FCD7F89410D7F87001A8
:1022C000884206DAD7F86C0140F48030C7F86C0118
:1022D00002E07BA001F0C4FC0020FEF7CDF801462F
:1022E000C7F8700179A001F0BBFCD7F8A010D7F8AF
:1022F0007001884206DDD7F86C0140F40030C7F861
:102300006C0102E074A001F0ABFCD7F89C10D7F888
:102310007001884206DAD7F86C0140F48020C7F8D3
:102320006C0102E06FA001F09BFCFEF75EFA9620C4
:10233000FEF7D9FD48F2E83003F0D7FC0146C7F8B4
:1023400070016BA001F08CFCD7F8A410D7F87001D5
:10235000884206DAD7F86C0140F40020C7F86C0117
:10236000D9E0D5E00D0A53656C667465737400009E
:102370000000024018040240696F66667365745F6E
:102380006176675F6D696E00696F66667365745F1D
:102390006176675F6D6178006F6F66667365745F05
:1023A0004176675F6D696E006F6F66667365745F17
:1023B0004176675F6D6178000D0A522047312052E7
:1023C0003939206E656761746976652073617420A0
:1023D000256420007361746E65675F6D617800002D
:1023E0000D0A43313A2025640000000063315F612B
:1023F00076675F6D696E000063315F6176675F6D60
:10240000617800000D0A56313A2025640000000072
:1024100076315F6176675F6D696E000076315F616E
:1024200076675F6D617800000D0A43323A202564BB
:102430000000000063325F6176675F6D696E0000C7
:1024400063325F6176675F6D617800000D0A563216
:102450003A2025640000000076325F6176675F6D88
:10246000696E000076325F6176675F6D61780000AB
:102470000D0A522047312052393920706F73697428
:102480006976652063757272656E7420256420001C
:1024900054657374525F6D696E0000005465737407
:1024A000525F6D61780000000D0A43333A202564C5
:1024B0000000000063335F6176675F6D696E000046
:1024C00063335F6176675F6D617800000D0A563394
:1024D0003A2025640000000076335F6176675F6D07
:1024E000696E000076335F6176675F6D617800002A
:1024F0000D0A52204731205231304B20706F7369E2
:1025000074697665207361742025642000000000E2
:10251000FDA001F0A5FB0120FDF7AEFF0146C7F8C5
:102520007001FCA001F09CFBD7F8AC10D7F870014B
:10253000884206DDD7F86C0140F48010C7F86C01C2
:1025400002E0F7A001F08CFBD7F8A810D7F87001D3
:10255000884206DAD7F86C0140F40010C7F86C0125
:1025600002E0F2A001F07CFB0020FDF785FF0146B0
:10257000C7F87001F0A001F073FBD7F8B410D7F8DA
:102580007001884206DDD7F86C0140F48000C7F87E
:102590006C0102E0EBA001F063FBD7F8B010D7F8B4
:1025A0007001884206DAD7F86C0140F40000C7F8E1
:1025B0006C0102E0E6A001F053FB4FF6FF7003F060
:1025C00094FB0120FDF758FF0146C7F87001E3A016
:1025D00001F046FBD7F8BC10D7F87001884206DD41
:1025E000D7F86C0140F08070C7F86C0102E0DEA003
:1025F00001F036FBD7F8B810D7F87001884206DA38
:10260000D7F86C0140F00070C7F86C0102E0D9A067
:1026100001F026FB0020FDF72FFF0146C7F87001EF
:10262000D7A001F01DFBD7F8C410D7F8700188427D
:1026300006DDD7F86C0140F08060C7F86C0102E05D
:10264000D2A001F00DFBD7F8C010D7F87001884276
:1026500006DAD7F86C0140F00060C7F86C0102E0C0
:10266000CDA001F0FDFA47F6FF7003F03EFBCD4828
:102670004FF4802AC0F800A0D7F86C21CAA01146F8
:1026800001F0EEFAD7F86C016FF0704188421BD070
:10269000CBA001F0E5FADFF80CA3C7F870410420E5
:1026A000CAF800006420FEF71EFC4FF48020CAF830
:1026B00000006420FEF717FCD7F87001401CC7F833
:1026C00070010328EBDB02E0C0A001F0C9FAFEF7BD
:1026D0007DF8FEF74AF8B8F80400032839D0C8F8A6
:1026E0002450C8F82C50C8F82850C8E90C544B2086
:1026F000C8F83840A8F82200B748C8F80C004FF4D2
:102700000040C8F81000B2EE040A88ED060A42F252
:102710001070C8F8140040F63100C8F81C00022000
:10272000A8F8200088F85A40C8F84040C8F844404B
:10273000C8F84840B7EE000AC8F84C4088ED150AC2
:1027400088F8595088F85040042088F8580088F8D4
:102750005C40A24F3D6004F079FA002004F0CCFA0E
:1027600004F098F99E4803F0F5FC4FF4207004F053
:10277000B5FAFEF745F8DFF86CA24FF08070CAF8A2
:10278000180099A14FF4FA6003F01FFAFDF7ECFF6F
:10279000B8F9220003F045FB3C60D8F83C00A0F5F6
:1027A0008060C9F8E00089F806509FED979ADFED48
:1027B000979A9FED978A9FED97AA0A27DFED968A51
:1027C000DBF80000DFF854A2400BDAF8001040EA12
:1027D000511010F0010F0AD0C9F84840DBF8000092
:1027E00010F0080F04BF0F20C9F87C011FE0D9F8D2
:1027F0003400012808BFC9F84850DBF80000D9F8B8
:10280000801125EAD00088420BD0D9F8500040B999
:102810004FF47A70C9F85000DBF8000010F0080F90
:1028200031D0DBF8000025EAD000C9F88001C9F8F2
:102830003440D9F8500000281CBF401EC9F8500091
:10284000D9F84800012827D056494FF48020C9F80C
:10285000F8400860A9F80A500520C9F81400D9F812
:10286000F000002808BFC9F85440DFF8B48198F898
:102870005A0000280CBFC9F82071C9F8204199F806
:10288000080070B3ECE0D9F84800002814BFC9F87C
:102890004840C9F84850C4E7D9F84C00C8B9DFF837
:1028A000808198F859000128D8F83C0014BFC03046
:1028B000C03803F01AFAD8F83C00A0F58060C9F8D7
:1028C000E000D9F84400401EC9F844000520FEF796
:1028D0000AFB344904200860D9F8540040F0010094
:1028E000C2E0FFE7D9F8E400411CC9F8E410B0F5F4
:1028F000FA6F08DDC9F8E440D9F8E000B0F5044FFC
:10290000D8BF401C8EE094E0736174706F735F6D8C
:10291000617800000D0A43343A202564000000006D
:1029200063345F6176675F6D696E000063345F6179
:1029300076675F6D617800000D0A56343A20256491
:102940000000000076345F6176675F6D696E00009D
:1029500076345F6176675F6D617800000D0A4335FC
:102960003A2025640000000063355F6176675F6D83
:10297000696E000063355F6176675F6D61780000A6
:102980000D0A56353A2025640000000076355F6157
:1029900076675F6D696E000076355F6176675F6DA3
:1029A00061780000180402400D0A4572726F7220AF
:1029B000636F64653A20256420282578290000008B
:1029C0000D0A4641494C4544210000000D0A506162
:1029D0007373656421000000968E3B009004002014
:1029E000E4AA00080000024054686F726C616273D0
:1029F000204B4C443130310A5377526576203032C7
:102A00003030313220000000CDCCCC3DCDCC9C40CC
:102A10000000000000007A4400FEFF46100802405B
:102A20000C3E0120C8BF4FF4F840C9F8E00003F0A5
:102A30005CF9D9F8E00048F24001884210DD02203C
:102A4000FDF71AFDC9F81000082809DD6428BCBF8D
:102A5000D9F8E000C8F83C004FF4F840C9F8E000AD
:102A6000D9F8540020F00100C9F85400D9E9120146
:102A7000814206D00321C9F83C1041F23421C9F843
:102A80003810C9F84C00FE48FDF7E4FE90281AD033
:102A9000DFF8EC83D8F80001012818BF0020F949BD
:102AA0000988002918BF012108430CD0F64A0021EB
:102AB000F348FEF73DFD012804BFF348FDF707FF8B
:102AC0000220C8F80001FDF716FFFEF72FFA0028D4
:102AD00000F01987DFF8B4834FF47A72D8F81C102D
:102AE000C9F8D810514340F6F17291FBF2F1D8F8D1
:102AF0003C00C9F8F410C9F8DC0098F85910C9F87E
:102B0000FC1098F85820012A04BFB8F82020022AA7
:102B10004DD1D9F84820012A45D0A9F80A50C9F862
:102B2000F84001290CBFA0F5C87000F5C87003F08B
:102B3000DCF8D9F8F0000028C4BF401EC9F8F00046
:102B4000DBF8000010F4005FD9F854000CBF40F02F
:102B5000080020F00800C9F85400CD48006810F0C3
:102B6000200FD9F854000CBF40F0020020F0020002
:102B700020F0F000C9F8540098F85010032908BF5D
:102B800040F0100020D0022908BF40F020001BD0E8
:102B9000012908BF40F0400016D0002908BF40F0CE
:102BA000800011D012E099F80600012802D0C9F87F
:102BB000F840BEE7B9F80A0000281ABF401EA9F87D
:102BC0000A00C9F8F850B4E7C9F8540098F8590059
:102BD0000128D9F854000CBF40F4807020F48070B4
:102BE000C9F85400B8F92000D9F8541001280CBFD6
:102BF00041F0040121F00401C9F85410D9F838114A
:102C00004FF6E85291420CDDD9F84820012A11D143
:102C1000D9F85420C9F8F07042F40052C9F8542091
:102C200008E0D9F8F0202AB9D9F8542022F400524B
:102C3000C9F85420012811D13F290CDAD9F84810DD
:102C4000012911D1D9F85410C9F8F07041F480412C
:102C5000C9F8541008E0D9F8F01029B9D9F854107F
:102C600021F48041C9F8541098F85810B9F90C2093
:102C7000914206D0A9F80C1089F807500321C9F831
:102C80003C10DFF810A29AF8381011F0010F2DD087
:102C9000D9F81C100A299CBF481CC9F81C0025D96A
:102CA000022808BFC9F83841B9F834117A4881714F
:102CB000090AC171B9F838110172090A4172B9F8EB
:102CC0003C118172090AC172D9F8541001740A0AC0
:102CD00042740A0C8274090EC174FDF7FCFF18B12E
:102CE00014216D48FDF7D8FFC9F81C4098F858002A
:102CF0000128D9F854001CBF20F40070C9F8540012
:102D000066D099ED490AD9ED0C0AB4EE600AF1EEED
:102D100010FA04D00320C9F83C0089ED0C0A99F898
:102D20000000012830D003F06DF8CAF8040098F8CC
:102D300058100429DAF818107ED059B1132909D097
:102D40004000CAF80400B8F922000A28BCBF0A20D3
:102D500003F067F8DBF8000025EA1010CAF810004D
:102D600001F0A2FBCAF81400DAF8040000281CBF26
:102D700041F23420C9F83800DAF8100000281CBFEE
:102D800041F23420C9F8380099F80800012804BF3E
:102D90001020CAF81800D9F854000CBF40F40040C5
:102DA00020F40040C9F85400DAF8180001F0A9FD39
:102DB000DAF81800C9F83800D9F87C0100281CBFDF
:102DC000401EC9F87C0199F80800B0B300F0F2B9D0
:102DD00040F40070C9F85400B8F8200001281DD153
:102DE0000320FDF749FB00EE100A2C49B8EE400A1B
:102DF00010EE100A89ED490A8842C4BF9FED280AE7
:102E000089ED490AD9ED400A60EE200A98ED030ADF
:102E1000B8EEC00A80EE801A89ED491AB8F8200091
:102E200002287FF46EAF99ED350ADFED1E0AB8EE89
:102E3000C00A80EE201A01E003E0BDE089ED4A1AE5
:102E40005FE700297FF47AAF002883D0D9F86811B2
:102E5000884218BFC9F87841D9F84410094A491E78
:102E6000C9F8441040F6010111800F490D80B8F9EE
:102E70002010012976D199ED400A10EE102A15E0B4
:102E800000000020D0020020A80400200C3E0120F9
:102E9000100802406C3E0120AC02002000C07345C7
:102EA00000C073457B140343D2020020FE4B9A42BC
:102EB00022DD122805DDD9ED490A70EEC90AC9EDF7
:102EC000490A10F1120F05DAD9ED490A70EE890AA4
:102ED000C9ED490A5F2805DDD9ED490A70EEE90A16
:102EE000C9ED490A10F15F0F31DAD9ED490A70EEE8
:102EF000A90AC9ED490A2AE0122808DDD9ED490AD4
:102F00009FEDEA1A70EEC10AC9ED490A0BE010F113
:102F1000120F08DAD9ED490A9FEDE41A70EE810A22
:102F2000C9ED490A08E05F2806DDD9ED490A9FEDA1
:102F3000E01A70EEC10A08E010F15F0F07DAD9ED70
:102F4000490A9FEDDB1A70EE810AC9ED490AC0EE0D
:102F50000A0A99ED490AF4EEC00AF1EE10FA98BF98
:102F6000C9ED490A022923D1122806DD99ED4A0A42
:102F700030EE490A89ED4A0A09E010F1120F06DA2B
:102F800099ED4A0A30EE090A89ED4A0A06E05F28FF
:102F9000C4BF99ED4A0A30EE690A07DC10F15F0FF1
:102FA000BCBF99ED4A0A30EE290A01DA89ED4A0AD6
:102FB0000320C9F83C00CDE698F85800042812BF59
:102FC0000028B8F82000022804D0B8F82000012812
:102FD0005AD0EFE098F85A00002808BFC9F82071CD
:102FE00098F8590099ED480AD9ED4A0A0128B8EE37
:102FF000400A60EE200A9FEDAF1AD8F83C0080EE40
:10300000810A20EE280ABDEEC00A10EE101A2CD05C
:10301000421AC9F84020D8F81C10411A4B1E93429E
:10302000D4BF1146C9F84010884201DAC9F84000FF
:10303000D9F820010A283CBF401CC9F8200199EDAD
:103040004A0AB5EEC00AF1EE10FA04BFD8F83C0007
:10305000C9F84000D9E91001814218BF02F045FECD
:10306000D9F84000C9F84400AFE70A18C9F8402071
:10307000D8F81C1001444B1C9342B4BFC9F840104F
:1030800011468842D4DDD1E798F85000042828BFC3
:10309000C9F848417DD2D9F8480001287BD0C9F849
:1030A0004841D8F83C00C9F8400099ED520A98F818
:1030B00050008149F8EEC00A01EB800080EEA80ABA
:1030C000D0ED000A60EE8A0A20EE800A89ED4B0AF4
:1030D000D8ED150A20EE800A89ED090AD9ED490AD2
:1030E00030EEC00A20EE0A0ABDEEC00A10EE101A39
:1030F000C9F81810D8F81C00B1EB201FC4BF01118B
:10310000C9F818100111D9F8182049429142C8BFD6
:10311000C9F81810D9F83C10E1B3D9F81820002AE2
:10312000B8BF01F00201C8BF01F0010101D0C9F828
:103130003C1098F85910D9F818200129D9F84010F6
:103140007DD08A1AC9F84020D8F83C10081A90425D
:10315000D4BF1046C9F840008142B8BFC9F840103A
:10316000D9F84000081AFA21484300EE100AB8EED8
:10317000C00A80EE281A89ED4A1AF5EEC00AF1EE6F
:1031800010FA05D1D8F83C00C9F8400089ED4A8A08
:1031900002E005E06BE056E0D9F8400002F0A5FD42
:1031A000D9F818000090D9E90F1344A0D8F83C20B2
:1031B00000F056FD99ED490AB5EEC00AF1EE10FA9D
:1031C00038BF89ED498A99ED4A0AB5EEC00AF1EE99
:1031D00010FA38BF89ED4A8A98F8580001281AD0A9
:1031E000D8F81C10FA20484347F6FF7190FBF1F223
:1031F00000EE102AD9ED4A0AB8EEC00AB4EEE00A91
:10320000F1EE10FA07D890FBF1F000EE100AB8EEDC
:10321000C00A89ED4A0A0120FDF72EF900B2C9F86B
:103220005401D8F83C20D8F81C10D9F840C0531AE3
:10323000634563D1D9F8541041F4806100E022E085
:10324000C9F8541080E0D9F8400002F04EFD41105A
:10325000C9F8481198F8500008EB8000006CB1EBF9
:10326000600FC4BFA1EB6000C9F848011DE7D9F8A1
:1032700018100029BCBF4FF0FF31C9F81810C8BFA3
:10328000C9F8185055E70A44C9F84020D8F83C104E
:1032900008449042B4BFC9F8400010468142C8BFFC
:1032A000C9F840101CE0000000007A440AD7233C13
:1032B00048E1FA3E00401C45709800080D0A46613E
:1032C00073743A2564204F66663A25642046656526
:1032D000646261636B3A2564204572723A2564002A
:1032E000D9F84000401AFA21484300EE100AB8EE1F
:1032F000C00A80EE281A89ED4A1A3EE7114461455A
:1033000004BFD9F8541041F480611BD0A0F1FA0138
:1033100040F6E95291420CD3D9F8481001291DD149
:10332000D9F85410C9F8F07041F48061C9F854100C
:103330000EE0D9F8F010002904BFD9F8541021F498
:10334000806101D1C9F85410D9F84810012905D17C
:10335000D9F8541021F48061C9F85410D9F8041137
:1033600001F114029042DEBFA1F11402824289ED04
:10337000548A0ADD401A00EE100AB8EEC00ADFEDEA
:10338000FE0A80EE201A89ED541A99ED540A20EEB7
:10339000280ADFEDFAAAC0EE2A0ABDEEE00A10EE16
:1033A000100AC9F84401B0F5004FA8BF47F6FF70F6
:1033B00004DA10F5004FD8BFF14801DCC9F8440128
:1033C0000020FDF759F800B2C9F85801D9F8541097
:1033D00041F48051C9F85410D9F81420002A1CBFB8
:1033E000521EC9F8142008D0D9F8F020002A04BFD2
:1033F00021F40061C9F8541023E0B0F5706F03DDCB
:1034000098F85920012A07D040F2B7729042EBDABF
:1034100098F85920012AE7D0D9F84820012A08D085
:10342000D9F8F020002A04BF21F40061C9F8541033
:1034300005E041F40061C9F8F070C9F85410C9F80A
:103440004840D9F8081101F1270290420BDD401ADB
:1034500000EE100AB8EEC00ADFEDCA0A80EE201AAC
:1034600089ED531A11E0A1F127029042A8BF89ED1E
:10347000538A0ADA401A00EE100AB8EEC00ADFEDED
:10348000C20A80EE201A89ED531A99ED530AB5EE5F
:10349000C00AF1EE10FA05DDDFEDBC0A30EE600A7D
:1034A00089ED530AB5EEC00AF1EE10FA05D2DFED50
:1034B000B70A30EE200A89ED530A99ED540ADFED80
:1034C000B40A43F6982120EE200A89ED540A99EDBA
:1034D000530A20EE0A0ABDEEC00A10EE100AC9F81F
:1034E0004001884202DC4942884201DAC9F84011B1
:1034F000D9F8480058B3D9F83801D9F8481100EB89
:10350000C000A44A084482FB00108110A1EBE070C7
:10351000C9F83801D9F83C01D9F8401100EBC000D6
:10352000084482FB00108110A1EBE070C9F83C0157
:10353000D9F8341129B198F85910012924D000285C
:1035400001DDC9F83C41D9F8F00030BB1FE0C9F8F3
:103550003C41C9F83041C9F83441C9F8384199F8BB
:103560000800002804BFD8F83C00C9F84000D9F88A
:10357000F0000028E5D1D9F8540020F4904020F064
:103580008040C9F85400DCE70028DCDAD9E7D9F834
:10359000540020F08040C9F8540099F80800012830
:1035A00050D116F0080F06F10101B8F922000EB251
:1035B00004BF00EBD070401002F033FCDBF80000D9
:1035C000C0F3403174480068C0F3401008430AD08B
:1035D0000F20C9F87C0189F8084089F80140B9F842
:1035E0000C01A8F82000DBF8000010F0100F05D146
:1035F00089F80840B8F92000C9F80C0199F80200D0
:103600000B281FD2DFE800F0061F2E4154626F9195
:10361000A8CFF700042088F85800B8F92000C9F8AE
:103620000C010220A8F82000C9F8484088F8504052
:1036300089F804404FF4F840C9F8140189F80250A1
:1036400002F053FBE8E0D9F84800002808BF022048
:1036500018D089F8084089F80140B9F80C01A8F899
:103660002000D9E0D9F8140102F03FFBC8F840006F
:1036700088F85050D9F84800002804BF99F8020093
:10368000401CE6D189F80200C6E0D9F8140102F026
:103690002CFBC8F84400022088F85000D9F84800F4
:1036A0000028D6D199F80200401C89F80200B3E046
:1036B000D9F8140102F019FBC8F84800032088F873
:1036C0005000D9F848000028ECD0C2E7D9F814011E
:1036D00002F00BFBC8F84C0088F85040D9F84800BD
:1036E0000028DFD0B5E70220FCF7C6FE082828BF77
:1036F000C9F848500BD2D8F83C0000F58061D9F8E1
:10370000140188423CBF001DC9F8140106D399F882
:103710000200401C89F80200D9F8140102F0E5FA11
:103720004FF4F840C9F8E00076E0D9F848000128E5
:103730008FD1082089F8020098F85900B8F81C10B9
:103740000128B8F83C0014BF401A084400B2C9F878
:10375000180102F0CAFA5FE0D9F8180102F0C5FAC0
:1037600040F6CC41C9F81C0188423EBF98F8500091
:103770000328401C12E000001D5A0441000066436B
:103780000180FFFF0000A8420000AA429A99993EDA
:10379000C217863F676666661008024038BF88F821
:1037A000500039D37EE7D9F81C014008C9F81C0144
:1037B00098F8502008EB8201096CB0EB610F84BFD0
:1037C000A0EB6100C9F81C0100EE100A7548F8EE84
:1037D000400A00EB820080EEA80AD0ED000A9FEDBF
:1037E000721A60EE810A20EE800A89ED090A89F8D2
:1037F000027011E0FFE70B20C9F8484089F8020089
:1038000089F8084089F80350B9F80C01A8F820009D
:10381000B8F9220002F005FB98F85000012812D0F8
:1038200002281FD003282CD0FCF7EAFF5F494FF095
:103830008070886198ED150ADFED5D0A20EE200AA0
:1038400089ED400A2BE0FCF7DBFF58484FF480710C
:10385000816198ED150ADFED570A20EE200A89ED07
:10386000400A1CE0FCF7C1FF50494FF080708861AE
:1038700098ED150ADFED500A20EE200A89ED400A86
:103880000DE0FCF7B2FF49484FF48071816198ED7B
:10389000150AF2EE060A20EE200A89ED400ADAF84F
:1038A00004000AF11C034142DAF80C20DAF8140093
:1038B00000F03FFECAF81800DBF80000C0F3C0308B
:1038C000FEF776F9CAF80C00DAF8280000280CDDBB
:1038D00010F0040FA0F10100CAF8280012BF002068
:1038E000B8F92200401C02F09CFA00F04FFDD9ED1F
:1038F0004A0A9FED320A00EEA80AC0EE2A0ABDEE7F
:10390000E00A89ED4D0A02F01BFA00F0F9F8FEF723
:1039100057BFDFF8ACC010B5DCF8F800012825D19E
:103920002849400608600CF5C270C188A0F5C27035
:10393000CCF8D010D0F8FC20D0F8DC0006291BDA37
:103940000021CCF8D410012A0CBFA0F1320400F100
:103950003204C4F3072000F0AFFAE0B200F0ACFA92
:10396000002002F0B9F9012002F0B6F9164801680A
:1039700021F00401016010BDDCF8F43059434FF42C
:103980007A7391FBF3F1CCF8D410DCF8D83099427B
:10399000C8BFCCF8D430012ADCF8D4100CBF4418CE
:1039A000441AD6E7709800080024744900000240C9
:1039B00000401C46008089440000C8420000E642E6
:1039C0002001002018080240002001402DE9F041AC
:1039D00004464A4801269846007817460D460328B3
:1039E0002FD1E819B0F5006F2BD2002000F05CFA5F
:1039F000032000F061FAC5F3072000F05DFAE8B299
:103A000000F05AFA0025002F13D9002000F054FAD4
:103A1000B8F1000F08BF04F8010B07D02EB114F85D
:103A2000011B814208BF012600D000266D1CBD424B
:103A3000EBD3012000F038FA012E04BF0020BDE8CE
:103A4000F0810120BDE8F0812DE9F0478F1888460C
:103A50000646B7F5006F24BF0120BDE8F0870C468D
:103A6000B94238BFA7F1010942D204F01F0544450D
:103A700018BF002D15D1002000F016FA062000F026
:103A80001BFA012000F010FA002000F00DFA0220CD
:103A900000F012FAC4F3072000F00EFAE0B200F0D2
:103AA0000BFA16F8010B00F007FA1F2D18BFA145FD
:103AB0001BD10025012000F0F7F9002000F0F4F9F7
:103AC000052000F0F9F9002000F0F6F98246012007
:103AD00000F0EAF928466D1CB0F57A7F02D9022081
:103AE000BDE8F0871AF0010FE7D1641CA742BCD8EB
:103AF000012000F0D9F90120BDE8F087260100205F
:103B00002DE9F0419CB04F214B4800F0BDF8002852
:103B100045D000274F28D8BF474903DC0F54401C2D
:103B20004F28FBDDDFF81081149715971B2514AA89
:103B300042A14046169704F02FF9414E002406EBAF
:103B40000410416814A804F0A1FA68B1641C1B2C8D
:103B5000F5DD3C4C072D22D008DC042D38D0052D96
:103B60001DD0062D40D005E02546F2E7172D47D0A1
:103B7000182D14D0206820F01F00C4E90007A760AA
:103B8000002406EB0410836842681978002946D0A7
:103B90002DA1684603F03CFF641C1B2CF1DB00F0F8
:103BA000C4F800F0F5FA70B1027B0021002AC8BF0A
:103BB00018AB08DD00EB010C9CF804C003F801C051
:103BC000491C8A42F6DC00F05FFB1CB0BDE8F081C6
:103BD00017AA1FA1404604F0DFF81798002818BF65
:103BE0000120FCF7E2FDDAE717AA19A1404604F02C
:103BF000D3F81798002818BF0120FCF7C5FDCEE7C1
:103C000017AA13A1404604F0C7F8179801282068A6
:103C100014BF20F0100040F010002060BFE70EA19C
:103C2000684603F0F5FEB7E70C48016821F08051C3
:103C3000016070477047FEE7C41300202539730008
:103C400080980008B813002025732025733A0000DF
:103C5000252A73256400000025733A0004ED00E076
:103C60000FB410B53E4C03AA6068B0F57A7F00D35C
:103C700001BE21680844029903F0B8FE616801445E
:103C8000616010BC5DF814FB2DE9F047344E074627
:103C90000025B0688846002808BFF760FCF7E4FEFE
:103CA0004FF6FF7A0446504518BF4FF0000939D04F
:103CB000082C21D00A2C19BF0D2CB0680125C6F89C
:103CC000089018BF40450AD2214626A0FFF7C8FF3A
:103CD000F06800F8014BF060B068401CB060FCF781
:103CE000C3FE04465045E3D1E5B1F06800F8019BFE
:103CF000F060C01BBDE8F087B0680028EFD0082155
:103D000018A0FFF7ADFF202116A0FFF7A9FF08219B
:103D100014A0FFF7A5FFB068401EB060F068401E19
:103D2000F060DCE70020BDE8F08710B50C4C60685F
:103D3000002808BF10BDFCF7C8FE002808BF10BD52
:103D4000D4E90001FCF7A5FE0748216881420CBFB9
:103D500000F57A70044820600020606010BD00000B
:103D6000C0020020256300001414002038B45D4B0D
:103D7000186840F0040018605B48016841F4004195
:103D800001605A48016821F080710160016841F0CA
:103D90000071016000F1040CDCF8001021F4805186
:103DA000CCF8001052490A6822F040720A600C1FD9
:103DB000226862F0407222604E4A156825F4702530
:103DC00045F4C0251560056825F480150560056873
:103DD00045F400150560DCF8005025F48065CCF84A
:103DE0000050D1F800C02CF4401CC1F800C0D4F839
:103DF00000C06CF4401CC4F800C0D2F800C02CF421
:103E0000706C4CF4C06CC2F800C0D0F800C02CF448
:103E1000800CC0F800C0D0F800C04CF4000CC0F812
:103E200000C0086840F480000860086820F40000C2
:103E30000860106820F4704040F4C04010601868BA
:103E400040F0080018602C49042008602B480168E5
:103E500041F010010160016821F020010160001DA6
:103E6000016821F0040101602548016821F030015A
:103E70000160001F016861F0300101602148018884
:103E800021F040010180001F018821F040010180E4
:103E90004FF449710180018841F0400101801A48C6
:103EA0000088009038BC7047002814BF04204FF4ED
:103EB000802011490860704714490A8812F0020FE7
:103EC00003D10A8812F0020FFBD00F4A1080088835
:103ED00010F0010F03D1088810F0010FFBD01088FB
:103EE000C0B27047303802404038024000080240FB
:103EF0000C08024024080240180C0240000C02404A
:103F00000C0C0240043C00400C3C0040083C0040CB
:103F1000714981B0086840F0010008606F4802688C
:103F200042F4805202606E48026822F480420260CD
:103F3000026842F400420260426822F0800242605D
:103F4000C26822F44042C260826842F44042826009
:103F5000026A22F0704242F0A0420262026822F439
:103F600080620260026842F400620260426822F0ED
:103F700020024260C26822F44062C2602022826154
:103F8000826842F440628260026A22F4700242F463
:103F9000A0020262086840F00200086051488A14DA
:103FA00002605148026842F080720260026822F0AA
:103FB00000720260001D026822F4805202604B48C9
:103FC000026822F040720260001F026842F04072F4
:103FD0000260474A908820F040009080108820F0CE
:103FE000400010800920B0FA80F0C0F12003D80012
:103FF000083800F0380040F441701080908840F09C
:1040000002009080086840F4800008603948016828
:1040100021F001010160016811F0010F03D0016876
:1040200011F0010FFBD1DFF8D0C04FF40061CCF8E4
:104030000010016821F060610160016841F0C06119
:104040000160016841F480610160016841F0400154
:1040500001602B49294808600020091F086010886A
:1040600040F0400010809089009001202549984040
:10407000B1FBF0F001B07047002814BF4FF480503E
:104080004FF080501749086070471A4A136823F0B0
:1040900001031360136813F0010F03D0136813F0CA
:1040A000010FFBD1184B1860184801601249C01469
:1040B0000860106840F00100106070471448006804
:1040C00010F4006F06D00A48008910F0800F04BF7A
:1040D00001207047002070473038024044380240C9
:1040E0000000024018040240000402400C04024098
:1040F00000300140886402400C6402400C300140F2
:104100009064024000BD0105946402408C6402404A
:10411000046402405E4B186810F0030F08BF70473C
:1041200010B45C4A516802EB0110491C51605A49B5
:10413000D1F800C000F10C001CF0040F4FF0000C8F
:104140000EBF80F80DC0012444730C680CBF640DD1
:10415000C4F3D10404600968C1F3400181734F497D
:10416000096801F00F0101734D49096841604D492B
:10417000096881605068082808BFC2F804C0106848
:10418000401C1060186840F02000186010BC704798
:10419000DFF814C1DCF8000020F00200CCF80000C9
:1041A0003C4B1968002908BF00200BD09A6803EB2C
:1041B0000210521C0C309A60082A04BF00229A6038
:1041C000491E1960DCF8001041F00201CCF8001023
:1041D00070473648006810F0010F08BF70472DE99E
:1041E000F001314D286820F001002860304C226831
:1041F000002A04BFBDE8F0017047A16804EB01107C
:10420000491CDFF8B0C00026A160CCF80060DCF8E3
:104210000070437E0C30002B07BF03885B054FF016
:104220000408036818BF48EAC3033B43CCF80030D6
:10423000DCF80070837B002B18BF02233B43CCF8D3
:1042400000301D4F43683B603F1D83683B601B4B44
:104250001F6827F00F071F601F68007B00F00F002A
:1042600038431860286840F001002860DCF800003E
:1042700040F00100CCF80000082908BFA660501EDD
:104280002060BDE8F00170470D48006870470000ED
:104290000C640040E41B0020B0650040B4650040A1
:1042A000B8650040BC6500401464004008640040EC
:1042B000701C0020806500408865004084650040D7
:1042C00018640040284881B0016841F00201016093
:1042D0002648016821F480510160016841F40051D1
:1042E0000160016821F480410160016841F40041EE
:1042F00001601F48016821F0706141F000710160A8
:10430000016821F0704141F00051016019480168D5
:1043100041F00401016018494FF0FF300860174870
:10432000018840F2011211430180154903200880E1
:104330001448018841F0010101800021009100989A
:10434000401C0090B0F57A7FF9DB0F48016001B0A6
:1043500070470D4A116800231360022804BF48000B
:10436000414208B270470000303802400004024069
:1043700020040240403802402C0800401808004049
:104380000808004000080040240800402DE9F041E2
:10439000304C314D314E606A314FA0F10A01204658
:1043A0000629C06A04D2DFE801F011061E111111BE
:1043B000FCF70CFA0AE02968012902D001280ED086
:1043C0000FE001280BD10CE0FCF7EFF9A06A0A38E6
:1043D000062816D2DFE800F03B19233B3B3B0020C8
:1043E000F2E70120F0E731683A68490B41EA5211DF
:1043F00011F0010F02D00128F3D1F0E70128F0D02D
:10440000EDE7BDE8F041FCF7B0B928680128206B62
:1044100002D0012811D015E001280ED112E0306839
:104420003968400B40EA511010F0010F206B02D0A8
:10443000012802D006E0012804D0BDE8F0410020A8
:10444000FCF7A2B9BDE8F0410120FCF79DB9BDE839
:10445000F08100000C3E01206801002010040240A1
:104460001008024010B484460020F84B024603EBCB
:1044700002142468644502D0521C162AF7D9002978
:1044800001BF03EB0210406810BC7047012901BF57
:1044900003EB0210806810BC7047022904BF03EBD5
:1044A0000210C06810BC704770B5E94D0446002684
:1044B0002869052106283AD2DFE800F0030C3919F3
:1044C0002C30012C33D1012020262861FCF760FC20
:1044D000A8802CE0FCF75CFCA988FCF75DFCC828F0
:1044E00025D9012C0CBF0320002028611FE0012CDE
:1044F00004D02961FCF74CFCE88018E0FCF748FC8C
:10450000A988FCF749FCB0F57A7F10D90420102661
:1045100028610CE0002C08BF296108E0FCF738FC9A
:10452000E988FCF739FCC82884BF002028613046A0
:1045300070BD2DE9F047C64E824698467069B0615D
:10454000C44891460D460078012802D1FCF720FCB2
:10455000308170690027002818BF152809D0FCF7A2
:1045600017FC3189FCF718FC42F21071884288BFB1
:104570007761B9F1010F04D1706915281CBF1520AE
:104580007061192DCCBF0120002015F1190FB4BFA7
:1045900001210021441AFCF7FBFB3189FCF7FCFBED
:1045A000C82838BF00245AEA040002D0FCF7F0FB08
:1045B0003081002DACBF284668426428D8BFF7611F
:1045C00004DDF0690528BCBF401CF061012C16D049
:1045D000B4F1FF3F19D01AF0200F04D00221706906
:1045E000FFF740FF706170690C380A2880F07A810B
:1045F000DFE800F05789ADDDEFEE7B2811ED0021FB
:104600007069FFF72FFF7061EDE701217069FFF717
:1046100029FF7061E7E7B4F1FF3F0ED0012C04BF22
:104620008D4880F85C7002D0002C00F05B8140F671
:10463000010030800B2000F04DB98749012081F83E
:104640005C00F4E700EE105AB8EEC00ADFED830A12
:1046500020EE200ABDEEC00A10EE100A002800F07D
:10466000418100EE105A7C49B8EEC00A4A8C20EE17
:10467000200ABDEEC00A10EE100A104400B24884B1
:104680001428B8BF142003DB6428C8BF642000DDF1
:104690004884D8F8000040F02000C8F8000000F07E
:1046A00021B9B4F1FF3F03D0012C0FD000F01AB9AB
:1046B0006948018C022907D19FED690A694981ED9A
:1046C000000A694981ED000A01210CE06248018C71
:1046D000012907D19FED620A624981ED000A624912
:1046E00081ED000A02210184FCE0B4F1FF3F05D016
:1046F000012C04BF584880F85A70F3E05649012055
:1047000081F85A00EEE0002C10DA534890F8591066
:1047100039B99FED530A544981ED000A514981EDA1
:10472000000A4FF0010180F85910DBE07DDD4A48B6
:1047300090F85910012907D19FED490A4A4981EDA6
:10474000000A484981ED000A80F85970CAE0002C3F
:104750006BD046484068122803DD3F49CA69793A60
:10476000CA6110F1120F03DA3B49CA697932CA6192
:104770005F2804DD3849CA69A2F2B642CA6110F165
:104780005F0F04DA3448C16901F2B641C1613249B0
:1047900047F2C252C869904203DC40F631029042AF
:1047A00000DCCA6140F6010030800A2092E0002C53
:1047B0003BD02E48406812280CDD2749DFED2C0A3B
:1047C00091ED150A30EE600A81ED150A0FE085E0E3
:1047D00063E057E010F1120F09DA1F49DFED240AF8
:1047E00091ED150A30EE200A81ED150A09E05F28E7
:1047F00007DD1948DFED1F0A90ED150A30EE600A5B
:1048000009E010F15F0F08DA1348DFED1A0A90EDA6
:10481000150A30EE200A80ED150A0F48164A416D40
:104820008A42B8BF9FED150A00E054E0B8BF80EDA2
:10483000150A134A416D9142BCBF9FED0D0A80EDF0
:10484000150A40F6010030800D2043E0F4020020FC
:10485000D0020020280100200C3E0120CDCC4C3D90
:104860000000000048020020440200206C3E0120AD
:10487000CDCCCC3D6666663F8096184B8096184B33
:10488000CDCCCC3D3CB3FF4901200870FE490F70F0
:10489000FE490F70FE49087024E0B4F1FF3F02D0DA
:1048A000012C0AD012E0FB4991F85800002818BFEB
:1048B000042011D081F8580008E0F64991F858001A
:1048C000012801D0042807D081F8587040F6010073
:1048D00030800520708005E00120EBE7B9F1000F82
:1048E00008BF7761D6E90501884207D00028E9486A
:1048F000B0F9220018BF401C01F093FA7069BDE8BE
:10490000F087F0B5E44C0546A1B0206A4FF6FF777A
:10491000A8420ED060B9002001F096FA18237F2239
:1049200010210020009702F0EDF8384601F08CFAD3
:104930002562162D81F00E81DFE815F016001401B6
:104940004101CE024F0396038E04880641062007DC
:10495000D60698076E01FF028003F205C603B9066A
:10496000720654070A07DF07CA4E96F85800012856
:1049700016D0CAA216A8E16803F04AF8CC4800682D
:10498000012813D0CB48006800281ED0CA48006810
:1049900010F4005F0FD0C9A102A803F039F818E0A5
:1049A000CAA216A8E16803F033F8E7E7CCA102A891
:1049B00003F02EF80DE0CF48006810F0200F04D06F
:1049C000CDA102A803F024F803E0D0A102A803F0CF
:1049D0001FF80221002001F0EBFB02A802F04DF8C5
:1049E000CF48008810F4006F04D0CEA102A803F0D5
:1049F0000FF80BE0CF48006804F0C2FE41EC100B4A
:104A0000CDA153EC102B02A803F002F804210020E2
:104A100001F0CEFB02A802F030F8308C01285BD008
:104A2000C9A102A802F0F4FF0621002001F0C0FB9A
:104A300002A802F022F8C9A102A802F0E9FF308C16
:104A4000012896F85C0054D0002875D0C8A102A8AF
:104A500002F0DEFF02AA0CA8E16802F0D9FFB54817
:104A600090ED000ADFEDC70AC748F26920EE200A80
:104A700080FB0220BCEEC00AC210A2EBE07010EE78
:104A8000101AB1FBF0F0461C4AF6555001F0DCF963
:104A900018237F221021002001F034FC4FF6FF7014
:104AA00001F0D2F9022E07D9701EC2B216231221CC
:104AB0000220009702F026F8002001F0C5F9F0B2BC
:104AC00016237E221221009702F01CF84FF6FF7089
:104AD00001F0BAF901F067B8AC48006804F050FE84
:104AE00041EC100BAAA153EC102B02A802F090FF8E
:104AF0009AE760B1AA48006804F042FE41EC100B4E
:104B0000A8A153EC102B02A802F082FFA2E7A9484B
:104B100090ED000A10EE100AB0F17E5FDFEDA60AFC
:104B200020EE200A10EE100A0CDA04F029FE41EC07
:104B3000100B53EC102B00E00FE0A0A102A802F034
:104B400067FF87E704F01CFE41EC100BA0A153ECBB
:104B5000102B02A802F05CFF7CE7A1A102A802F0E2
:104B600057FF77E7A3A216A8E16802F051FFA6A1BC
:104B700002A802F04DFF0221002001F019FB02A85B
:104B800001F07BFFA5A102A802F042FF0421002052
:104B900001F00EFB02A801F070FFA5A102A802F02F
:104BA00037FF0621002001F003FB02A801F065FF9A
:104BB0006AA20CA8E16802F02BFF00F0F4BFA1A2EA
:104BC00016A8E16802F024FFA3A102A802F020FFCA
:104BD0000221002001F0ECFA02A801F04EFFA2A190
:104BE00002A802F015FF0421002001F0E1FA02A85A
:104BF00001F043FFA1A102A802F00AFF0621002054
:104C000001F0D6FA02A801F038FFA1A20CA8E168D1
:104C100002F0FEFE00F0C7BF9EA216A8E16802F0F7
:104C2000F7FE1C48B0F92000012806D0022808D160
:104C30009DA102A802F0ECFE03E0A0A102A802F0F0
:104C4000E7FE0221002001F0B3FA02A801F015FFEF
:104C50006DA102A802F0DCFE0421002001F0A8FAF8
:104C600002A801F00AFF85A102A802F0D1FE0621E8
:104C7000002001F09DFA02A801F0FFFE84A20CA81A
:104C8000E16825E128010020220100202301002005
:104C9000210100200C3E0120D002002020204F5591
:104CA00054505554204C4556454C202000000000DF
:104CB000680100209C02002010040240496E7465C7
:104CC000726C6F636B206F70656E21004D4F4455A1
:104CD0004C4154494F4E204C4556454C0000000075
:104CE000878820204C41534552204F4E20208788F2
:104CF00000000000100802405475726E2074686550
:104D0000206B6579206F6E21000000002020204C70
:104D10004153455220204F464620202000000000ED
:104D200074010020204F70656E20436972637569BD
:104D3000742120004802002020497365743A25360A
:104D40002E3266206D41200020507365743A202D6C
:104D5000204E41202D202020000000002020202077
:104D600020202020202020202020202000000000C3
:104D70002050573A2020202D204E41202D20202049
:104D80000000000000000243D34D621044020020E6
:104D90002A507365743A25362E3266206D572000EE
:104DA000440100202050573A202025362E3266201C
:104DB0006D5720004C02002000007A442050443AF5
:104DC000202025352E31662020754120000000006E
:104DD0002050443A2025352E316620207541200090
:104DE0002050443A2020202D204E41202D202020EC
:104DF000000000004F5054494F4E204D454E552065
:104E00002020202000000000557365207468652074
:104E1000776865656C82202000000000746F207345
:104E2000656C6563742074686520202000000000B4
:104E30007375626D656E752E202020202020202045
:104E40000000000031204D4F44452020202020202C
:104E500020202020000000005072657373204D4513
:104E60004E5520616E64200075736520746865205E
:104E7000776865656C82202000000000746F2063F5
:104E800068616E67652E2020202020200000000031
:104E90000909090053454C454354204D4F444520D2
:104EA0002020202000000000434F4E5354414E5418
:104EB0002043555252454E5400000000434F4E537C
:104EC00054414E5420504F574552202000000000BE
:104ED00002F09EFD00F067BEF7A216A8E16802F09E
:104EE00097FDAFF28C0102A802F092FD0221002092
:104EF00001F05EF902A801F0C0FDAFF2940102A832
:104F000002F086FD0421002001F052F902A801F010
:104F1000B4FDAFF2980102A802F07AFD062100204C
:104F200001F046F902A801F0A8FDAFF29C020CA81E
:104F3000E16802F06DFD00F036BEE4A216A8E1685B
:104F400002F066FDE6A102A802F062FDE74890F8D3
:104F50005900012829D0E6A102A802F059FD02213A
:104F6000002001F025F902A801F087FDE5A102A8C3
:104F700002F04EFD0421002001F01AF902A801F010
:104F80007CFDAFF27C1102A802F042FD0621002058
:104F900001F00EF902A801F070FDAFF220120CA88A
:104FA000E16802F035FD00F0FEBDDBA102A802F0D1
:104FB0002FFD0221002001F0FBF802A801F05DFDA9
:104FC000DAA202A8E16802F023FD0421002001F02A
:104FD000EFF802A801F051FDD3E7D9A216A8E168C5
:104FE00002F016FDAFF2901102A802F011FD0221AD
:104FF000002001F0DDF802A801F03FFDAFF29811AA
:1050000002A802F005FD0421002001F0D1F802A859
:1050100001F033FDAFF29C1102A802F0F9FC062169
:10502000002001F0C5F802A801F027FDAFF2A012A0
:105030000CA8E16802F0ECFC00F0B5BDC5A216A812
:10504000E16802F0E5FCA6A102A802F0E1FCA74895
:10505000FA21C069484347F6FF7190FBF1F2C2A103
:1050600002A802F0D5FCECE5C3A216A8E16802F0A4
:10507000CFFCAFF21C2102A802F0CAFC02210020E2
:1050800001F096F802A801F0F8FCAFF2242102A882
:1050900002F0BEFC0421002001F08AF802A801F011
:1050A000ECFCBAA102A802F0B3FC0621002001F03A
:1050B0007FF802A801F0E1FCAFF22C220CA8E16815
:1050C00002F0A6FC00F06FBDB4A216A8E16802F0E1
:1050D0009FFCAFF2783102A802F09AFCB448007845
:1050E000012812D0B3480078012836D0B2480068B1
:1050F000B249C0F340300968C1F3401108437AD087
:10510000AFA102A802F084FC81E0B2A102A802F0E3
:105110007FFC0221002001F04BF802A801F0ADFC59
:10512000B1A102A802F074FC0421002001F040F8B3
:1051300002A801F0A2FCB1A102A802F069FC0621BC
:10514000002001F035F802A801F097FCB0A20CA8ED
:10515000E16802F05DFC00F026BDB248007801284D
:1051600027D0B1A102A802F053FC0221002001F0D7
:105170001FF802A801F081FCB0A102A802F048FCCF
:105180000421002001F014F802A801F076FCAFA180
:1051900002A802F03DFC0621002001F009F802A857
:1051A00001F06BFCAEA20CA8E16802F031FC00F04B
:1051B000FABCB0A102A802F02BFC0221002000F0F2
:1051C000F7FF02A801F059FCAFA102A802F020FCF1
:1051D0000421002000F0ECFF02A801F04EFCAFA17A
:1051E00002A802F015FC0621002000F0E1FF02A851
:1051F00001F043FC00E006E0ADA20CA8E16802F07B
:1052000007FC00F0D0BCAFA102A802F001FC022113
:10521000002000F0CDFF02A801F02FFCAEA102A8F3
:1052200002F0F6FB0421002000F0C2FF02A801F00A
:1052300024FCADA102A802F0EBFB0621002000F047
:10524000B7FF02A801F019FCAFF2F0420CA8E16828
:1052500002F0DEFB00F0A7BCA8A216A8E16802F0ED
:10526000D7FBAFF20C4102A802F0D2FB02210020D2
:1052700000F09EFF02A801F000FCAFF2144102A86A
:1052800002F0C6FB0421002000F092FF02A801F00A
:10529000F4FBAFF2184102A802F0BAFB062100208D
:1052A00000F086FF02A801F0E8FB99A20CA8E168D3
:1052B00002F0AEFB00F077BC3220504F4C41524917
:1052C000545920202020202020000000504F4C4125
:1052D00052495459205459504520202000000000C4
:1052E0000909090909090909200000000C3E0120EB
:1052F000414E4F44452047524F554E44454420208F
:1053000000000000436F6E6E656374696F6E3A2033
:10531000208B892000000000434154484F44452021
:1053200047524F554E44454400000000436F6E6E97
:10533000656374696F6E3A2020898A20000000003E
:1053400033204D41582043555252454E5420202081
:1053500020000000534554204D41582043555252DF
:10536000454E5420000000004D415820493A202568
:1053700064206D412020200034204741494E2053B5
:10538000454C4643414C202000000000746F2063D0
:10539000616C6962726174652E2020005354415221
:1053A000542053454C462D43414C20200000000022
:1053B00028010020210100201004024010080240B2
:1053C000496E7465726C6F636B206572726F7221C7
:1053D0000000000043616C6962726174696E67204D
:1053E0006E6F772000000000706C65617365207738
:1053F000616974202E2E2020000000004D454E557E
:1054000020746F2061626F72742020200000000001
:105410008788204C4153455220204F4E20878820BA
:105420000000000023010020878843414C20454EA6
:10543000455247495A455320000000005448452032
:105440004C41534552215052455353004D454E5502
:1054500020544F2041424F5254204F520000000030
:10546000574845454C20544F205354415254878847
:105470000000000043616C6962726174696F6E20A4
:10548000446F6E65000000004D6F7665207468659E
:1054900020776865656C202000000000746F207024
:1054A0006572666F726D20746865202000000000D0
:1054B0006761696E2063616C20616761696E2E208F
:1054C0000000000043616E27742043616C696272C2
:1054D00061746521000000004D6F76652074686579
:1054E00020776865656C8200746F207374617274D4
:1054F00020616761696E2E2E000000003520504447
:1055000020492F502020464143544F5200000000B4
:1055100020202020202020202020202020202000AB
:10552000FEA216A8E16802F073FAAFF24C2102A8BD
:1055300002F06EFAFE48406D04F022F941EC100BC7
:10554000FCA153EC102B02A802F062FA0221002009
:1055500000F02EFE02A801F090FAAFF2547102A8FA
:1055600002F056FA0421002000F022FE02A801F009
:1055700084FAAFF2F86102A802F04AFA062100208C
:1055800000F016FE02A801F078FAEF4890ED000A4C
:10559000DFEDEE0A20EE200A10EE100A04F0F0F81B
:1055A00041EC100BEAA153EC102B02A802F030FAE8
:1055B00002AA0CA8E16802F02BFA00F0F4BAE8A203
:1055C00016A8E16802F024FAAFF2747102A802F0A2
:1055D0001FFA0221002000F0EBFD02A801F04DFAB5
:1055E000AFF27C7102A802F013FA0421002000F04F
:1055F000DFFD02A801F041FAAFF2807102A802F0CB
:1056000007FA0621002000F0D3FD02A801F035FAC8
:10561000AFF284720CA8E16802F0FAF900F0C3BAA4
:10562000D4A216A8E16802F0F3F9C14890F85A0034
:10563000012805D0D4A102A802F0EAF9FFF701BBC6
:10564000D5A102A802F0E4F9FFF7FBBAD7A216A889
:10565000E16802F0DDF9AFF6000102A802F0D8F926
:105660000221002000F0A4FD02A801F006FAAFF626
:10567000080102A802F0CCF90421002000F098FDF6
:1056800002A801F0FAF9AFF60C0102A802F0C0F985
:105690000621002000F08CFD02A801F0EEF9AFF623
:1056A00010020CA8E16802F0B3F900F07CBAC4A2C1
:1056B00016A8E16802F0ACF99D4890F8580038B19E
:1056C00001280BD0C3A102A802F0A2F9FFF7B9BAD2
:1056D000C5A102A802F09CF9FFF7B3BAC7A102A8BE
:1056E00002F096F9FFF7ADBAC9A102A802F090F94D
:1056F00002AA16A8E16802F08BF9CAA102A802F07A
:1057000087F90221002000F053FD02A801F0B5F94D
:10571000AFF6AC0102A802F07BF90421002000F0F2
:1057200047FD02A801F0A9F9AFF6B00102A802F006
:105730006FF90621002000F03BFD02A801F09DF961
:10574000AFF234220CA8E16802F062F900F02BBA43
:10575000B9A216A8E16802F05BF9754890F85C0000
:10576000012805D0B9A102A802F052F9FFF769BAE1
:10577000BBA102A802F04CF9FFF763BABDA102A8D1
:1057800002F046F902AA16A8E16802F041F9A5A1C3
:1057900002A802F03DF90221002000F009FD02A854
:1057A00001F06BF9AFF6401102A802F031F90421C3
:1057B000002000F0FDFC02A801F05FF9AFF64411F3
:1057C00002A802F025F90621002000F0F1FC02A851
:1057D00001F053F9AFF2C8220CA8E16802F018F901
:1057E00000F0E1B9A8A102A802F012F902AA16A8D5
:1057F000E16802F00DF94E4EB6F922001E28B8BF3E
:105800001E2003DB6428C8BF642000DD7084B6F965
:105810002220A2A102A802F0FBF80221002000F041
:10582000C7FC02A801F029F9AFF2543102A802F036
:10583000EFF80421002000F0BBFC02A801F01DF9E4
:105840009BA102A802F0E4F80621002000F0B0FCC1
:1058500002A801F012F9B6F9220000F0E2FAAFF264
:1058600050320CA8E16802F0D3F89CE195A216A88A
:10587000E16802F0CDF8AFF61C3102A802F0C8F8DA
:105880002B4E95A196F85000421C02A802F0C0F8D9
:105890000221002000F08CFC02A801F0EEF8F06973
:1058A000FA21484347F6FF7190FBF1F28FA102A85D
:1058B00002F0AEF80421002000F07AFC02A801F00A
:1058C000DCF8706D03F05CFF41EC100B8BA153EC26
:1058D000102B02A802F09CF80621002000F068FCC2
:1058E00002A801F0CAF889A102A802F091F802AA60
:1058F0000CA8E16802F08CF855E1AFF6A03216A8CA
:10590000E16802F085F8AFF6AC3102A802F080F849
:105910000221002000F04CFC02A801E15345542074
:10592000504420492F502076616C756500000000BE
:105930000C3E01205044463A202025352E31662069
:10594000572F4120000000004C02002000007A4444
:1059500050443A2025352E31662075412000000044
:10596000362052414D505550204F555450555420DB
:1059700000000000454E41424C452052414D5055DB
:105980005020202000000000494D4D45444941541D
:105990004520090920200000312F31307468205340
:1059A000544550204F4E2020000000003720434F28
:1059B0004E54524F4C20534F555243450000000067
:1059C00053454C45435420434F4E54524F4C202096
:1059D00000000000574845454C2B534F4654574153
:1059E0005245202000000000534F46545741524575
:1059F000204F4E4C592020200000000045585445AF
:105A0000524E414C204F4E4C5920202000000000A7
:105A1000382052454144494E47204D2E552E2020D6
:105A2000000000005072657373204D454E55206193
:105A30006E6420200000000053455420524541442C
:105A4000494E47204D2E552E0000000053484F5719
:105A50002043555252454E54202020200000000083
:105A600053484F5720504F57455220202020202088
:105A70000000000039204252494748544E455353D4
:105A80002020202000000000534554204252494766
:105A900048544E455353202000000000427269676D
:105AA00068746E657373203D2025332E30640000CA
:105AB000746F206368616E6765202020202020209D
:105AC00000000000313020494E464F524D415449AC
:105AD0004F4E2020000000004761696E2052616E29
